:020000040800F2
:10000000D8550020E94B0008594A00085B4A00080F
:100010005D4A00085F4A0008614A000800000000CD
:10002000000000000000000000000000C52D0008D6
:10003000634A0008000000006D2D0008B527000885
:10004000214C0008254C0008294C00082D4C0008C4
:10005000314C0008354C0008394C00083D4C000874
:10006000414C0008454C0008494C00084D4C000824
:10007000514C0008554C0008594C00085D4C0008D4
:10008000654A00086B4A0008614C0008654C00088E
:10009000694C00086D4C0008714C0008754C000854
:1000A000794C0008714A00087D4C0008814C00081A
:1000B000854C0008894C00088D4C0008914C0008C4
:1000C000954C0008994C00089D4C0008A14C000874
:1000D000A54C0008774A00087D4A0008A94C000892
:1000E000AD4C0008B14C0008B54C0008B94C0008F4
:1000F000BD4C0008C14C0008C54C0008C94C0008A4
:10010000CD4C0008D14C0008D54C0008D94C000853
:10011000DD4C0008E14C0008E54C0008E94C000803
:10012000ED4C0008F14C0008834A0008F54C00082B
:10013000F94C0008FD4C0008014D0008054D000871
:10014000094D00080D4D0008114D0008154D00081F
:10015000194D00081D4D0008894A0008214D00086E
:10016000254D0008294D00082D4D0008314D00088F
:10017000354D0008394D00083D4D000800000000D5
:10018000414D0008454D00082DE9F14FB0B09246B1
:1001900004910DF142013A9A2B9199464A70002040
:1001A0000AE01AF8011B0498309A9047002804903E
:1001B00000F0B6860D98401C0D909AF8000050B1E2
:1001C0002528EED1002100220791089209910A9278
:1001D0000B910C9204E00D9800F0A4BE41F00101D7
:1001E0001AF8010F2028F9D023280CD02B2804D08E
:1001F0002D2805D0302809D00BE041F00201EFE7AF
:1002000041F00401ECE741F00801E9E741F0100199
:10021000E6E72A280FD1D9F8002052F8040BC9F8D4
:10022000002000280F9003D540420F9041F00401B8
:100230000AF1010A14E00F92DFF828380AE00F985B
:10024000984205DA00EB800402EB4402303A0F9248
:100250000AF1010A9AF80020A2F130000A28EED330
:100260009AF800002E2803D04FF0FF320E9229E0BA
:100270001AF8010F2A2809D1D9F8000050F8042BE8
:10028000C9F800000E920AF1010A1BE02D280CBFEC
:100290000AF1010A002000220E92DFF8C8470BE0A5
:1002A00040B90E9AA24205DA02EB820503EB450340
:1002B000303B0E930AF1010A9AF80030A3F13002A4
:1002C0000A2AEDD3ADF84010DFF89C07784400F51A
:1002D000F3609AF8001000F057FF08B11AF8010B0C
:1002E0008DF842009DF84200682805D19AF8000078
:1002F00068280CD1622106E06C2804BF9AF800003F
:100300006C2804D171218DF842100AF1010A12A85B
:1003100006901AF801BBBBF125012CD01C3900F066
:10032000D081091F022940F2CC81133900F02385C6
:10033000093900F0C681891E00F0B885491E00F019
:100340006585491E022940F2BC81091F00F05E85C7
:10035000491F00F02881491E00F00D85491E00F05C
:10036000D080C91E0DD0891E00F00585C91E00F081
:10037000028500F0A6BD25238DF84830012100F04C
:10038000ABBDD9F8000050F8044BC9F80000002CB0
:10039000059440F0A3802B994878002800F09980BC
:1003A0004FF0FF340FF6843000F0FAFE201A40F0D0
:1003B000B78500F092BD6D1E40F0A9853096079D6F
:1003C00012AF75B1309E17F8012B02A9304600F02C
:1003D00073FE002801D46D1EF5D10028309640F040
:1003E0009F850A9D3020002D8DF804000CDD309E85
:1003F000012301AA02A9304600F06EFE002840F059
:100400008F856D1EF4D13096059F089D75B1309E85
:1004100017F8012B02A9304600F04EFE002801D447
:100420006D1EF5D10028309640F07A850B9D302066
:10043000002D8DF804000CDD309E012301AA02A9D5
:10044000304600F049FE002840F06A856D1EF4D168
:10045000309605980899099D471875B1309E17F890
:10046000012B02A9304600F027FE002801D46D1EA2
:10047000F5D10028309640F053850C9D3020002D9A
:100480008DF804000CDD309E012301AA02A930463C
:1004900000F022FE002840F043856D1EF4D1309616
:1004A0009DF8400041077FF588AE2020002C8DF894
:1004B00004007FF782AE309D012301AA02A92846DD
:1004C00000F00AFE002840F02B85641EF4D1309520
:1004D00073E60FF66440059000F0FFBC0E9D002D02
:1004E00004D5204600F07CFE044607E02A4620465C
:1004F00000F092FE002814BF041B2C46089400F064
:10050000ECBCD9F8001051F8040BC9F8001020F029
:100510000004002121F0FF3512ABCDE9024505931F
:10052000DDE9022306993C2413B90AB90E9898B163
:1005300002F00F053035641EEEB23A2EA8BF273503
:10054000120942EA03721B090D5508BF002A03D0A5
:1005500005980D19A842EBD308190590C4F13C0287
:100560000E98089282420ADABDF84010821A4FF6BD
:10057000EF7001400A92ADF8401000F0AEBC0028C8
:1005800040F1AB849DF8400000F01400102840F0CA
:10059000A4840F9B07990A985B1A1B1A9A1A002ABF
:1005A00040F39B84E5E32B99487820B14FF0FF346A
:1005B0000FF65430F8E69DF84200622861D06828B2
:1005C00017D06A283FD06C2806D0712847D07428ED
:1005D0002CD07A281DD064E0D9F8001051F8040B13
:1005E000C9F80010002868D14FF0FF340FF6303002
:1005F000DAE6D9F8001051F8040BC9F8001020B958
:100600004FF0FF340FF61830CEE60D99018000F060
:1006100064BCD9F8001051F8040BC9F80010002888
:100620004BD14FF0FF340FF6F820BDE6D9F800109B
:1006300051F8040BC9F8001000283ED14FF0FF34E8
:100640000FF6DC20B0E6D9F8001051F8040BC9F819
:10065000001080B94FF0FF340FF6C420A4E6D9F89B
:10066000001051F8040BC9F8001020B94FF0FF3406
:100670000FF6AC2098E60D9AD317C0E9002300F0DE
:100680002CBCD9F8001051F8040BC9F8001020B99F
:100690004FF0FF340FF6882086E60D99017000F0C8
:1006A0001CBCD9F8001051F8040BC9F8001020B98F
:1006B0004FF0FF340FF6682076E60D99016000F0E8
:1006C0000CBCD9F80020D21D22F00702C9F8002086
:1006D000D2E900010832C9F80020CDE90201C80FB3
:1006E00002D007982D210AE0BDF84000810702D50D
:1006F00007982B2103E0C00705D50798202112AAEF
:100700001154401C0790DDE90223079912A8CDE996
:100710002C2308444BF020016129059021AC0BD01B
:100720000E99002902D506210E9105E001BF4BF07C
:100730002001672901220E92DDE9022359004915A3
:10074000491C0DD11A030BD0ABF1610503211A2D01
:10075000089102D20FF6E41110E00FF6E4110DE05B
:1007600059004915491C0DD11A030BD1ABF1610594
:1007700003211A2D089119D30FF6CC11032200F092
:1007800077FDAAE3DDE90201CDE92E01DDE92E23A3
:1007900023F00047B7F5801F22F000060DD200229B
:1007A000002F08BF002E009203D116E00FF694111F
:1007B000E4E76A4600F068FD0FE0DFF8DC08DFF8E8
:1007C000DC1800EB17500090DDE92E234FF0FF30CE
:1007D0001940DFF8CC7810403943CDE902014BF0E5
:1007E000200061280DD1059830210170821CBBF1D9
:1007F000610F05920CBF7821582141700798801C29
:100800000790DDE9020120F0000231F0004308BF4B
:10081000002A02D10026002568E14BF02008B8F13B
:10082000610F40F0B4800E98002847BF212101914C
:10083000401C0190019FDDE92C017F1C0022002358
:10084000DDE9024500F058FD00998DF8842038BF9D
:1008500085F00045091F002F00910DF1850653DD3D
:10086000204629460022002300F05EFD4CD24800BD
:10087000400D00F11C0212D0002A10DD40F2FF737F
:100880009A4206DBDFF81C1805F000400143002007
:1008900011E06FF31E5141EA025120460BE024F0B3
:1008A000000035F0004108BF00280FBF29461C2278
:1008B000294600F051FD04460D4600F0EBFDFF1FF8
:1008C000002F804609DD00F003FE02460B4620465D
:1008D000294600F00FFE04460D46F01D0721B8F131
:1008E000000F0CDD491E5EBF08F00F0200F8012D5D
:1008F0004FEA2818F3D502E0002200F8012D491E26
:10090000FAD5C61D002FABDC0DF18500361A019813
:100910008642D8BF304600280DF1850430D4B0425D
:1009200006DA0DF185010A5C082AA8BF0F2100DA5A
:100930000021024621AB134400E0401E13F8015988
:10094000521E8D42F9D00F2904D10DF185018B5C27
:100950005B1C8B54002A04D50099091D21AC401C56
:100960000091411E0CD46218ABF13A061378303373
:10097000DDB23A2DA8BFF318491E02F80139F5D5AA
:100980000E99002940F1B080421E0E92ACE0009911
:10099000DFF8142747F29750414391FBF2F2DDE96B
:1009A0002C45009225F00045D2F1070204DD2046D7
:1009B000294600F04EFB0BE052420020DFF8EC1617
:1009C00000F047FB02460B462046294600F004FE95
:1009D0000446B8F1660F0E9806BF009F0A37062737
:1009E0003F18142FC8BF142730200D468DF88400FF
:1009F0000DF18506002F39DD2046294600F010FF55
:100A000001460A4606F1080304200A26B2FBF6F660
:100A100006EB860EA2EB4E02303203F8012C0A22BE
:100A2000B6FBF2F202EB820EA6EB4E063036401E0B
:100A300003F8026DE9D1083F002F03F10806D9DD64
:100A4000084600F001FF02460B462046294600F00A
:100A500051FD0022DFF8583600F004FF04460D4631
:100A6000CAE700BFCBCCCC0CB04100000DF1850033
:100A7000361A0DF1850404E00098401E761E0090A1
:100A8000641C20783028F7D0B8F1660F02D10099A5
:100A9000491C04E0B8F1650F0CBF012100210E983C
:100AA00008188642B8BF701E00281DD4B04204DA70
:100AB000215C3429C8BF392100DC30210246631E85
:100AC0009D1800E0401E15F80169521E8E42F9D0B3
:100AD000392902D1A15C491CA154002A04D50099EE
:100AE000491C1C46401C00910646009D00F08CFFEE
:100AF000406A0778DDF8388030B2002802DC012631
:100B00000FF248644BF02000662808BF6D1C16D019
:100B1000672846D128B210F1040F48DB404546DA79
:100B20009DF840006D1C010703D430B24045B8BFAA
:100B3000804628B2B8EB000848BF4FF000080FFA13
:100B400085FBBBF1000F00F3B5800898411C0891AC
:100B5000302205990A54B8F1000F03DC9DF84000DB
:100B6000010704D50898411C089105990F5418EB0A
:100B70000B0FB8BFC8F100052DB268420B90A84416
:100B800032B29045B8BF4646059B089836B20996E2
:100B900032462146184400F06BFBA8EB06000C908F
:100BA000D2E0BBF1610F17D14FF0700B19E030B2FA
:100BB000404504DA9DF840100A0758BF8046B8F156
:100BC000010848BF4FF00008BBF1670F14BF4FF09A
:100BD000450B4FF0650B04E0BBF1410F08BF4FF030
:100BE000500B0898411C0891B8F1000F059914F8B2
:100BF000012B0A5403DC9DF8400001071AD5089820
:100C0000411C0891B8F1000F05990F5412DD761EB2
:100C100030B280450598089BB8BF464632B221469F
:100C2000184400F025FB089936B271180891A8EB1A
:100C300006000B9005980899084429B2002980F80D
:100C400000B003D42B224270821C04E02D2242709B
:100C50000D46821C6D4200212CAB28460AE004465A
:100C60000A2094FBF0F000EB8005A4EB450403F8A8
:100C7000014B491C00B20028F1DC012906DC4BF0D5
:100C80002000652804BF302002F8010B00292CAB9E
:100C900008D1302002F8010B06E0491E585C3030C4
:100CA00002F8010B0029F8DC059908980844121A8B
:100CB000099249E030B229B288421CDA0598089BB3
:100CC00032B22146184400F0D3FA089936B27118AE
:100CD000ABEB0606B8F1000F08910B9603DC9DF80C
:100CE0004000020704D5059847540999491C099109
:100CF000CDF8308028E00598089B2AB22146184498
:100D000000F0B6FA0898761B5844B8F1000F089026
:100D100003DC9DF840100A0703D5411C0891059992
:100D20000F5430B280450598089BB8BF464632B292
:100D300004EB0B01184400F09BFA089836B2301807
:100D40000890A8EB06000B909DF8400000F01400FE
:100D5000102840F0C280079A08990B988A180999C0
:100D600082180C988A1882180F98824280F2B580F7
:100D7000821A0A92B1E09DF84200622808D06828E1
:100D80000ED06A2814D06C281FD0712810D01CE017
:100D9000D9F8001051F8040BC9F80010C0B21AE0DD
:100DA000D9F8001051F8040BC9F8001080B212E015
:100DB000D9F80020D21D22F00702C9F80020D2E99C
:100DC00000010832C9F8002006E0D9F8001051F8F7
:100DD000040BC9F800100021CDE902019DF8400084
:100DE00001075AD5DDE90223002B08BF002A54D0A1
:100DF0004BF02000782850D1079812A930220A54CD
:100E0000401C431C079301F800B046E09DF84200E7
:100E1000622808D068280ED06A2814D06C281FD009
:100E2000712810D01CE0D9F8001051F8040BC9F853
:100E3000001040B21AE0D9F8001051F8040BC9F8BC
:100E4000001000B212E0D9F80020D21D22F00702F3
:100E5000C9F80020D2E900010832C9F8002006E0F4
:100E6000D9F8001051F8040BC9F80010C117CDE9EA
:100E70000201002902D507982D210AE0BDF84000A3
:100E8000810702D507982B2103E0C00705D50798F5
:100E9000202112AA1154401C079012A8079901445E
:100EA000059102A8594600F04FF816E0012007907E
:100EB000D9F8000050F8041BC9F800008DF848105C
:100EC0000BE025210122BBF1000F8DF8481007929D
:100ED00003D08DF849B0022107910F9A07980A991B
:100EE0000C9C121A0898521A0B99121A0998521A45
:100EF000121A9DF84000141B41073FF560AA2020FC
:100F0000002C8DF804007FF75AAA309E2546012355
:100F100001AA02A9304600F0DFF800283FF44BAAEE
:100F20004FF0FF3031B0BDE8F08F00007072696E95
:100F300074665F733A206261642025732061726772
:100F4000756D656E740000002DE9FC4307466F293E
:100F50003E6908BF082405D041F02000782814BF5E
:100F60000A2410243C25D7E90023642918BF6929E5
:100F70009046994605D1002B03D5D8F1000869EBBE
:100F80004909B9F1000F08BFB8F1000F0CD1386B57
:100F900050B9082C39D197F83800010735D53020E1
:100FA0003B2586F83B0030E08DF80010404649466E
:100FB0002246E31700F02CFD3032D0B26D1E3A28E5
:100FC000019504DB9DF80000A0F151018A187255CB
:100FD000404649462246E31700F01AFD80465FEA84
:100FE000010908BFB8F1000F03D0F86871198842F1
:100FF000DCD3082C09D197F83800010705D5705DBE
:10100000302802D06D1E30207055C5F13C02BA6107
:101010007119F960386B824208DA821A3A624FF627
:10102000EF70398F01403987BDE8F38300280ED572
:1010300097F8380000F01400102808D17B6B79690C
:10104000386A5B1A1B1A9A1A002AC8BF3A62BDE8AE
:10105000F3832DE9D04306460F4614464FF00008AF
:10106000DFF8509012E0E00707D542464B46304685
:10107000394600F0F7FB06460F46404649464246D1
:101080004B4600F0EFFB641080468946002CEAD105
:1010900030463946BDE8D08302FCFFFFFFFF0F80DA
:1010A0000000E03F0000F07FA08601000000F03F5C
:1010B00084D797410000244010B503460C461146E2
:1010C000A0689847A06020B1E06A401CE062002060
:1010D00010BD4FF0FF3010BDF8B505460E4617465F
:1010E0001C4600205CB117F8011BB068A847B0602F
:1010F00030B1F06A401CF0620020641EF3D1F2BDF2
:101100004FF0FF30F2BD00007072696E74665F735D
:101110003A20256E20646973616C6C6F776564009A
:101120007072696E74663A2062616420256E206177
:101130007267756D656E7400000000006E616E0070
:101140004E414E00696E6600494E4600300030B494
:10115000002513E050F8042BD30744BFA9F1010385
:101160009A18091F042942F8045BFAD213468C0727
:1011700044BF15809B1CC90748BF1D7050F8041B55
:101180000029E7D130BC7047C9B202788A421AB14F
:101190001CBF10F8012FF9E718BF002070472E0080
:1011A00080B500B906A005490B681BB122220021B9
:1011B000984701E000F0AFFC222002BDD44B002094
:1011C000636F6E73747261696E742068616E646CB3
:1011D00065723A20626164206D65737361676500B2
:1011E00000F10103810704D010F8011B820781B1CF
:1011F000FAD10268A2F10131914311F0803104BFAC
:1012000050F8042FF6E709BAB1FA81F100EBD100EA
:10121000401CC01A70470000C9B2830706D0521E96
:1012200022D310F8013B9942F7D11FE0083A13D3BB
:1012300002F1040241EA012141EA014150F8043B74
:10124000121F21BF4B40A3F1013C2CEA030C1CF000
:10125000803FF3D0C9B2001F083210F8013B521E84
:1012600028BF91EA030FF8D818BF0120401E70472D
:101270004AB1000011F8013B521E00F8013B1CBFAF
:1012800011F8013BF8E7704710B5144600F002F87A
:10129000226010BDC1F30A5343B14A0012F5001F8A
:1012A00028D2A3F2FE32A1EB0251704750EA410C62
:1012B00020D001F0004C31EA0C01B1FA81F204BFF8
:1012C000B0FA80F3D2180B3AB2F120032CBF00FA27
:1012D00003F1914041EA0C013EBFC2F1200C20FA1B
:1012E0000CF319439040524240F2FD33D21A01EB05
:1012F00003517047002270474FF4001C1CEB410F54
:1013000094BF1CEB430F09E041EA030C50EA4C0C7C
:1013100052EA0C0C03D2994208BF9042704714BFA6
:101320008B428242704700004FF4001C1CEB410FBF
:1013300094BF1CEB430F09E041EA030C50EA4C0C4C
:1013400052EA0C0C03D28B4208BF8242704714BF92
:101350009942904270470000124254D440F2FF7C00
:101360001CEA11530FD0634531D09B1863453CBF35
:1013700001EB0251704701F0004141EA0C5100209D
:10138000AFF30080704750EA410320D001F0004CD9
:1013900091EA0C011CD0B1FA81F30B3B9A420DD9B2
:1013A000D21A994051EA0C01C3F1200C20FA0CFC2E
:1013B00061449840531C40F2FF7CD7E7914041EADA
:1013C0000C01C2F1200C20FA0CF319439040704735
:1013D000B0FA80F31533202BE0D3202AEED3203A45
:1013E000203B9A4209D9D21A00FA03F141EA0C01D2
:1013F0000020531C40F2FF7CB8E700FA02F141EAFA
:101400000C0100207047524240F2FF7C1CEA11534D
:101410000DD06345DBD0B2EB030C3CBFA1EB025116
:1014200070470CF1010221EA035141F4801150EAA6
:10143000410CCCD001F0004C352A27DC30B481EAD5
:101440000C01B2F1200309DAC2F12003044601FACB
:1014500003F5D0402843D1409C400CE0C3F120026A
:10146000450020FA03F418BF44F0010421FA03F008
:1014700091400C43002174F1004550F1000051EB04
:101480000C01244230BC7FF47BAF704761460020E2
:1014900076E70000C1F30A5340F2FE329B1A14DDD6
:1014A000D3F120034FEAE17208DDC90241EA50514D
:1014B00041F00040D84080185040704703F2E130BE
:1014C00010B1D24382F00040704700207047000006
:1014D000C11768B14840401AB0FA80F29040D21C5F
:1014E000C907C2F5846241EA025202EBD0214005ED
:1014F0007047000070B44FF0004591EA030F40F1CF
:101500000D836B40841A71EB030603D2001BB141BB
:10151000121973414FF4001C1CEB410F34BF7CEBDC
:10152000430442E00C0DA4EB1356352E4FDC45EA84
:10153000C323DB0A45EAC121C912B6F120050DDD3E
:1015400063FA05F6EB4086EA0305124218BF45F040
:101550000105C01851F100010CD213E062FA06F542
:10156000F2405540F3415A40B340F3405A4080188E
:10157000594107D349085FEA30005FEA350528BFC3
:1015800045F0010501F58011420875F1004250F166
:10159000000041EB04514E0016F5001F70BC38BF2F
:1015A00070470020090D090570471CEB410F10D250
:1015B00052EA43060BD0BCEB410F05D80C0DAB43F0
:1015C000661E342EB6DD02E0AB438018594170BC74
:1015D000704770BC70470000F0B540F2FF7581EABB
:1015E000030C0CF0004C15EA11541DBF15EA1357FB
:1015F000AC42AF42E5E0BC41C1F31301C3F31303B6
:10160000801A994143F4801304D2641E400049417A
:1016100080185941C90241EA5051B1FBF3F603FB6E
:101620001611A2FB0675D7EBC020A94102D2761E87
:1016300080185941C90241EA5051B1FBF3FE03FB46
:101640001E11A2FB0E75D7EBC020A94103D2AEF14B
:10165000010E80185941890241EA9051760546EA07
:101660008E2EB1FBF3F603FB1611A2FB0675D7EB2A
:101670008020A94102D2761E80185941C90241EA50
:1016800050514EEA060EB1FBF3F603FB1611A2FB16
:101690000675D7EBC020A94102D2761E80185941A9
:1016A000C90241EA5051B1FBF3F703FB1711A2FB4A
:1016B0000735D3EBC020A94167F100070CBF0042FA
:1016C00047F0010766F3D5274FEA1E31B80814F535
:1016D000806412DDBD0775F1004250EB0E5051EBF6
:1016E000045111F5801F5CBF41EA0C01F0BD4CF0C4
:1016F0007F6141F0E0410020F0BDBD076D0840EA88
:101700000E5041F48011D4F10104B4F120060ADA3C
:10171000C4F120060200E04001FA06F3E14018435C
:10172000B24015430EE0342C13DCC6F1200445EA28
:1017300040056D0820FA06F2154321FA06F0A14093
:101740000D43002175F1004250F1000051EB0C01F6
:10175000F0BD00205FEA0C01F0BDCFB992185B41EB
:10176000B3FA83F704BFB2FA82F6BF190B3FB7F1A1
:1017700020062FBF02FA06F3BB40C7F1200622FA6B
:1017800006F638BF3343BA401CB1E419641E33E790
:101790007F4231F00041B1FA81F404BFB0FA80F623
:1017A000A4190B3CB4F120062FBF00FA06F1A140AA
:1017B000C4F1200620FA06F638BF3143A0403C1B96
:1017C0001AE7AC421ABF05EA1357AF4212E050EADB
:1017D00041061CBF52EA4306BFE750EA41073046C4
:1017E00061461CBF41EA0551F0BD52EA430C08BFF7
:1017F000C143F0BD00204FF4001616EB410F98BF17
:1018000016EB430F08BF16EB410F24BFC14305E0A1
:1018100016EB430F0CBF61464CEA0551F0BD0000CA
:10182000400D491840EA81200CD2490DA1F5806194
:10183000491C40F0004005DBD1F11F0154BFC840F6
:10184000C017704700207047014648B1B0FA80F1D8
:101850008840C91CC1F58461090501EBD021400510
:1018600070470000B0B581EA030C0CF0004C40F268
:10187000FF7515EA11541DBF15EA1357AC42AF426C
:1018800039E0E41923EA455343F48013C90241F0D7
:10189000004141EA505EC7021100A7FB0202002886
:1018A0004FF00000EEFB01204FF00001E3FB0721A9
:1018B00018BF42F00102401800214941E3FB0E012C
:1018C000A4F580640F0302D252004041494154F113
:1018D00001046CDD470872F1004250F1000051EB49
:1018E0000451A1F580115CBF41EA0C01B0BD4CEA86
:1018F00005510020B0BD05EA1357AC4214BFAF42FA
:1019000041E050EA410E1CBF52EA430E02E061463C
:101910000020B0BD24423C441BD15FEA070EF6D044
:10192000090302BF01460020AEF1140EB1FA81F79F
:10193000AEEB070401FA07FE0C37C7F1200100FAED
:1019400007F7C8404EEA000E23EA455343F48013DC
:10195000A2E733F00043B3FA83F704BFB2FA82FE82
:1019600077440B3FE41BB7F1200E2FBF02FA0EF3B2
:10197000BB40C7F1200E22FA0EFE38BF43EA0E0329
:10198000BA40641C82E750EA410E14BF52EA430E8B
:101990006FF000014FF4001717EB430F8ABF194691
:1019A00017EB410FB5E74CEA05510020B0BDD4F16B
:1019B0000104B4F120070FDAC4F12007520828BF50
:1019C00042F0010210FA07F501FA07F7E1BF2A43D6
:1019D000E0403843E1400FE0352C98DCC7F12004AB
:1019E00052EA400220FA07F218BF42F0010231FA2F
:1019F00007F0A1400A43002172F1004250F10000BB
:101A000051EB0C01B0BD0000004870471C000020E5
:101A1000D3BBD9B1B2F5803F5BD2022A1ED98C4626
:101A2000B1FBF2F102FB11C31B0443EA1043B3FB09
:101A3000F2FC02FB1C3380B240EA0343B3FBF2F03A
:101A400002FB103240EA0C4000237047022A05D9FD
:101A50008446B0FBF2F002FB10C270474AB105D1D8
:101A600000F0010249085FEA3000704700220023BD
:101A7000704700F009B90B000200002100207047F8
:101A8000F7D3002200237047904271EB030CF2D38E
:101A900070B5B1FA81F4B3FA83F52C1BA340C4F1FD
:101AA000200532FA05F63343A2405FF00046E640D7
:101AB00002E05B085FEA3202841A71EB030524BF7F
:101AC000204629467641F4D302000B003000002165
:101AD00070BD70B5B1FA81F4B2FA82F5C4F1200498
:101AE0006419B4F12006DAD3B2405FF00044F44048
:101AF000002502E052085FEA3303C61A71EB020EBA
:101B000024BF3046714664416D41F3D302000B009F
:101B10002000290070BD012000F0B8B8841A71EBD4
:101B2000030604D26E40001BB141121973414FF4F9
:101B3000001C1CEB410F34BF7CEB430683E00C0D13
:101B4000A4EB1356362E00F37C80012E45EAC32306
:101B500041DC43EA525312BFD20292025B082405D1
:101B600045EAC12141EA5051D2EBC020994125D428
:101B700007D1B0FA80F610FA06F162D000202036C4
:101B800008E0B1FA81F6B140C6F1200220FA02F273
:101B90001143B0404FEAF474B4EB465434F00106FC
:101BA0004FEA74040AD8D6F50016760D04F0004406
:101BB000F04061FA06F25040F1404840C00A40EA65
:101BC000415021F0004128BF5FEA500550F100006C
:101BD00044EBD12135E0DB0A45EAC121C90AB6F15F
:101BE00020050EDD42EA0242120CC5F1200603FA7E
:101BF00006F6EB4042EA06056D42984161F10001AC
:101C00000DE062FA06F5F240554063FA06FC82EAFE
:101C10000C02F3405A406D42904161EB030111F414
:101C2000801F05D1641E620502D06D00404149410C
:101C300021F48011430875F1004350F1000041EB9D
:101C4000045170BC70471CEB410F15D223F00043C8
:101C500052EA43060BD04FEA4C0CBCEB410F04D8C0
:101C60000C0D661E342EB7DDEBE7801A994150EA61
:101C7000410608BF0021E4E708BF1CEB430F28BF63
:101C80006FF00001DDE700007047000080B5AFF3A2
:101C90000080024A11001820ABBEFBE726000200BC
:101CA000F0B585B050260B9D25B986F3118800F05C
:101CB0003EFAFEE70C9C24B986F3118800F037FA4F
:101CC000FEE75C270097009F5C2F04D086F3118805
:101CD00000F02DFAFEE7009E25630026022584F819
:101CE000595004AF0A9D039602940197009500F0A5
:101CF00034F8204600F077F8049805B0F0BD2DE9DF
:101D0000F8430646174684B088469946B80000F066
:101D100073FB05001CD05C2000F06EFB040014D0A7
:101D20000020256384F85900039002940D980C99C3
:101D3000019000914B463A464146304600F00DF87E
:101D4000204600F050F8012004E0284600F0DDFBBA
:101D50004FF0FF3005B0BDE8F0832DE9F0470A9F52
:101D600081460C461546386B9A46A522A90000F01C
:101D70001DFC396B01EB8502101FC0084FEAC0083B
:101D800008F0070007F1340554B10021625C6A5481
:101D9000605610B1491C1029F8D30020E87300E008
:101DA0002870089E099C372E88BF3726FE62AE61D8
:101DB000E861C6F13806381D00F022FC07F1180072
:101DC00000F01EFC3F61BE617F620020286287F840
:101DD000580052464946404600F04EFC386004B177
:101DE0002760BDE8F0872DE9F04100F06BF8DFF8DF
:101DF0006455DFF86485E86C401CE8641426A86A22
:101E000028BBAC62E86C012829D1002706FB07F04B
:101E1000404400F0E8FB7F1C382FF7D305F1740035
:101E200000F0E1FB05F18807384600F0DCFB2846AE
:101E300000F0D9FB05F1140000F0D5FB05F13800E6
:101E400000F0D1FB05F17400E8622F6307E0A86D94
:101E500028B9E06AA96ACA6A904228BFAC62A86E33
:101E6000401CA8666064E06A696D814238BF68659D
:101E70004643211D08EB060000F0C5FB00F089FC7D
:101E8000A86D30B100F0A0F903D200F074FA00F0B0
:101E90004EF9BDE8F08180B588B1DFF8B824116F44
:101EA00021B100F02BF900F042F9FEE7116F491C57
:101EB0001167002100F06AFA00F044F808B900F058
:101EC00031F901BD044600F04BBC80B586B000215D
:101ED0000591049103AA04A905A800F081FD0598C5
:101EE000049902900022009201910023039A0FF2BC
:101EF00000510FF25D30FFF7D3FE98B100F086FD80
:101F00005021012810D181F3118800F010F9DFF879
:101F1000CC044FF0FF31C1660122826500210165CA
:101F200000F0CCFB07B000BD10F1010FFAD181F336
:101F3000118800F0FCF8FEE7DFF8A004016F491CEF
:101F40000167704770B5DFF80C64306F002400251E
:101F500020B900F042F800F0EAF8FEE700F000FCDB
:101F6000306F401E3067306F002835D1F06CD0B92B
:101F700032E0F068C46800F034F800F0B9F9E06AC3
:101F8000716DDFF85C24814238BF706514235843BB
:101F9000211D104400F037FBE06AB16ACA6A904222
:101FA00024BF0121316630680028E2D10CB100F075
:101FB00086F9F46D3CB100F01CF808B101203066E0
:101FC000641EF8D1F565306E30B1DFF818144FF0AB
:101FD0008050012500F0AAF8C6E1502181F3118854
:101FE000704704F1180000F034BBDFF8F003006D17
:101FF00070472DE9F843DFF85C73386F002600283E
:102000004DD13C6D641C3C6510D1F86A006820B16C
:10201000FFF7E3FF00F08BF8FEE7F86A396BF9622F
:102020003863786E401C786600F049F9F86EDFF886
:10203000B09384424FF0140827D319E0281D00F014
:1020400008FBA86A18B105F1180000F002FBE86A65
:10205000796D814238BF786508FB00F0291D48443E
:1020600000F0D1FAE86AB96ACA6A904228BF01262C
:10207000F86A006830B1F86AC168CD68686884425F
:10208000DCD201E04FF0FF30F866B86AC06A08FBA6
:1020900000F059F80010022904D3012602E0F86D7F
:1020A000401CF865386E00B1012661E110B5DFF81B
:1020B000A422106F10B10121116610BD1066516D80
:1020C000DFF81C3300E0491E14244C43185930B982
:1020D0000029F8D100F012F800F029F8FEE71819ED
:1020E00000F1080443685B684360A34204BF5B6877
:1020F00043604068C3689362516510BD502080F30F
:102100001188704710B50C4620B9FFF7F7FF00F0B3
:102110000EF8FEE700F027F800F082FA2046BDE84E
:10212000104009E0DFF8BC124FF080500860BFF3A8
:102130004F8FBFF36F8F7047012127E138B50D46F0
:10214000144620B9FFF7DAFFFFF7F1FFFEE700F0D2
:102150000AF800F058FA0CB14FF0FF352146284636
:10216000BDE8344012E1DFF87422936A03F11801EC
:10217000704738B5C068C46824B9FFF7BFFFFFF7E0
:10218000D6FFFEE7FFF72DFFDFF85052286F40B96A
:1021900000F0AEF800F012F838BF6A6500F0F1F810
:1021A00002E004F11801284600F02DFA00F00CF8C6
:1021B00002D20120286632BD002032BDE26A686D7D
:1021C000DFF81C3290427047A86AC16AE06A814217
:1021D0007047DFF808124A6E0260096D416070476F
:1021E000F8B504460D46502024B980F31188FFF756
:1021F0009EFFFEE725B980F31188FFF798FFFEE701
:1022000000F0AEFADFF8D401016D62682E688B1A17
:1022100016F1010F0ED0476ED4F800C0674501D00B
:1022200091420BD2B34207D2F31A2B60416E216068
:10223000006D6060002402E000202860012400F0AE
:10224000A8FA2046F2BDDFF8941101200866704715
:1022500070B5414CDFF8845111E000F081FA286A32
:10226000C668301D00F0F5F9E86C401EE864686B44
:10227000401E686300F08DFA304600F009F8686B84
:102280000028EAD121680229F9D3FFF74BFFF6E7CE
:1022900010B5044694F8590040B9206B00F035F9A8
:1022A0002046BDE8104000F030B910BD0128F7D03D
:1022B0000228FAD0FFF722FFFFF739FFFEE7254992
:1022C000C86A006810B94FF0FF3203E0C86AC268FC
:1022D000D0684268CA667047DFF80011886D08B997
:1022E00001207047086F08B902207047002070472E
:1022F000201D00F0AEB938B5044600213CB3154DA1
:10230000A86A5022844204D082F31188FFF70FFF9D
:10231000FEE7206D20B982F31188FFF708FFFEE782
:10232000E26AE36C401E9A42206510D078B9FFF74C
:10233000DFFFE26CDFF8A830E262C2F13800A06192
:10234000696D914238BF6A6500F008F801210846BE
:1023500032BD0000304A00206C3C00201420424373
:10236000211D981800F04FB900F013FA284670BDEF
:102370003046BDE8F2831B4A4FF080511160704730
:10238000000014204243211D98187047F8B5134DE2
:102390002F6D0C46A96A0646081D00F05AF916F181
:1023A000010F05D124B1A86A011D05F138001BE019
:1023B000A86AF6194660BE42A86A05D2011D286BBC
:1023C000BDE8F44000F02CB9011DE86A00F028F9DE
:1023D000E86E864238BFEE66F1BD0000304A00204C
:1023E0006C3C002004ED00E0BDE8F44000F00BB9C7
:1023F00049444C45000000002DE9F8430446FFF72E
:102400009BFD694FB8684FF00009002508BB07F134
:10241000180307F1180113F0070F4FF470500A4624
:1024200005D0CA1DD208D200C2F570500818801815
:102430000838C008C0003A607D60B860456005603B
:10244000831A5360106050683861F8604FF00040A4
:1024500078614FF050087869044246D1002C44D08E
:10246000083414F0070F1FBF04F1080004F007043C
:10247000041B14F0070F02D000F040F8FEE7A4B3ED
:10248000F868A04231D33E68394601E0314606463D
:102490007068A04202D230680028F7D1B86886423E
:1024A00023D00A683068086002F108097268121BBC
:1024B000112A0CD3311911F0070002D000F01EF8D8
:1024C000FEE7301D02517460084600F048F871685C
:1024D000F8683A69401AF860904238BF3861786904
:1024E00001437160356009F00705FFF72BFD15B159
:1024F00000F004F8FEE74846BDE8F28388F311884F
:10250000BFF34F8FBFF36F8F7047002800D1704724
:1025100038B5A0F10804244D61686A69502311425E
:1025200002D100F015F8FEE7206810B100F010F8B5
:10253000FEE791436160FFF7FFFCE96860684118BE
:10254000E960204600F00BF8BDE83140FFF7FABC27
:1025500083F31188BFF34F8FBFF36F8F704730B590
:1025600011490A4600E01A4613688342FBD35368B8
:10257000D418844203D14068C3185360104643689E
:102580001468C518A54208D189688C4204D06168D6
:10259000CB184360246800E00C460460824218BFF8
:1025A000106030BD000000005400002062F30F22D4
:1025B00062F31F4200B500BF1300964694461039DF
:1025C00028BFA0E80C50FAD85FEA417C28BF0CC0B5
:1025D00048BF40F8042BC90728BF20F8022B48BF8A
:1025E00000F8012B00BD4FF0FF3200F108018260BE
:1025F0004160C16000F10802026100210160704782
:1026000000210161704710B542684A6093688B6091
:1026100094686160916008610168491C016010BDA7
:1026200030B50A6812F1010F08BF036907D000F145
:10263000080300E023465C682568AA42FAD25A687B
:102640004A6091608B60596008610168491C0160B3
:1026500030BD4368016982689A60836842685A6045
:102660004A68824204BF83684B60002202610868A6
:10267000401E086008687047490810B54900A0F17D
:1026800020034FF0807499611A60DC616FF00202E0
:102690000FF20D01596140F8242D203810BD0000C3
:1026A0005B494A68502012F1010F80F31188BFF393
:1026B0004F8FBFF36F8F00D0FEE7FEE77CB5554A22
:1026C000554B10685021984202D100F0B3F8FEE754
:1026D0001068524B984202D100F0ACF8FEE7504B24
:1026E0001C780194FF251D7007251E78484C8DF835
:1026F00000609DF80000A56000F05000207006E02A
:10270000401EA0609DF8000040008DF80000A06809
:102710009DF800502E06F3D4C0F10705042D02D019
:1027200000F088F8FEE7000200F4E060A060019885
:102730001870116A41F470011162106A40F0704023
:10274000106200F07FF80020606000F059FB35480F
:10275000016841F04041016000F042FB002076BD7D
:10276000502080F31188BFF34F8FBFF36F8F28493C
:102770004A68521C012A4A600AD12B490A6813068A
:1027800006D080F31188BFF34F8FBFF36F8FFEE742
:1027900070471F49486838B9502080F31188BFF34B
:1027A0004F8FBFF36F8FFEE7401E486008BF80F376
:1027B0001188704780B5502080F31188BFF34F8F88
:1027C000BFF36F8FFFF715FC18B117494FF080501A
:1027D0000860002282F3118801BD000010B5EFF3FC
:1027E0000580502110280A4A07D3104B185C147832
:1027F000A04202D200F01EF8FEE790680C4A13686F
:1028000003F4E063984202D200F014F8FEE710BD32
:102810000000002000ED00E071C20F4170C20F41C6
:1028200000E400E034EF00E004ED00E0F0E300E05D
:102830000CED00E081F31188BFF34F8FBFF36F8F72
:10284000704700000748084B0021016081604FF489
:102850007A721968B1FBF2F2521E426007210160E0
:10286000704700BF10E000E018000020EFF3058083
:1028700060B9DFF86811EFF31080002804BFEFF3B0
:102880001180002803D00868022800D17FE0086882
:1028900010B901220A6070474FF0FF307047000006
:1028A00080B5EFF3058058B9DFF8301100F072F809
:1028B00004BFEFF31180002803D00868022800D17C
:1028C00009E00868012805D102220A60FFF7FDFA35
:1028D000002002BD02E06FF0050002BD4FF0FF30A6
:1028E00002BDF8B584B000230393EFF30583002BFA
:1028F0004AD1EFF31083002B04BFEFF31183002BB9
:1029000004D0DFF8D8301C68022C3DD003003BD047
:102910008025182600245AB3136803B11C46936916
:102920001BB11E0004D0392E02D21379DF0701D566
:1029300000202AE0536903B19D08D2F80CC09768C3
:1029400087B1BCF15C0F1FD31269002A18BF002B9E
:102950001AD001920B46029700962A462146FFF7AD
:102960009FF910E0BCF1000F04BF1269002A0BD1DF
:1029700003AB019300960B46AAB22146FFF7BFF9BD
:10298000012801D000200390039805B0F0BD6FF03E
:1029900005007047EFF310800028704710B5EFF383
:1029A000058149B900F011F804BFEFF31181002946
:1029B00005D000F00EF802D16FF0050403E000240A
:1029C00008B1FFF768FA204610BDEFF31081002927
:1029D000704702490A68022A70470000CC4B002069
:1029E000084B036003F15C000860802111607047B0
:1029F000054B036003F15C0008604FF480711160C7
:102A00007047000028450020CC40002010B586B05B
:102A100000F078F9DFF83C43A068D0B100210591BF
:102A2000049103AA04A905A8FFF7E2FF05980499F9
:102A300002900222009201910023039A0FF21C31AE
:102A40000FF27900FFF72CF9E06010B1012006B019
:102A500010BD00F034F9FEE72046BDE8F68185F3AD
:102A60001188BFF34F8FBFF36F8F7047F8B50446DF
:102A700084B01E46002014B900F021F9FEE7DFF80B
:102A8000D472BD68BDB106290091019202940CDA9E
:102A9000FFF722FC0228B86807BF0A9A0023002328
:102AA0000022694600F039FA05E000233246694603
:102AB000284600F0C7FA05B0F0BD0000F8B586B0B2
:102AC000DFF890522968086810B90124002602E056
:102AD000C86806680024FFF72FFA01A800F0B4F8D0
:102AE0000746019800283FD154BBB7422DD3FFF7CA
:102AF00029FA2868C168CC68201DFFF7AAFD94F860
:102B00002800410717D5A16933463A46891920465E
:102B100000F0DDF840B10020009000233246002193
:102B20002046FFF7A3FF18B1216A2046884725E019
:102B300000F0C5F8FEE700F0FE0084F82800F3E797
:102B4000686801684C1EA441E40FA8682246F11B86
:102B500000F000FCFFF7F6F980B97F494FF0805094
:102B60000860FFF77EFF09E0FFF7ECF906E094F854
:102B7000280081073BD42046FFF7C7FCA868002245
:102B800002A900F0AEFA00289CD00298002803D5D4
:102B900005990498039A904702980028EED4049C63
:102BA000606910B1201DFFF754FD01A800F04CF83A
:102BB00002990929E2D8DFE801F02121211A07064C
:102BC00021211A07DAE7D2E794F8282042F001021F
:102BD00084F828200399A16131B1034602460918FF
:102BE000204600F074F8C9E700F069F8FEE794F8B1
:102BF000280000F0FE0084F82800BFE794F82810B1
:102C000041F0010184F8281002460399A0690B469F
:102C10004118204600F05BF80028AFD0216A20461A
:102C2000884794F828004107A8D500200090002389
:102C3000039AA069821800212046FFF717FF002899
:102C40009CD100F03CF8FEE72DE9FC410646FFF779
:102C5000CCF9404D04462869844209D300213160F3
:102C60002C61F9E678603F61391D2868FFF7D8FCD0
:102C700029680868F0B1C868D0F80080C768381DB6
:102C8000FFF7E7FC396A3846884797F8280041077C
:102C9000EED5B86940448045E4D30020009000237D
:102CA000424600213846FFF7E1FE0028E0D100F05F
:102CB00006F8FEE76868696028600121CFE75020C8
:102CC00080F31188BFF34F8FBFF36F8F704738B514
:102CD00000248A42416000611E4D06D38169D21AE8
:102CE0008A4206D2011D686807E09A4203D29942DF
:102CF00001D3012403E0011D2868FFF791FC204661
:102D000032BD00001CB5FFF72BFD124CA068E0B9E6
:102D100004F11400FFF767FC04F12800FFF763FCDF
:102D200004F1140004F12801002220606160009287
:102D300004F13C0304F18C0210210A2000F0A7F8F2
:102D4000A06010B107A100F0F1FABDE81340FFF751
:102D500020BD00000449002004ED00E0546D722005
:102D600053766300546D725100000000EFF3098048
:102D7000BFF36F8F264B1A681EF0100F08BF20EDAF
:102D8000108A20E9F04F106009B44FF0500080F332
:102D90001188BFF34F8FBFF36F8FFFF787F94FF0A5
:102DA000000080F3118809BC19680868B0E8F04F8A
:102DB0001EF0100F08BFB0EC108A80F30988BFF333
:102DC0006F8F7047124B19680868B0E8F04F80F3B6
:102DD0000988BFF36F8F4FF0000080F311887047B0
:102DE0000C480068006880F308884FF0000080F30A
:102DF000148862B661B6BFF34F8FBFF36F8F00DFE9
:102E0000DFF81400016841F47001016070470000B0
:102E1000584A002008ED00E088ED00E070B504009D
:102E20000D4602D100F071F8FEE7FFF799FC206C27
:102E3000E16B226800FB01F3491E48431044134430
:102E4000A3600026A663E060626004F144004FF0D6
:102E5000FF310170417075B92069A0B104F1100013
:102E6000FFF787F978B1DFF8E4144FF0805008607D
:102E700000F0D0F907E004F11000FFF7B4FB04F113
:102E80002400FFF7B0FBFFF784FC012070BD7CB588
:102E90001C46502320B983F3118800F0BBF9FEE7EC
:102EA00024B983F3118800F0B5F9FEE72AB129B9F6
:102EB00083F3118800F0AEF9FEE769B90093009E34
:102EC000502E0ED1069B009D012684F8466000948A
:102ED00000F00CF8204676BD83F3118800F09AF9D3
:102EE000FEE783F3118800F095F9FEE738B5049DFD
:102EF0001C4601B92A462A60E86329642846012154
:102F0000FFF78CFF85F84C4031BD502080F31188CD
:102F1000BFF34F8FBFF36F8F70472DE9F64782B035
:102F200004461E46502714B900F072F9FEE75FEA26
:102F3000010A01D1206C60B9022E02D1E06B012898
:102F40000AD1FFF7C9F950B9039840B100F060F910
:102F5000FEE700F05DF9FEE700F05AF9FEE72746CC
:102F6000002400F03CF92EE0039800284BD014B95F
:102F700000F03FF90124FFF70CFCFEF7DDFFFFF73F
:102F8000EFFB07F1440000F037F904BF00220270A4
:102F900000F037F904BF00224270FFF7FAFB00F09F
:102FA0004DF8002844D1FFF7DBFBB86BF96B884282
:102FB00014BF00250125FFF7ECFB45BB384600F0A8
:102FC00076F9FEF7BFFFFFF7CBFBB86BF96B8842D2
:102FD00001D3022EC8D132465146384600F01FF9BF
:102FE000796A29B107F12400FFF7C3F808B904E0B2
:102FF00018B1C8F8009000F00DF9FFF7CAFB0120E6
:1030000004B0BDE8F087FFF7C4FB0020F8E70399A0
:1030100007F11000FFF776F8384600F048F9FEF7A0
:1030200091FF0028CFD1C8F8009000F0F3F8CAE76C
:10303000384600F03CF9FEF785FFE6E703A968464D
:10304000FFF7CEB82DE9F8430446884615461E46DC
:10305000502714B900F0DCF8FEE7B8F1000F01D1F9
:10306000206C20BB022E02D1E06B012822D1FFF799
:10307000B5FBEFF3118900F02AF801D3022E21D11C
:1030800094F9457032464146204600F0C8F817F1E1
:10309000010F12D1606A98B104F12400FFF769F8BA
:1030A000002818BF002D0BD00120286008E000F098
:1030B000AFF8FEE700F0ACF8FEE77F1C84F845703F
:1030C000012000E0002089F31188BDE8F28387F336
:1030D0001188BFF34F8FBFF36F8FA06BE16B8842F6
:1030E00070472DE9F74306460F460024502526B9C0
:1030F00085F3118800F08EF8FEE70FB9306C48B9FF
:10310000FFF7EAF878B9029868B185F3118800F002
:1031100081F8FEE785F3118800F07CF8FEE700F007
:1031200075F8FEF70FFFFFF71BFBB56B00F057F8C4
:103130002DB90298C8B9FFF72CFB002013E03946DF
:10314000304600F0A0F86D1EB563306940B106F15D
:103150001000FFF70EF818B1C8F8009000F05AF808
:10316000FFF717FB0120BDE8FE8314B900F041F81A
:103170000124FFF70EFBFEF7DFFEFFF7F1FA06F181
:103180004400415711F1010F04BF0022027000F00A
:1031900038F804BF00224270FFF7FBFA02A9FFF7DC
:1031A0004EFF0028304610D100F0B5F80028B6D008
:1031B00000F01AF800F02AF8FEF7C4FE0028B2D199
:1031C000C8F8009000F026F8ADE700F070F8FEF7C0
:1031D000B9FE304600F09FF80028A4D0ADE7DFF834
:1031E0006C814FF080597047029906F12400FEF778
:1031F00089BF6846FEF7EDBF90F9001011F1010F8D
:10320000704790F9011011F1010F704730464EE000
:1032100087F31188BFF34F8FBFF36F8F7047F8B5F7
:1032200006461546B46B326C002742B9306830BB95
:10323000B068FFF760F800210746B1601FE065B98C
:103240007068FEF715F87068316CB26808449042F7
:10325000706014D33068706011E0F068FEF708F811
:10326000306CF16840420144F1603268914202D210
:10327000B1680844F060022D01D104B1641E641CE1
:10328000B4633846F2BD026C002A0B4600D1704789
:1032900010B5C16884681144C160A14224BF0168AF
:1032A000C160C168BDE810401846FDF7E1BFF8B540
:1032B0000546FFF755FA05F1440494F9016007E06B
:1032C00005F12400FEF755FF08B1FEF7BCFF761E9E
:1032D00070B2012802DB686A0028F1D14FF0FF3696
:1032E0006670FFF756FAFFF73BFA94F9007007E0B3
:1032F00005F11000FEF73DFF08B1FEF7A4FF7F1EA9
:1033000078B2012802DB28690028F1D12670BDE8D7
:10331000F140FFF73EBA10B50446FFF721FAA06B63
:10332000441EA441FFF735FAE00F10BD10B500238D
:10333000074C54F833201AB15B1C082BF9D310BD8D
:1033400044F8331004EBC301486010BD04ED00E005
:10335000CC4A0020F8B504460D461646FFF700FAA1
:1033600004F1380797F90C0010F1010F04BF002198
:10337000397397F90D0010F1010F04BF0021797323
:10338000FFF707FA386828B93246294604F12400C5
:10339000FEF7D4FE2046BDE8F24088E738B50400C9
:1033A00001D1012032BD00F021F808B900F022F867
:1033B00000F012F800F023F8FFE7416100F001F897
:1033C00032BD2068C16841F40051C16000206860CE
:1033D00020216970A9707047242068702068C16836
:1033E00021F40051C160204600F0ABB904F138056A
:1033F0006878704700212970204600F037BA2068AD
:10340000016921F4904101612068416921F02A019C
:1034100070472DE9F843054605F138070C467878E2
:1034200020281646984647D1002C14BF002E0120B4
:1034300043D097F9000001283ED0012139700020C7
:10344000786021227A7000F0EFFA8146AE84EE8433
:103450000020387003E02A6814F8011B5160E88CE2
:10346000E0B1E88C411EE9844B46A868CDF80080A5
:10347000B0F5805F0DD100F022F8B8B92088296836
:10348000C0F3080048602869002814BF641CA41C0D
:10349000E5E700F014F80028DDD007E0CDF8008063
:1034A0004B460022402100F00CF808B1032004E054
:1034B00020207870002000E00220BDE8F283002286
:1034C00080212846AEE0416921F040014161606BF6
:1034D000704738B5044625682968EA686B6911F0B9
:1034E0000F0007D188065FD593065DD52046BDE85D
:1034F0003240DDE0D80702D412F4907F54D0C807E0
:1035000005D5D50503D5E06B40F00100E063480721
:1035100005D5DD0703D5E06B40F00200E0638807C6
:1035200005D5DD0703D5E06B40F00400E063080734
:1035300007D5950601D4D80703D5E36B43F00803FC
:10354000E363E06B00286CD0880604D5910644BF85
:10355000204600F0ADF820684069E16B0A0701D40D
:1035600040061BD5204600F08FF8206841694A06C6
:103570000FD5FFF7A8FF60B10FF229110165606B4D
:1035800000F0CFFA00284CD0606B016DBDE83440EC
:1035900008472046BDE8324000F0CEBB204600F090
:1035A000CBFB0020E06331BD08062AD5130628D5E1
:1035B00094F83900212834D1A068B0F5805F206AE2
:1035C0000BD10188C1F30801696020690028206AD5
:1035D0000CBF811C411C216203E0411C2162007868
:1035E0006860E08C401EE08480B2D0B92068C16879
:1035F00021F08001C1602068C16841F04001C160D4
:1036000031BD48060DD551060BD5E86820F04000C5
:10361000E860202184F839102046BDE8324000F0EF
:103620008CBB31BD2DE9F041069C05460E46904607
:103630001F46286801683140B1420CBF01200020BC
:10364000404517D114F1010FF3D024B100F0ECF98B
:10365000C01B8442EDD22868C16821F4D07100F00B
:103660000CF805F1380020214170817000210170B3
:10367000032000E00020BDE8F081C16028684169B6
:1036800049084900416170470168CA6822F4907294
:10369000CA6001684A69520852004A61202180F8D4
:1036A0003A107047806B0021C185C18400F044BB93
:1036B00080B590F83A10222941D18168B1F5805F38
:1036C00012D101690368826A0029596805D1C1F3E2
:1036D00008011180826A911C04E001F0FF01118051
:1036E000826A511C81620FE001690029816A04D15C
:1036F0004A1C826203685A6805E04A1C82620368B9
:103700005A6802F07F020A70C18D491EC18589B2D4
:1037100099B90168CA6822F02002CA600168CA68C3
:1037200022F48072CA6001684A69520852004A61F4
:10373000202180F83A1000F001FB002002BD022099
:1037400002BDD0B50646642732681169F06821F4DD
:103750004051014311611924D3682D48B1680340D9
:1037600030690B4371690343F0690B430343D36032
:103770005169B06921F4407101435161F3692548F1
:103780002549B3F5004F1FD18A4218BF824202D1AA
:1037900000F064FB01E000F059FB0246A4FB0201CB
:1037A0007268D30F5200FEF733F900F037F8FF00CC
:1037B00032376420B7FBF0F0420002F4F87202EBFB
:1037C000011200F007001DE08A4218BF824202D1B8
:1037D00000F044FB01E000F039FB0246A4FB0201CB
:1037E0007268930F9200FEF713F900F017F83F018B
:1037F00032376420B7FBF0F000F0F00202EB011268
:1038000000F00F00316880188860D0BD0000000013
:10381000F369FFFF00140140001001406421B0FB78
:10382000F1F107FB1107704780B57648764900F043
:103830000BF800B116E001BD80B57448744900F082
:1038400003F800B10EE001BD01604FF4E132002346
:103850000C2142608360C360036141618361C36185
:10386000FFF79CBDBDE8014000F0D4BB2DE9F04757
:1038700086B004461422002101A800F0CCFB226887
:10388000614B644D644865499A4205F184064FF4E2
:1038900080784FF480674FF0006949D10022009290
:1038A0004B69DFF87CA143F010034B6100234A69A8
:1038B00002F0100200F08DF84FF4C06200F092F8B0
:1038C0000020C5F800A0C5F80490A860E8602F614A
:1038D0006861A86128626862C5F81C80284600F00B
:1038E000A9F808B100F096FB0AF178006563286634
:1038F00040210020AC63C5F86490A966E8662F6794
:103900006867A867E867C5F88000306005F1600067
:1039100000F090F808B100F07DFB05F16000206335
:10392000746100220521252000F09AFB25204BE040
:10393000374B9A424AD1002200920B69DFF8E4A08B
:1039400043F400330B6100230A6902F4003200F0F3
:1039500040F80C2200F046F80020C6F83CA0C6F85B
:1039600040907064B064F764C6F858803065706544
:10397000F065306605F1C008404600F05BF808B11C
:1039800000F048FB05F590750AF11800C4F8348082
:103990002860402100207467C5F80490A960E860A1
:1039A0002F616861A861E86128626862284600F0BA
:1039B00041F808B100F02EFB2563AC63002205211D
:1039C000262000F04DFB262000F067FB06B0BDE886
:1039D000F0870092009A009302230A6842F00102E5
:1039E0000A607047096801F0010100910099019295
:1039F000029300220392032307220493059201A954
:103A000000F060BB4C4B0020001001408C4B0020AC
:103A1000004400408447002000000240303802404B
:103A2000406402408860024001484068704700BF1F
:103A30000C00002070B50446FFF7F6FF06460CB9EF
:103A4000012070BD04F13405002028700221697046
:103A50002068026852085200026022681068C1079C
:103A60000AD5FFF7E1FF801B0628F6D32020286245
:103A700003216970032070BD1368DFF85402616888
:103A80000340A0680B43E168034320690B4361696D
:103A90000343A0690B43E1690343206A0B43616A56
:103AA0000343042903D1E16A206B01430B431360F4
:103AB00023685A69606AD208042840EAC2020AD11F
:103AC000A66AE16A324331B1A06988B9002E18BFF5
:103AD000022E1FD016D35A61204600F015F9A96AAC
:103AE0003F228A408260002028620121697070BDF7
:103AF000B0F5005F0AD1032EEDD8DFE806F00D0B1C
:103B00000D03E8E7B1F1C07FE5D105E0022E03D94E
:103B1000F61EE0D1C801DED540212962012068707F
:103B200070BD90F93510022903D080224265012032
:103B30007047052180F8351000680268520852006D
:103B40000260002070472DE9FC41044604F1340670
:103B50000020604900904FF41650776A0A683D686B
:103B6000B2FBF0F8B06A082100F0B7F80ED0206878
:103B7000026853070AD5026822F004020260B06AA4
:103B80008140B960316A41F001013162B06A25FAC1
:103B900000F1CA070BD521684A69110607D5012231
:103BA00002FA00F0B860306A40F00200306204218E
:103BB00000F092F808D021680A68930704D5B8602D
:103BC000306A40F004003062102100F085F81BD00C
:103BD00021680A68130717D5B860206801684A038E
:103BE00007D5006801030BD5716969B12046884784
:103BF0000AE00168CA0503D4016821F008010160E8
:103C0000F16809B120468847B06A202100F065F8C4
:103C100040D021680A68D3063CD5B860206896F980
:103C2000011005291CD1026822F01602026000F082
:103C300058F8F068002804BF7069002801D000F02F
:103C40005CF83F22B06A8240BA60002131700122E4
:103C50007270F169002939D02046BDE8FC4108475F
:103C600001684A0307D5006801030FD4316989B19F
:103C7000204688470EE00168CA0507D4016821F094
:103C8000100101600020307001227270B16809B12A
:103C900020468847306AC8B1306AC10710D5052070
:103CA000707000F024F80098401C8045009003D309
:103CB00020680168CA07F6D40020307001217170B5
:103CC000B16919B12046BDE8FC410847BDE8F38160
:103CD0003F8010F018000020B06A01FA00F00542A1
:103CE00070472068416921F0800141617047206878
:103CF000016849084900016070472068016821F0A7
:103D0000080101607047000030B5016808A401F0A7
:103D1000FF02103A1823B2FBF3F2890A8902A55C6C
:103D2000C565042A28BF091D8165084630BD00000D
:103D30000006101600061016704770477047000006
:103D40002DE9F04104000F4654D0574E306800F082
:103D50000F00B84202D200F073F84BD12068534DE7
:103D6000810712D5400703D5A96841F4E051A96045
:103D70002078010703D5A86840F46040A860A968CE
:103D8000A06821F0F0010143A9602178C80729D576
:103D90006068012802D129688A0305E0022818BF5B
:103DA000032803D129688A0103D423E029688A07FC
:103DB00020D5A968890840EA8100A860FFF734FE91
:103DC0008046A868616800F00C00B0EB810F09D054
:103DD000FFF72AFEA0EB080041F289318842F0D3B8
:103DE00003202BE0306800F00F00874204D200F07F
:103DF00027F801D0012021E02078410705D5AA68E5
:103E0000E06822F4E0520243AA602178080706D550
:103E1000A968206921F4604141EAC001A96000F06D
:103E200051F8AA682249234BC2F30312895CC840A7
:103E300018602148006800F033FA0020BDE8F081E6
:103E40003770316801F00F01B942704719481B4AB9
:103E5000006813681A49C3F3822206E01548174A1E
:103E6000006813681649C3F34232895CC840704742
:103E700010B50F220260114A136803F00303436078
:103E8000146804F0F0048460136803F4E053C36022
:103E90001268D20802F4E05202610348026802F09C
:103EA0000F020A6010BD0000003C024000380240D2
:103EB000004B0008180000201400002008380240C1
:103EC000104C000830B5144C606800F00C00042859
:103ED00002D0082802D01DE0104830BD22682068BA
:103EE0000023410202F03F0204D525680B49C5F3C7
:103EF000881003E020680A49C0F38810A1FB000184
:103F0000FDF786FD2168C1F30141491C4900B0FB62
:103F1000F1F030BD024830BD0438024000127A0092
:103F20000024F40001B54FF6FF73012269463548BD
:103F3000FFF76FFA012002BD80B500F0EFF900F045
:103F40000FF800F005FA00F01FFAFFF76DFCFFF71D
:103F500073FCFEF78BFC00F053FAFEF7A1FCFEE7C2
:103F600080B592B03022002106A800F054F8142247
:103F7000002101A800F04FF8002000904FF480339A
:103F80002148016841F0805101600021006800F083
:103F90008050009000981D480091026842F48042D1
:103FA00002600122006800F48040009006A8009999
:103FB000069202214FF480020C910D920421A82256
:103FC0000E910F920221042207931091119200F09A
:103FD00035FA02210291002203920F204FF4A051E2
:103FE000019004914FF480520592052101A8FFF73A
:103FF000A7FE13B000BD00680549884208BF00F065
:10400000A5BB70474C4B0020403802400070004078
:1040100000000140704710B5044610460A460146AC
:10402000204600F09DFB204610BD00000901020063
:1040300002D41F48815470471E4B02F00F021A44ED
:1040400002F8041C70471C4B19684FF6FF0200026F
:10405000114000F4E06008431849084318607047B5
:1040600070B5154B1C68C4F302230124C3F1070586
:10407000052D2EBF0F2504FA05F56D1E1E1D072EFA
:1040800034BF0023DB1E2940994004FA03F3BDE846
:1040900070405B1E1A401143C8E7010007D401229B
:1040A00000F01F01064B8A40400943F8202070476A
:1040B00000E400E018ED00E00CED00E00000FA057F
:1040C00000E100E02DE9F84F0D46002669496A4AF3
:1040D0000F23044601202F68B04000EA07088045FE
:1040E00040F0C1804FEA460C032707FA0CF76FEA4D
:1040F000070E6F68012F18BF022F03D0112F18BFB2
:10410000122F12D1A768D5F80C900EEA070709FA0A
:104110000CF949EA0707A760676827EA00006F689B
:10412000C7F30017B74038436060E068AF680EEA35
:10413000000007FA0CF73843E060B0006F68022F08
:1041400018BF122F12D1F70804EB870700F01C09E3
:10415000D7F820A003FA09FB2AEA0B0AD5F810B019
:104160000BFA09F949EA0A09C7F8209027680EEA0C
:10417000070E2F7907F0030707FA0CF747EA0E0737
:1041800027606F68FF006ED5002700974FEA960CF6
:10419000176847F48047176000F00C00176807F4B1
:1041A0008047009703FA00FE009F344F57F82C70A9
:1041B00027EA0E0E324FBC4208BF002722D0314FF3
:1041C000BC4208BF01271DD02F4FBC4208BF0227A9
:1041D00018D02E4FBC4208BF032713D02C4FBC422F
:1041E00008BF04270ED02B4FBC4208BF052709D0BB
:1041F000294FBC4208BF062704D0284FBC420CBF41
:104200000727082707FA00F01C4F40EA0E0047F87E
:104210002C006FEA08000F6800EA070C6F68FF03C4
:1042200048BF48EA0C0CC1F800C04F6800EA070C10
:104230006F68BF0348BF48EA0C0CC1F804C08F6820
:1042400000EA070C6F68FF0248BF48EA0C0CC1F88F
:1042500008C0CF6800EA070C6868800248BF48EAD7
:104260000C0CC1F80CC0761C0F2E7FF633AFBDE8E6
:10427000F18F0000003C0140443802400838014002
:10428000000002400004024000080240000C02400E
:10429000001002400014024000180240001C0240BE
:1042A00018B5014687B000221920FFF7D9FE192062
:1042B000FFF7F3FE00200090144C1548016841F010
:1042C0000101016001A9006800F001000090009860
:1042D00002A8FFF7CDFDFFF7C1FD0E49216040F2B6
:1042E000E73240000C49E260B0FBF1F0401E606034
:1042F00000222261A260204600F03CFA18B9204654
:1043000000F045FA00E0012008B010BD0C4B002081
:10431000443802400000014040420F0080B50B4885
:10432000016841F400710160026842F48062026039
:10433000016841F4807101600320FFF784FE0020D2
:10434000FFF7AEFF00F04EFB002002BD003C024034
:1043500081B0002000900B48016841F080010160AD
:10436000026802F080020092002200990092036825
:1043700043F001030360006800F001000090009822
:1043800001B070473038024080B5002000901B48D3
:10439000016841F400110160026802F40012009209
:1043A0000022009900920521036843F48003036012
:1043B000006800F48000009000981020FFF750FE85
:1043C0001020FFF76AFE002205211120FFF748FEAA
:1043D0001120FFF762FE002205213A20FFF740FE80
:1043E0003A20FFF75AFE002205214620FFF738FE4B
:1043F000BDE802404620FFF750BE00BF3038024003
:1044000080B5044A0FF215000021FEF76AFA02494E
:10441000086001BD384B0008D04B00202DE910404A
:1044200004A4204600F0FEFA4FF47A70FEF7B6FAC4
:10443000F7E7000068656C6C6F0000002DE9F84339
:10444000040016D02078DFF8F462C10713D5B068F5
:1044500000F00C00042807D0B06800F00C00082819
:104460003DD1706841023AD53068810303D5606858
:10447000002800F05E812078B14F810719D5B0681F
:1044800010F00C0F07D0B06800F00C0008285BD1CA
:104490007068410258D43068810703D5E06801286C
:1044A00040F047813168206921F0F80141EAC001FC
:1044B00031602178080779D56069A249002868D061
:1044C00001220A60FFF7B0FA0546706F81076DD4CC
:1044D000FFF7AAFA401B0228F7D903202CE16068F5
:1044E000B0F5803F04D1306840F48030306011E096
:1044F000B0F5A02F306806D140F4802030603168DC
:1045000041F4803105E020F480303060316821F4DE
:1045100080213160606858B1FFF786FA054630683F
:104520008103A8D4FFF780FA401B6528F7D3D4E7AE
:10453000FFF77AFA0546306881039CD5FFF774FAD5
:10454000401B6528F7D3C8E7E068A8B101213960AE
:10455000FFF76AFA05463068810705D4FFF764FA69
:10456000401B0228F7D9B8E73068216920F0F8002D
:1045700040EAC10030609CE73860FFF755FA054615
:104580003168880795D5FFF74FFA401B0228F7D905
:10459000A3E70860FFF748FA0546706F810705D565
:1045A000FFF742FA401B0228F7D996E72078410727
:1045B0005FD5306C0025C1000AD400950125316C0F
:1045C00041F080513164306C00F0805000900098D0
:1045D000DFF87481D8F80000C10513D4D8F80000C2
:1045E00040F48070C8F80000FFF71EFA8146D8F842
:1045F0000000C10506D4FFF717FAA0EB0900022856
:10460000F5D96AE7A068012805D00528306F06D1E2
:1046100040F004003067306F40F0010005E04008D2
:1046200040003067306F20F00400306741F2893875
:10463000A06860B1FFF7F8F98146306F810713D4A5
:10464000FFF7F2F9A0EB09004045F6D345E7FFF785
:10465000EBF98146306F810706D5FFF7E5F9A0EB4E
:1046600009004045F6D338E71DB1306C20F080508A
:104670003064A06900285ED0B16801F00C010829FF
:104680003AD002282AD100203866FFF7CDF9054636
:104690003068810105D5FFF7C7F9401B0228F7D91B
:1046A0001BE7E069216A626A0843A16A490840EA97
:1046B0008210491E40EA0140E16A40EA01607060F0
:1046C00001203866FFF7B0F904463068810132D422
:1046D000FFF7AAF9001B0228F7D9FEE6002038668A
:1046E000FFF7A2F904463068810124D5FFF79CF951
:1046F000001B0228F7D9F0E601281AD07068E26999
:1047000000F48001914202BF00F03F01226A914211
:104710000FD147F6C071626A0140914202BF00F4B6
:104720004031A26A914202BF00F07060E16A8842A3
:1047300001D0012000E00020BDE8F28300380240F3
:1047400000004742800E4742007000400348416825
:1047500090F900208A184260704700BF0C000020CA
:104760004018491C1CBFB1F1010100F8012DF9D11D
:104770007047000038B5040001D1012032BD00F0BF
:1047800024F818B900F01DF800F02AF90FE00068CD
:10479000C16841F00101C160816801F0070106298B
:1047A00003D0016841F00101016000207047022040
:1047B0006870211D206800F0B1F8012068700020A9
:1047C00032BD002129702046704704F13C0595F95F
:1047D0000100704710B50446206801698A0715D5A5
:1047E000C1688A0712D56FF00201016101222277A8
:1047F000806910F0030F204602D000F027F903E093
:1048000000F025F900F087F8002020772068016982
:104810004A0715D5C1684A0712D56FF00401016136
:1048200002222277806910F4407F204602D000F0F7
:104830000DF903E000F00BF900F06DF8002020778F
:10484000206801690A0715D5C1680A0712D56FF0FB
:104850000801016104222277C06910F0030F20468D
:1048600002D000F0F3F803E000F0F1F800F053F8A4
:104870000020207720680169CA0615D5C168CA06DC
:1048800012D56FF01001016108222277C06910F47F
:10489000407F204602D000F0D9F803E000F0D7F8BE
:1048A00000F039F80020207720680169CA0708D590
:1048B000C168CA0705D56FF0010101612046FFF705
:1048C0009AFB206801690A0608D5C1680A0605D561
:1048D0006FF080010161204600F0BAF8206801699C
:1048E0004A0608D5C1684A0605D56FF04001016146
:1048F000204600F0AEF8206801698A060AD5C16832
:104900008A0607D56FF0200101612046BDE81040FE
:1049100000F0A0B810BD204600F09DB8F0B5254CC1
:104920000568254B254E264FDFF898C0A04218BFDA
:10493000B0F1804F07D0604518BFB84203D0B042F5
:1049400018BF98420DD14A6825F070051543A04262
:1049500018BFB0F1804F17D060451CBFB842B042BD
:1049600012D098421CBF184A90420DD0174EB04248
:104970001CBF174A904207D0164EB0421FBF164ABE
:104980009042164EB04203D1CA6825F440751543D3
:104990004A6925F0800515430560A0428D68C5620F
:1049A0000A68826212BF984209690163012242616A
:1049B000F0BD00000000014000040140000C004078
:1049C0000008004000040040004001400044014055
:1049D0000048014000180040001C0040002000403A
:1049E0007047000082B00020009000220C4841680F
:1049F00041F480414160416801F480410091009997
:104A000000920F21036843F080530360006800F0B8
:104A10008050009000986FF0010002B0FFF720BBBB
:104A2000403802400EB4C0B5024603A800210190F0
:104A3000009101AB0121044878440C30FBF7A4FB42
:104A400006BC5DF810FB00BF8B010000704770478B
:104A500070477047704770477047FEE7FEE7FEE714
:104A6000FEE770470A48FFF76EB80A48FFF76BB8D1
:104A70000948FFF7AFBE0948FEF72BBD0848FEF70F
:104A800028BD0848FFF75FB80748FFF75CB800008B
:104A900044480020A44800200C4B00204C4B002030
:104AA0008C4B002084470020E447002030B501688B
:104AB00084684218416802EB5103C90703D54C448E
:104AC00001E0491C05D19A420AD012F9011B12F8E3
:104AD000015B002904F8015BF3D4491EF7D5F2E726
:104AE0000C3030BD0448054A016841F47001016092
:104AF0004FF000601060704788ED00E008ED00E0C6
:104B0000000000000000000001020304060708097D
:104B100010B5074979441831064C7C44163404E03A
:104B20000A68081D114488470146A142F8D110BD0A
:104B3000500000006C000000F84B0008000000006E
:104B40000000000000000000000000000002000063
:104B50001800000000000000000000004EF6885120
:104B6000CEF20001086840F470000860BFF34F8F78
:104B7000BFF36F8F4FF00070E1EE100A7047000036
:104B8000CFC5FFFF844B0000540000200000000050
:104B90001DFFFFFFB40100008200000000000020A4
:104BA00000F00DF8002801D0FFF7B2FFAFF300804E
:104BB0000020AFF30080FFF7BFF900F002F80120FA
:104BC000704700F001B8000007463846FDF75EF870
:104BD000FBE738B504460D462846FFF7A3F9A8427F
:104BE00018BF0024204632BD0148804701480047D5
:104BF000E54A0008054C000864656661756C7454EC
:104C000061736B00AFF30080FFF7A8FFFFF7C8FFE9
:104C10000000000001020304686A6C747A4C000012
:104C2000FFF7FEBFFFF7FEBFFFF7FEBFFFF7FEBFB8
:104C3000FFF7FEBFFFF7FEBFFFF7FEBFFFF7FEBFA8
:104C4000FFF7FEBFFFF7FEBFFFF7FEBFFFF7FEBF98
:104C5000FFF7FEBFFFF7FEBFFFF7FEBFFFF7FEBF88
:104C6000FFF7FEBFFFF7FEBFFFF7FEBFFFF7FEBF78
:104C7000FFF7FEBFFFF7FEBFFFF7FEBFFFF7FEBF68
:104C8000FFF7FEBFFFF7FEBFFFF7FEBFFFF7FEBF58
:104C9000FFF7FEBFFFF7FEBFFFF7FEBFFFF7FEBF48
:104CA000FFF7FEBFFFF7FEBFFFF7FEBFFFF7FEBF38
:104CB000FFF7FEBFFFF7FEBFFFF7FEBFFFF7FEBF28
:104CC000FFF7FEBFFFF7FEBFFFF7FEBFFFF7FEBF18
:104CD000FFF7FEBFFFF7FEBFFFF7FEBFFFF7FEBF08
:104CE000FFF7FEBFFFF7FEBFFFF7FEBFFFF7FEBFF8
:104CF000FFF7FEBFFFF7FEBFFFF7FEBFFFF7FEBFE8
:104D0000FFF7FEBFFFF7FEBFFFF7FEBFFFF7FEBFD7
:104D1000FFF7FEBFFFF7FEBFFFF7FEBFFFF7FEBFC7
:104D2000FFF7FEBFFFF7FEBFFFF7FEBFFFF7FEBFB7
:104D3000FFF7FEBFFFF7FEBFFFF7FEBFFFF7FEBFA7
:104D4000FFF7FEBFFFF7FEBFFC00FCAAFC0000015E
:104D5000F9000010FC001E24F400161200081612C0
:104D60000008161200081612000816120008161283
:104D7000000816120008F8FF0B9E1100081612001A
:094D80000816120008FAFFFE00FB
:0400000508004C059E
:00000001FF
