:020000040800F2
:10000000B082002061020008DF2B0008552800089C
:10001000DD2B0008BD10000895310008000000002D
:10002000000000000000000000000000A101000826
:10003000B111000800000000FD010008352C000887
:100040007B0200087B0200087B0200087B0200089C
:100050007B0200087B0200087B0200087B0200088C
:100060007B0200087B0200087B0200087B0200087C
:10007000C51000087B020008D11000087B020008B0
:10008000DD100008E91000087B0200087B02000870
:100090007B0200087B0200087B0200087B0200084C
:1000A0007B020008012D00087B0200087B0200088B
:1000B0007B0200087B0200087B0200087B0200082C
:1000C0007B0200087B0200087B0200087B0200081C
:1000D0007B0200084D310008653100087D310008C1
:1000E0007B0200087B0200087B0200087B020008FC
:1000F0007B0200087B0200087B0200087B020008EC
:100100007B0200087B0200087B0200087B020008DB
:100110007B0200087B0200080D2D00087B0200080E
:100120007B0200087B020008F51000087B02000833
:100130007B0200087B0200087B0200087B020008AB
:100140007B0200087B0200087B0200087B0200089B
:100150007B0200087B020008011100087B020008F6
:100160007B0200087B0200087B0200087B0200087B
:100170007B0200087B0200087B02000800000000F0
:100180007B0200087B020008DFF810D000F084FD3D
:1001900000F06AFA00480047F9600008B0820020C9
:1001A0002C4B19680868B0E8F04F80F30988BFF35A
:1001B0006F8F4FF0000080F311887047000000003F
:1001C00008480068006880F308884FF0000080F35A
:1001D000148862B661B6BFF34F8FBFF36F8F00DF35
:1001E00000BF00BF08ED00E0DFF80C00016841F43B
:1001F00070010160704700BF88ED00E0EFF30980F7
:10020000BFF36F8F134B1A681EF0100F08BF20ED5D
:10021000108A20E9F04F106009B44FF0500080F3CD
:100220001188BFF34F8FBFF36F8F07F081FF4FF03F
:10023000000080F3118809BC19680868B0E8F04F25
:100240001EF0100F08BFB0EC108A80F30988BFF3CE
:100250006F8F70472C000020EFF30580704700007F
:100260000648804706480047FEE7FEE7FEE7FEE750
:10027000FEE7FEE7FEE7FEE7FEE7FEE7E52C000807
:10028000890100082DE9F05F0546002092469B4653
:1002900088460646814640241BE02846414647469C
:1002A000224600F0CEFB53465A46C01A914110D365
:1002B00011461846224600F0B5FB2D1A67EB0108DF
:1002C0004F4622460120002100F0ACFB17EB00094D
:1002D0004E41201EA4F10104DFDC484631462A4687
:1002E0004346BDE8F09F40EA01039B0703D009E0C5
:1002F00008C9121F08C0042AFAD203E011F8013B12
:1003000000F8013B521EF9D27047D2B201E000F86A
:10031000012B491EFBD270470022F6E710B51346A9
:100320000A4604461946FFF7F0FF204610BD30B5D7
:1003300005462A460B4612F8010B13F8014B08B18B
:10034000A042F8D01CB1002802D06D1CF1E728466D
:1003500030BDCAB2401E10F8011F8A4202D00029E7
:10036000F9D100207047421C10F8011B0029FBD175
:10037000801A704710B5002200E0521C835C8C5C30
:10038000A34201D1002BF8D1D8B2E1B2401A10BD7E
:10039000034611F8012B00F8012B002AF9D1184669
:1003A0007047000070B50F4D00B92868002412E0B6
:1003B0000A4602E09E4203D0521C1378002BF9D16A
:1003C000DAB2224305D02BB124B1002100F8011B81
:1003D00004E00446401C0678002EE9D1286020463F
:1003E00070BD00000C0100200FB400B58DB010A945
:1003F00009900B9000914FF0FF300A9000200C9074
:1004000005480690054807906A4609A80F9900F02C
:100410004FFB0DB05DF814FBCD0A0008EB0A000895
:100420002DE9FF5F1D464FF0FF3BD5E901469146A0
:100430005F464FF00008A9697F1C01988847296A28
:10044000824688470028F6D1BAF1FF3F0CD024F449
:10045000C064002E19DD600614D5BAF12B0F09D047
:10046000BAF12D0F0ED103E0584604B0BDE8F09F5D
:1004700044F48064A9697F1C01988847761E8246EF
:10048000002E02DDBAF1300F03D0B9F1000F26D0F3
:1004900032E0A969761E44F400747F1C01988847F5
:1004A0008246002E05DDBAF1780F06D0BAF1580F5A
:1004B00003D0B9F1000F10D01EE0B9F1000F02D047
:1004C000B9F1100F18D1A969761E24F400747F1CAD
:1004D000019888478246102002E0082000E00A20A8
:1004E000814609E008FB0908A969761E44F40074F6
:1004F0007F1C019888478246002E05DD49465046FC
:1005000000F0C1FA0028EDDAE96901988847A005F2
:1005100002D46FF00100A8E7E00725D1600613D5EB
:10052000600502D5C8F1000000E0404629680A1DB8
:100530002A600968220501D5087015E0220701D557
:10054000088011E008600FE02868011D296000683C
:10055000210502D580F8008006E0210702D5A0F829
:10056000008001E0C0F8008038467EE72DE9FF5F9B
:10057000D2E901A74FF00008916999461446DDF8C9
:1005800038B0464601988847054659EA0B0005D021
:1005900009E0A169761C019888470546216A28462A
:1005A00088470028F5D1681C03D05FEACA7005D0DF
:1005B00015E04FF0FF3004B0BDE8F09F2068011D4A
:1005C0002160D0F800800AE05FEACA7001D108F823
:1005D000015BA169761C7F1E019888470546002FA4
:1005E0001ADD681C18D0B9F1000F0DD0E81705EB23
:1005F000D060421120F01F0059F822102A1A012061
:1006000090400142E0D107E0BBF1000FDCD1216A4C
:10061000284688470028D7D0E16901988847BBF170
:10062000000F07D1002E05DD5FEACA7002D100215C
:1006300088F80010A068B84203DDBBF1000F03D0BA
:1006400017B16FF00100B6E73046B4E770B5064663
:1006500004F0ACF9046805460A220021304600F097
:1006600055FA2C6070BD000070B5054C054D03E0D7
:10067000206820448047241DAC42F9D170BD0000A1
:100680008C9C0008909C00082DE9FE4F804681EA72
:100690000300C00F0C46009021F0004123F00045FC
:1006A000B8EB0200A94105D24046214690461C46BF
:1006B0000B46024623F00040104347D0270DC7F3F6
:1006C0000A00C3F30A510290401A019040286BDAE5
:1006D000C3F3130040F4801B0098924620B100231E
:1006E000D2EB030A63EB0B0B01985946C0F14002B1
:1006F000504600F097F906460D4650465946019A75
:1007000000F0AFF910EB08006141002487EA1152B4
:1007100084EAE7731A4340D0009A62B3019A012A2F
:100720004FEA075215DC001B61EB02014FF000425B
:1007300002EA0752CDE90042001C41F58011324621
:100740002B4600F02AFA03B0BDE8F08F4046214660
:10075000F9E7001B61EB0201001C41F58013001852
:100760005B412018A2F5001747EB030140EAD57062
:10077000B6196D4111E06D084FEA360645EAC075BD
:100780004FEA0752001B61EB0201001C41F580118A
:1007900049084FEA30000019514132462B4603B058
:1007A000BDE8F04F00F0EAB90098012240000023B4
:1007B000D0EB020263EBE073009821464FEAE0744D
:1007C000B8EB000061EB0401E9E783F000435BE76D
:1007D00081F0004158E72DE9FE4F81EA030404F05F
:1007E000004421F0004100944FF0000B23F000433F
:1007F00050EA01045ED052EA03045BD0C3F30A540A
:10080000C1F30A552C44A4F2F3340194A0FB025422
:10081000C1F3130141F48011C3F3130343F48013B4
:1008200001FB024400FB034E840A970A44EA815408
:1008300047EA8357A4FB076802958D0A05FB0785E5
:100840004FEA932C04FB0C542705029D4FEA0658EF
:1008500047EA1637B5EB08056EEB070C870E920ECC
:1008600047EA811742EA8312A7FB0201B6EB0B01AC
:1008700064EB00042B0D43EA0C335E1844EB1C5070
:10088000DA465146E7FB0201C5F313044FEA0B3386
:1008900043EA14534FEA0432019C43EA0603A4F1ED
:1008A0000C040294009CCDE900B400F076F903B08A
:1008B000BDE8F08F00200146F9E72DE9F04D81EA0F
:1008C000030404F0004B21F0004514464FF0000AE9
:1008D00023F0004150EA050220D054EA01021DD065
:1008E000C5F30A570246C5F31303C1F31300C1F35E
:1008F0000A5640F4801543F48013A7EB0608101B3A
:10090000D64608F2FD3873EB050002D308F1010862
:1009100001E092185B41B8F1000F03DA00200146B4
:10092000BDE8F08D00204FF48011064684460EE0AD
:10093000171B73EB050705D3121B63EB0503064377
:100940004CEA010C49084FEA300092185B4150EA2A
:100950000107EDD152EA030012D082EA040083EAD3
:100960000501084305D0101BAB4106D2012200232C
:1009700006E000224FF0004302E06FF00102531046
:100980001AEB06004CEB085110EB0A0041EB0B018F
:10099000BDE8F04D00F0F2B80EB5C10F80EAE0708E
:1009A0000844CA07002140F233438DE80E000A468E
:1009B0000B4600F0F2F803B000BD70B5C1F30A5267
:1009C00001F000450024C1F3130140F2FF3341F46C
:1009D00080119A4201DA002070BD40F233439A42FE
:1009E000A2F2334203DC524200F02BF800E09040C8
:1009F0002C43F1D0404270BD30B50B46014600207B
:100A00002022012409E021FA02F59D4205D303FAD0
:100A100002F5491B04FA02F52844151EA2F1010251
:100A2000F1DC30BD202A04DB203A00FA02F100207C
:100A300070479140C2F1200320FA03F3194390401C
:100A40007047202A04DB203A21FA02F00021704787
:100A500021FA02F3D040C2F1200291400843194626
:100A60007047202A06DBCB17203A41FA02F043EA0E
:100A7000E07306E041FA02F3D040C2F12002914057
:100A80000843194670473A2800D2303820F0200237
:100A9000412A01D3A2F13700884201D34FF0FF3041
:100AA00070470000026811441378016018467047CF
:100AB000D16004495161044911620021116111465C
:100AC00000F00AB9A50A0008C50C0008426842B146
:100AD000016811F8013B23B1521EC0E9001218460B
:100AE00070470121C160881E704742685AB1C368CF
:100AF000016843B983688B4205D0491E521CC0E986
:100B00000012002070474FF0FF3070472DE9F0478A
:100B100091460F4680460446002614F8015B2DB12D
:100B200000F0CCF80068405DC007F6D12B2D02D054
:100B30002D2D18D0641E4A463946204600F062FA30
:100B400027B13968A14201D1C7F8008071054FF083
:100B500002040BD54042002803DD03F027FF0460A8
:100B6000A007BDE8F08746F48066E4E70028F8DADD
:100B700003F01CFF04606FF00040F2E710B5141E94
:100B800073F1000408DA401C41F1000192185B4146
:100B90001A4301D120F0010010BD2DE9F04D92461D
:100BA0009B4611B1B1FA81F202E0B0FA80F2203234
:100BB0009046FFF737FF04460F4640EA0A0041EA35
:100BC0000B0153465A46084313D0114653EA01001D
:100BD00019D0C8F140025046FFF733FF05460E46D4
:100BE000504659464246FFF71DFF084305D00120F5
:100BF00004E020463946BDE8F08D0020054346EA72
:100C0000E0762C4337430A986305E40AA0EB08001A
:100C10000022FD0A44EA47540A3002D5002001466A
:100C2000E9E7010510196941DDE908450019694145
:100C3000BDE8F04DA2E7C1F30A52C1F3130140F23F
:100C4000FF3341F480119A4202DA002001467047D6
:100C500040F233439A42A2F2334202DC5242FFF79F
:100C6000F0BEFFF7DFBE000030B5041E71F10004D6
:100C700004DB4FF00044404264EB0101141E73F1A9
:100C8000000405DB1C464FF00043524263EB0403B3
:100C9000994208BF904230BD064C074D06E0E0681F
:100CA00040F0010394E8070098471034AC42F6D3B3
:100CB000FFF76EFA3C9C00085C9C000800487047F7
:100CC0004C97000810B50446FFF7F8FF0068005D78
:100CD00000F0010010BD00002DE9F34F8BB04FF084
:100CE000000801F10C000C464FF0010B46460DF1D7
:100CF000080A01906269012101989047051E2DD0D4
:100D0000252D2CD0216A8847C0B162690121019844
:100D10009047216A88470028F7D1411E62690198EF
:100D2000904700E0761CA1690B988847216A8847A4
:100D30000028F7D1E1690B988847DBE7A1690B9898
:100D400088470746A84201D1761CD3E7E1690B9892
:100D500088477F1C02D1B8F1000F6FD046E1002711
:100D600062693D463946019890472A2804D1626954
:100D70000121019890470125DFF8849262690121E1
:100D800001989047A0F130010A290AD24F45E5DCCD
:100D900007EB870100EB4107303FDFD445F010053A
:100DA000ECE7E90601D46FF000476C280AD04C2824
:100DB00014D0682815D06A280DD074281CD07A2841
:100DC0001AD01DE062690121019890476C2802D079
:100DD00045F0040514E045F002050DE045F020055E
:100DE0000AE06269012101989047682802D045F025
:100DF000080505E045F40065626901210198904706
:100E0000C4E9015765283DD019DC58287AD00CDC9C
:100E1000452837D004DC252826D0412831D131E0BF
:100E200046282FD047282CD12CE05B2877D061288A
:100E300028D063287CD0642823D15AE0D0E06F28E2
:100E400048D008DC66281DD067281BD0692821D02F
:100E50006E2816D127E0702845D0732868D07528F1
:100E600047D078280DD14DE0A1690B9888470546F9
:100E700025283FF469AFE1690B9888476D1C3FF462
:100E80006AAFB3E023466A466FF001000B99AFF3F7
:100E900000809EE045F040006060A80723464FF0C8
:100EA000000236D43EE0E8077FF447AF2068011D1A
:100EB00021600068290501D506701BE7290701D5C7
:100EC000068017E7A90703D5F117C0E9006111E70C
:100ED00006600FE745F040006060A80723464FF02A
:100EE000080216D41EE040F60E0125EA01006060FB
:100EF00016E045F040006060A80723464FF00A0264
:100F000007D40FE045F040006060A80708D52346ED
:100F100010226FF001000B99AFF3008059E007E059
:100F2000234610226FF001000B99FFF779FA50E089
:100F30004FF000094F464B46632802D05B2806D08D
:100F400040E0E80601D40120A06001273AE0626990
:100F50000121019890475E2805D14FF0010962698F
:100F6000494601989047216939B900210A465346FC
:100F700043F82120491C0829FADBB0B3216969B97B
:100F8000C11700EBD16253110AEB830122F01F025B
:100F9000821A01200B68904003430B6062690121B3
:100FA000019890475D28E8D1B9F1000F09D00020E1
:100FB000514651F82020D24341F82020401C0828F7
:100FC000F7DB02AB224600976FF001000B99FFF7A9
:100FD000CDFA00280CDA401C08D1BBF1000F05D077
:100FE0004FF0FF300DB0BDE8F08FFFE74046F9E766
:100FF000E90701D108F1010806444FF0000B79E63A
:10100000CCCCCC0C2DE9F05F824600780027154649
:101010008B460AF10104B946302801D09DB113E096
:1010200014F8010B0127782803D0582801D045B1C6
:101030000AE00DB1102D07D10027102514F8010B7F
:1010400002E0082500E00A250026B0460EE005FB78
:10105000080005FB06F1012701EB10461FFA80F896
:10106000B6F5803F00D3B94614F8010B2946FFF7C7
:101070000AFD0028EBDABBF1000F05D00FB1641EAA
:1010800000E05446CBF80040B9F1000F06D003F061
:101090008DFC02210160C81EBDE8F09F48EA0640B1
:1010A000FAE70EB540F2334102910021CDE900117B
:1010B0000A460B46FFF771FD03B000BDFEE770471F
:1010C00070470000014800F0CFB800002004002065
:1010D000014800F0C9B8000080040020014800F079
:1010E000C3B8000060030020014800F0BDB8000054
:1010F000C0030020014800F0B7B80000A0020020A3
:10110000014800F0B1B80000000300200168182376
:10111000CAB2103AB2FBF3F2054B6FF30901032A8E
:101120009B5CC36500D9091D8165084670470000B6
:101130009094000810B5014600208B698A6A4FF030
:10114000C07453B1B3F5005F15D072B1012A0CD051
:10115000022A0AD0032A09D104E01AB1012A06D0D2
:10116000022A03D1C96AC90100D5012010BDC96A8C
:10117000A142FAD010BD002AF7D0012AF2D0022AEB
:10118000F3D0032AF3D010BD30B50468256825F4E8
:1011900080252560046863608368402B036803D062
:1011A00099600068C26030BD9A600068C16030BD5F
:1011B000704770472DE9F0410446876D00F0BAFA98
:1011C000064694F835000025022806D08020606588
:1011D00084F834500120BDE8F0812068016821F0D6
:1011E000160101602068416921F080014161206C95
:1011F00008B9A06C20B12068016821F008010160E5
:101200002068016821F0010101600BE000F092FA12
:10121000801B052806D92020606504F8345F032070
:101220006070D8E720680068C007EFD194F85C10C0
:101230003F208840B86004F8345F012060700020CF
:10124000C9E790F83510022903D0802141650120BB
:101250007047052180F835100068016821F0010110
:1012600001600020704700002DE9F84304464FF06C
:101270000009CDF8009063484FF41651A56D006841
:10128000B0FBF1F72E6894F85C10082000FA01F129
:1012900031420FD021680A6852070BD50A6822F044
:1012A00004020A6094F85C108840A860606D40F009
:1012B0000100606594F85C104FF0010808FA01F035
:1012C000304208D021684969090604D5A860606DDC
:1012D00040F00200606594F85C10042088403042C1
:1012E00008D021680968890704D5A860606D40F0BE
:1012F0000400606594F85C1010208840304218D0DB
:1013000021680968090714D5A860206801684903A5
:1013100004D50068000308D5A16C07E00168C90581
:1013200003D4016821F008010160216C09B1204655
:10133000884794F85C1020208840304231D02168E2
:101340000968C9062DD5A86094F8350005282068DD
:10135000016806D0490347D5006800031DD4616CBD
:101360001CE021F0160101602068416921F0800134
:101370004161206C08B9A06C20B12068016821F09F
:101380000801016094F85C103F208840A86084F850
:10139000349084F83580216D1FE0E16B09B120465F
:1013A0008847606D00282BD0606DC00714D00520E1
:1013B00084F835002068016821F00101016000987F
:1013C000401C0090B84203D820680068C007F6D1DE
:1013D00084F8349084F83580E16C002910D001B095
:1013E0002046BDE8F04308470168C905D5D4016827
:1013F00021F01001016084F8349084F83580CCE746
:10140000BDE8F883280000202DE9F041044600F0F3
:1014100091F906465CB1002584F83450022084F826
:1014200035002068016821F0010101600DE0012014
:10143000BDE8F08100F07EF9801B052805D9202049
:101440006065032084F83500F2E720680068C00773
:10145000F0D12268116820480140D4E90103184303
:10146000D4E903363343184363691843A369184327
:10147000E3691843236A18430843616A042903D1C6
:10148000D4E90B1319430843106020684069666A69
:1014900020F0070130460E43012704280CD1A06A32
:1014A0000643E06A40B12046FFF744FE20B14020E9
:1014B000606584F83570BAE7206846612046FFF71A
:1014C00025FE94F85C203F2191408160656584F899
:1014D00035700020ACE700003F8010F02DE9F041AE
:1014E0000446866D90F83400002501280DD00120B7
:1014F00084F8340094F835700020012F07D084F868
:10150000340002252846BDE8F0810220FBE70227CF
:1015100084F8357060652046FFF736FE94F85C105D
:101520003F208840B0602068016841F016010160EA
:10153000206C20B12068016841F00801016020683A
:10154000016841F001010160DCE7000070B504466C
:1015500000F0F0F80546601C02D00448007804440E
:1015600000F0E8F8401BA042FAD370BD1C00002038
:101570002DE9F84F00224FF0010803254FF00F0E20
:101580000B6808FA02F42340A3426ED14E68012E84
:1015900005D0022E03D0112E01D0122E12D1866852
:1015A0004FEA420C05FA0CF7BE43CF6807FA0CF776
:1015B000374387604668A6430C79C4F3001494400F
:1015C00034434460C668570005FA07FC8C6826EA75
:1015D0000C06BC403443C4604C68022C01D0122C71
:1015E00013D1D40800EB8404A346D4F82090540708
:1015F0004FEAD46A0EFA0AF629EA06090E6906FAD3
:101600000AF646EA0906CBF8206006680C7926EA55
:101610000C0604F00304BC40344304604C68E4004E
:1016200065D5364C266846F480462660246822F04C
:10163000030604F480440094314C3444A446D4F8A6
:1016400008489607370F0EFA07F6B4432D4EB042FE
:1016500001D1002624E02C4EB04201D101261FE02A
:101660002A4EB04202D102261AE040E0284EB04293
:1016700001D1032614E0274EB04201D104260FE029
:10168000254EB04201D105260AE0244EB04201D1D8
:10169000062605E0224EB04201D1072600E00826CA
:1016A000BE402643CCF808681E4E34684F689C4301
:1016B000FF0300D51C4334601A4C241D26684F6874
:1016C0009E43BF0300D51E432660164E083634687D
:1016D0004F689C43FF0200D51C433460114E0C360A
:1016E00034684F689C43BF0200D51C433460521CD1
:1016F000102AFFF445AFBDE8F88F000044380240DF
:101700000030014000000240000402400008024096
:10171000000C024000100240001402400018024079
:10172000001C0240003C01400AB18161704709047D
:10173000FBE7000001488068704700001C000020A3
:101740000248816802781144816070471C000020C3
:101750000B4810B5016841F400710160016841F463
:1017600080610160016841F480710160032000F034
:101770008DF8002000F006F800F03EF8002010BDC3
:10178000003C024010B5014688B00022192000F04C
:101790005DF8192000F04CF813480024016841F06E
:1017A00001010160006805A900F00100069068468B
:1017B00000F018F900F046F90C494000B0FBF1F1D7
:1017C0000C480B4A491E026040F2E732C0E903248C
:1017D000C0E9011400F06EFB10B1012008B010BD8B
:1017E000044800F0A1FBF9E74438024040420F00F2
:1017F00000000140E00400200C4882B0016841F480
:1018000080410160006800F4804000900748001F9C
:10181000016841F0805101600068002200F08050B2
:1018200000900F21901E02B000F010B84438024022
:10183000002809DB00F01F020121914040098000CF
:1018400000F1E020C0F8001170470000F0B40E4B2A
:101850001B680C46C3F30223C3F10705042D00D90E
:101860000425191D072901D2002300E0DB1E0126F3
:1018700006FA05F1491E214099409E40761E164009
:101880003143F0BC03F082B80CED00E0064900F0F3
:10189000070208684FF6FF03184040EA0220034A97
:1018A00010430860704700000CED00E00000FA05EE
:1018B0002DE9F0470E46050065D0DFF81481D8F811
:1018C0000000F7B200F00F00B04207D288F80070B5
:1018D000D8F8000000F00F00B04254D128683D4C09
:1018E000810712D5400703D5206840F4E0502060FE
:1018F0002878000703D5206840F460402060206805
:10190000A96820F0F000084320602878C0072DD097
:10191000304968680839012812D0022813D00328FA
:1019200011D00968890700292DDA216821F0030107
:1019300001432160FFF7FEFE814641F2883A0EE046
:1019400009688903EFE709688901ECE7FFF7F2FE10
:10195000A0EB0901514502D90320BDE8F0872068BA
:10196000696800F00C00B0EB810FEFD1D8F80010DF
:10197000404601F00F01B14207D90770006800F03E
:101980000F00B04201D00120E7E72878400705D5D5
:101990002068E96820F4E0500843206028780007B8
:1019A00006D52068296920F4604040EAC100206023
:1019B00000F058F82168084AC1F30311515CC8408F
:1019C0000649086006480068FFF7DCFE0020C4E70F
:1019D000003C02400838024098940008280000208B
:1019E000200000200F2202600C4A136803F003035A
:1019F0004360136803F0F0038360136803F4E0535B
:101A0000C36012684FF4E05303EAD2020261044853
:101A1000006800F00F0008607047000008380240BE
:101A2000003C02400448054900680968044AC1F3C3
:101A30008221515CC84070472800002008380240CD
:101A4000A89400080448054900680968044AC1F3DD
:101A50004231515CC84070472800002008380240DD
:101A6000A8940008154810B5006810F00C0214483E
:101A700013D04110042A0FD0082A0ED10F4C241F76
:101A80002268236802F03F025B0207D52068C0F39A
:101A90008810A0FB010106E0084610BD2168C1F3D3
:101AA0008811A1FB00010023FEF7ECFB2168C1F3C4
:101AB0000141491C4900B0FBF1F010BD083802405B
:101AC0000024F4002DE9F84F04006ED02078DFF8F0
:101AD0003C93C007A9F104054AD009F1040001684C
:101AE000C1F38101012908D00068C0F381000228F8
:101AF0000AD1D9F80000400206D52868800337D5FE
:101B000060680028E1D033E06068B0F5803F10D015
:101B1000B0F5A02F286810D020F480302860286805
:101B200020F4802028606068A8B1FFF703FE064615
:101B30000DE0286840F48030F4E740F4802028600D
:101B4000F7E700BFFFF7F6FD801B642873D828680D
:101B50008003F7D50CE0FFF7EDFD064605E000BF7A
:101B6000FFF7E8FD801B6428F0D828688003F7D4CD
:101B70002078DFF89C8280074FF0000A3ED5A3480A
:101B8000001D016811F00C0F08D00068C0F381003F
:101B900002280BD1D9F80000400207D4286880073A
:101BA00016D5E068012800D112E02BE1E068B8B159
:101BB0000120C8F80000FFF7BDFD064605E000BFA4
:101BC000FFF7B8FD801B0228C0D828688007F7D52A
:101BD0002868216920F0F80040EAC10028600DE083
:101BE000C8F800A0FFF7A6FD064604E0FFF7A2FD37
:101BF000801B02281FD828688007F7D420780007A8
:101C000022D5824E83486169703671B1012101602D
:101C1000FFF790FD074604E0FFF78CFDC01B02288C
:101C200009D830688007F7D50EE0C0F800A0FFF7AC
:101C300081FD074605E082E0FFF77CFDC01B02281E
:101C40007DD830688007F7D42078400768D5DFF862
:101C5000BCB100270BF13C0BDBF80000C0000BD43B
:101C6000DBF8001041F08051CBF80010DBF80000E9
:101C7000012700F080500090674E3068C00510D4F6
:101C8000306840F480703060FFF754FD009005E04C
:101C9000FFF750FD0099401A022850D83068C0055F
:101CA000F6D55A4EA0686C3601280FD0052830684A
:101CB00010D020F001003060306820F00400306067
:101CC000A068B8B1FFF736FD00900FE0306840F033
:101CD0000100F4E740F004003060F7E7FFF72AFD69
:101CE0000099411A41F28830814266D830688007F5
:101CF000F4D50EE0FFF71EFD009007E0FFF71AFD98
:101D00000099411A41F28830814256D830688007E4
:101D1000F4D42FB1DBF8001021F08051CBF8001083
:101D2000A069C8B33949091D0968C1F381010229B5
:101D30004AD00228504607D0C8F8600000E03CE0D6
:101D4000FFF7F8FC04463BE04746C8F86000FFF7A1
:101D5000F1FC064605E000BFFFF7ECFC801B022803
:101D60002BD828688001F7D4D4E907010843A16A79
:101D70002A4A490802EB0141626A41EA821108439A
:101D800094F82C1040EA0161C9F80010012038666F
:101D9000FFF7D0FC044606E036E000BFFFF7CAFCC0
:101DA000001B022809D828688001F7D52CE000BF65
:101DB000FFF7C0FC001B022802D90320BDE8F88F02
:101DC00028688001F4D41FE00128F7D0D9F800007A
:101DD000E26900F48001914214D1226A00F03F01CF
:101DE00091420FD147F6C071626A0140914209D118
:101DF000A26A00F44031914204D1E16A00F07060BF
:101E0000884201D00120D9E70020D7E704380240FA
:101E100000004742800E4742007000400000FFFF74
:101E20007047704770B590F83C20012A32D00124E9
:101E300080F83C40022280F83D2003685A689D6883
:101E400022F070060A6832435A60134B02689A42C5
:101E500014D0B2F1804F11D0104B9A420ED0104BDB
:101E60009A420BD00F4B9A4208D00F4B9A4205D0A2
:101E70000E4B9A4202D00E4B9A4204D1496825F08B
:101E800080031943916080F83D40002180F83C10A8
:101E9000084670BD022070BD0000014000040040F3
:101EA00000080040000C00400004014000400140D8
:101EB0000018004010B5040003D094F83D0010B1A4
:101EC00007E0012010BD002084F83C00204600F00F
:101ED0000DF8022084F83D00211D206800F01CFF51
:101EE000012084F83D00002010BD000008B5006806
:101EF0000B49884212D10B48016841F01001016082
:101F00000068002200F01000009005213620FFF745
:101F10009DFCBDE808403620FFF78ABC08BD0000E4
:101F200000100040403802400168CA6842F00102D7
:101F3000CA600068816801F00701062903D00168C2
:101F400041F001010160002070472DE9F0410D468C
:101F5000040003D094F83D0018B108E00120BDE86A
:101F6000F081002084F83C00204600F03BF802207D
:101F700084F83D002068816844F207029143816043
:101F8000211D206800F0C8FE226890689169166AD9
:101F90002B68AF69034340F20330814341EA0721D4
:101FA000A868EF6908434FF6FC418843E96840EAB6
:101FB0000720014328692F6A000140EA07300843DF
:101FC00069686D6926F0AA0646EA051529439360FB
:101FD0002268906120680162012084F83D000020A1
:101FE000BDE7000030B587B0044614216846FEF70F
:101FF00093F9214D22680023204803240221AA429C
:1020000019D11E4A1032156845F00805156012688E
:1020100002F008020592026842F0010202600068C4
:102020000094CDE9011300F00100CDE90410039301
:10203000694613481BE0134DAA421AD10F4A1432C5
:10204000156845F002051560126802F0020205925B
:10205000026842F004020260006800F0040005908B
:10206000C0208DE80B00CDE9033469460648FFF730
:102070007FFA07B030BD0000000C0040303802404D
:10208000000002400004014000080240704770B5A3
:102090000446006801694FF00005C943890715D45B
:1020A000C168C943890711D4E91E01610120207765
:1020B000206880698007204602D0FFF7E7FF04E030
:1020C00000F098F8204600F096F82577206801691E
:1020D000C943490717D4C168C943490713D46FF0EE
:1020E00004010161022020772068806910F4407F9C
:1020F000204602D0FFF7CAFF04E000F07BF820463C
:1021000000F079F8257720680169C943090716D4DA
:10211000C168C943090712D46FF0080101610420A6
:1021200020772068C0698007204602D0FFF7AEFF05
:1021300004E000F05FF8204600F05DF825772068A5
:102140000169C943C90617D4C168C943C90613D474
:102150006FF010010161082020772068C06910F439
:10216000407F204602D0FFF791FF04E000F042F8E4
:10217000204600F040F8257720680169C943C90767
:1021800008D1C168C943C90704D1891E016120462D
:1021900000F032F820680169C943090609D4C16812
:1021A000C943090605D46FF0800101612046FFF79D
:1021B00037FE20680169C943490609D4C168C9438B
:1021C000490605D46FF040010161204600F01EF879
:1021D00020680169C94389060BD4C168C9438906CF
:1021E00007D46FF0200101612046BDE87040FFF781
:1021F00018BE70BD7047704700680349884201D11E
:10220000FFF79EBA7047000000000140704710B50C
:1022100004460068416994F83920C1F3C011212AAD
:102220000BD151B1416921F080014161206B08B1AE
:10223000FEF7C0FF204600F03DFE2068416994F89B
:102240003A20C1F38011222A0BD151B1416921F00A
:1022500040014161606B08B1FEF7ACFF204600F021
:102260001BFE002010BD0020401C0528FCDB704731
:1022700070B5026804461068D168536910F00F0FFA
:1022800052D003F0010501F490762E435FD0C207CF
:1022900005D0CA0503D5E26B42F00102E2634207B2
:1022A00005D5DA0703D0E26B42F00202E26382074F
:1022B00005D5DA0703D0E26B42F00402E2630207BD
:1022C00007D501F020022A4303D0E26B42F0080256
:1022D000E263E26B002A33D0800604D5880602D57B
:1022E000204600F0F0FD20684069E16BC0F38010EB
:1022F000090700D428B3204600F0CEFD20684169CC
:1023000049061AD5416921F040014161606BA0B1D5
:102310001B490165606BFEF794FF002810D0606BCD
:10232000016DBDE870400847830610D58B060ED5B9
:102330002046BDE8704000F0C6BD2046FFF793FF81
:1023400070BD2046FFF78FFF0020E06370BD0306DD
:1023500006D50B0604D52046BDE8704000F092BEBD
:102360004006F3D54806F1D5D168204621F040015A
:10237000D160202184F8391000F06AFA70BD0000A5
:10238000F92D000870B5040004D094F83900002538
:1023900010B106E0012070BD84F83850204600F0EE
:1023A00023F8242084F839002068C16821F4005102
:1023B000C160204600F0D2FD2068016921F49041FF
:1023C00001612068416921F02A0141612068C168EA
:1023D00041F40051C160E563202084F8390084F89D
:1023E0003A00002070BD00002DE9F04F87B005468F
:1023F00014216846FDF790FFA248DFF8848202218D
:10240000D5F800C00322072300248E0607154FF4D9
:1024100080794FF0400AC44562D1DFF868C20CF100
:10242000140CDCF8008048F01008CCF80080DCF8D0
:1024300000C00CF0100CCDF814C0D0F800C04CF067
:10244000010CC0F800C0006800F0010005905002C7
:102450008DE8130069468C48CDE90323FFF788F81F
:10246000DFF82C8289494046C8F80010C0E90164B1
:10247000C0E90347C8F81440C0E90649C8F820403D
:10248000C8F82440FEF7C0FF08B1FEF792FEC5F879
:102490003480C8F83850DFF8F8817C4908F16008CA
:1024A00040467831C0E90347C8F81440C8F81840DE
:1024B000C8F81C40C8F8204088E84204C8F8244006
:1024C000FEF7A2FF08B1FEF774FEC5F830800022C7
:1024D00005212520C8F83850FFF7B8F9252063E01A
:1024E000DFF8B081DFF89CE1C4450EF1100E60D139
:1024F000DEF80080A34648F40038CEF80080DEF80D
:1025000000C00CF4003CCDF814C0D0F800C04CF072
:10251000010CC0F800C0006800F0010005900C201C
:102520008DE8130069465848CDE90323FFF720F8EA
:10253000DFF85C81584908F1C0084046C8F800102F
:10254000C0E90164C0E90347C8F81440C0E906497E
:10255000C8F82040C8F82440FEF756FF08B1FEF73F
:1025600028FE4D484D4CC5F834801830C8F8385016
:1025700084E84104C4E903B7C4F814B0C4F818B03F
:10258000C4F81CB0C4F820B02046C4F824B0FEF74C
:102590003BFF08B1FEF70DFE2C630022052126202B
:1025A000A563FFF753F92620FFF742F907B0BDE80E
:1025B000F08FDFF8EC80C445F8D1DEF8008048F4F5
:1025C0008028CEF80080DEF800C00CF4802CCDF816
:1025D00014C0D0F800C04CF0080CC0F800C000686F
:1025E00000F0080005904FF440708DE81300694634
:1025F0002C48CDE90323FEF7BBFFDFF8A080264976
:1026000008F1600860394046C8F80010C0E901646C
:10261000C0E90347C8F81440C0E90649C8F820409B
:10262000C8F82440FEF7F0FE08B1FEF7C2FDC5F879
:102630003480C8F83850DFF86480174908F1C008C2
:1026400040463039C0E90347C8F81440C8F818407C
:10265000C8F81C40C8F8204088E84204C8F8244064
:10266000FEF7D2FE08B1FEF7A4FDC5F830800022C7
:1026700005212720C8F83850FFF7E8F8272093E70E
:102680000010014030380240000002404064024027
:10269000A00200200044004088600240C0030020E7
:1026A00000480040000C0240F8B5044690F83A009B
:1026B00020283CD1C1B3BAB394F83800012836D0F1
:1026C000012084F83800A162A2850025E56322205C
:1026D00084F83A00636B1748D863636B1648186434
:1026E000636B1648D864606B134605650846666BD5
:1026F000216802463046091DFEF7F0FE2068016899
:102700004168009184F83850C16841F48071C1601B
:102710002068416941F0010141612068416941F04F
:10272000400141610020F8BDFFE70120FBE70220E6
:10273000F9E70000532E00088F2E0008092E00082C
:1027400090F83A30202B22D1F9B1F2B190F838301C
:10275000012B1CD081628285C2850021C1632222A7
:1027600080F83A2080F838100168CA6842F4807214
:10277000CA6001684A6942F001024A610068C168A2
:1027800041F02001C1600020704701207047022005
:102790007047704770472DE9F843044690F83900B8
:1027A0001F4616460D46202850D1B5B1AEB194F85B
:1027B000380001284AD0012084F838004FF0000882
:1027C000C4F83C80212084F83900FEF7B3FFA684CA
:1027D0008146E68484F8388026E00120BDE8F8834D
:1027E000E08C401EE084A0684B46B0F5805F4FF05F
:1027F00000024FF080012046009703D000F073FCE8
:10280000E8B90DE000F06FFCC8B928882168C0F372
:1028100008004860206908B16D1C05E0AD1C03E0AC
:10282000216815F8010B4860E08C0028D8D14B4690
:10283000002240212046009700F055FC08B10320FB
:10284000CCE7202084F839000020C7E70220C5E744
:102850007047000003A002F05DF80A20FEF776FE44
:10286000F8E70000486172644661756C745F486106
:102870006E646C6572200D0A00000000214808B5E6
:10288000016841F400110160016801F40011009138
:10289000016841F4800101600068002200F48000BA
:1028A000009005210C20FEF7D1FF0C20FEF7C0FFA1
:1028B000002205210E20FEF7C9FF0E20FEF7B8FF0B
:1028C000002205211020FEF7C1FF1020FEF7B0FF07
:1028D000002205211120FEF7B9FF1120FEF7A8FF05
:1028E000002205213A20FEF7B1FF3A20FEF7A0FFB3
:1028F000002205214620FEF7A9FFBDE8084046203A
:10290000FEF796BF3038024010B5194803F06AFC54
:10291000184C20611648103003F064FC144A012161
:1029200060612032084603F0D9FC114BA061203BC6
:1029300000220121104803F0B3FD0D4BA060103BB5
:10294000002201210D4803F0ABFD094AE060683A1E
:1029500000210B4803F052FD054A2060443A002153
:10296000084803F04BFD6060BDE8104003F006BB73
:102970006094000800000020BF100008C11000088B
:10298000EF2B0008092C000870B586B014216846AA
:10299000FDF7C2FC1A480025016841F08001016082
:1029A000016801F080010591016841F001010160B9
:1029B000016801F001010591016841F00801016021
:1029C000016801F008010591016841F0040101600E
:1029D00000680C4E00F004004FF480640590002263
:1029E00021463046FEF7A0FE0121CDE90041CDE9A8
:1029F000021569463046FEF7BBFD06B070BD00000B
:102A000030380240000C024010B58CB024216846DA
:102A1000FDF782FC00241748099415490A94C0E97F
:102A200000144FF6FF71C0E9024104618461032084
:102A300000900220019001200421CDE9020107212C
:102A40000491CDE90540079469460A480894FFF7C8
:102A50007CFA08B1FEF7ADFB099409A905480A9470
:102A6000FFF7E0F9002801D0FEF7A3FB0CB010BD82
:102A7000000C0040200100201CB500240F480094E9
:102A80000D49019401605321C0E9011440F2E7317E
:102A9000C16080218161FFF70DFA08B1FEF789FB63
:102AA0000094694605480194FFF7BCF9002801D05D
:102AB000FEF77FFB1CBD00000010004060010020FD
:102AC00010B58CB024216846FDF726FC0024184878
:102AD000099416490A94C0E900144FF6FF71C0E941
:102AE000024104614461846103200090022001904E
:102AF00001200421CDE9020107210491CDE905401F
:102B0000079469460A480894FFF71FFA08B1FEF7D0
:102B100050FB099409A906480A94FFF783F9002895
:102B200001D0FEF746FB0CB010BD000000040140D0
:102B3000A00100200C4810B50A4901604FF4E131B2
:102B40004160002181600C22C160C0E904128161F2
:102B5000C161FFF717FC002803D0BDE81040FEF765
:102B600028BB10BD00100140E00100200C4810B54A
:102B70000A4901604FF4E1314160002181600C227B
:102B8000C160C0E904128161C161FFF7FBFB00284D
:102B900003D0BDE81040FEF70CBB10BD0044004060
:102BA000200200200C4810B50A4901604FF4E131C1
:102BB0004160002181600C22C160C0E90412816182
:102BC000C161FFF7DFFB002803D0BDE81040FEF72E
:102BD000F0BA10BD0048004060020020FEE77047D8
:102BE000002801DB012070474FF0FF30704703F0F1
:102BF000C3F903F0D1F903F095FC03F099FA0A2028
:102C000003F09EFAF7E7000003F020FA08490748AE
:102C1000C1F87001084604F0E3FE03F0E5F900BFD7
:102C200004F09AF9642003F08BFAF9E76D7C000850
:102C30008454002010B5502080F31188BFF34F8FCB
:102C4000BFF36F8F05F0B8FF18B104494FF0805003
:102C50000860002080F3118810BD000004ED00E042
:102C600030B593B030216846FDF756FB14210CA80F
:102C7000FDF752FB19480025016841F080510160C1
:102C8000006800F0805011901548016841F48041BF
:102C900001600068022400F480401190012000903F
:102CA000000401908001CDE9064008AA0420A82173
:102CB00082E813000B906846FEF704FF0CA90F2072
:102CC00081E831004FF4A0500F90E00210900521F0
:102CD0000CA8FEF7EDFD13B030BD000040380240F7
:102CE000007000400548016841F47001016003492B
:102CF0004FF00060803908607047000088ED00E008
:102D00000148FFF7C4B90000E00400200148FFF7C4
:102D1000BEB9000060010020F0B50268254C264DC8
:102D2000264E274F274B4FF0804CA04209D06045DC
:102D300007D0A84205D0B04203D0B84201D0984293
:102D400004D122F0700E4A6842EA0E02A0421BD063
:102D5000604519D0A84217D0B04215D0B84213D060
:102D6000984211D0184DA8420ED0184DA8420BD051
:102D7000174DA84208D0174DA84205D0164DA842BD
:102D800002D0164DA84203D122F44075CA682A43E6
:102D90004D6922F080022A4302608A68C2620A6892
:102DA0008262A04201D0984201D1096901630121E8
:102DB0004161F0BD000001400004004000080040F7
:102DC000000C00400004014000400140004401406C
:102DD0000048014000180040001C00400020004056
:102DE00010B504F05BF8002805D0D0E90021BDE85B
:102DF00010400846104710BD10B5806B0021C185FA
:102E0000C184FFF730FA10BD70B5846B206840694B
:102E100094F83910C0F3C0100025212904D118B14D
:102E2000E584204600F046F82068406994F83A109E
:102E3000C0F38010222904D118B1E585204600F0A6
:102E40002BF8E06B40F01000E0632046FFF70BFA30
:102E500070BD10B50146806B09680968C90513D4B7
:102E60000021C1850168CA6822F48072CA600168C5
:102E70004A6922F001024A6101684A6922F040026F
:102E80004A61202180F83A10FFF783FC10BD10B58D
:102E9000806BFFF77FFC10BD0168CA6822F4907256
:102EA000CA6001684A6922F001024A61202180F863
:102EB0003A1070470168CA6822F0C002CA60202137
:102EC00080F83910704710B590F83A10222901D0D7
:102ED000022010BD8168B1F5805F11D00169002921
:102EE00001681FD0496801F07F03816A4A1C826231
:102EF0000B70C18D491E0904090CC18518D02BE047
:102F00000269816A002A0268526805D0D2B20A803A
:102F1000816A491C8162ECE7C2F308020A80816A77
:102F2000891CF7E74A68816A4B1C83620A70E0E7F4
:102F30000168CA6822F02002CA600168CA6822F4E7
:102F40008072CA6001684A6922F001024A61202148
:102F500080F83A10FFF71DFC002010BD2DE9F0416C
:102F6000044600680169E26821F44051114301619F
:102F70002169A068E2690843616911430843216837
:102F8000CA6849F20C639A430243CA6020684169E7
:102F9000A26921F4407111434161E0691927642558
:102FA0003226B0F5004F354A354920684FF0000809
:102FB00006D0884201D0904236D1FEF743FD35E07D
:102FC000884201D0904202D1FEF73CFD01E0FEF7BD
:102FD00029FD61684A18A0FB070148EB0803FDF7CB
:102FE00051F90146B0FBF5F00201B1FBF5F06FF0CD
:102FF0001803584301EB800006EBC000B0FBF5F06E
:1030000000F0F80002EB4002B1FBF5F0584301EB91
:10301000800006EBC000B0FBF5F000F0070021686F
:1030200010448860BDE8F081FEF7FCFC61688B0FFE
:103030008A00A0FB0701FDF725F90146B0FBF5F07A
:103040006FF01802504301EB800006EB0010B0FB5C
:10305000F5F000F0F002B1FBF5F002EB0012B1FB6D
:10306000F5F06FF01803584301EB800006EB0010F9
:10307000B0FBF5F000F00F00D1E7000000140140B4
:103080000010014090F83910212901D0022070472A
:103090008168B1F5805F016A0BD04A1C0262026848
:1030A00009785160C18C491E0904090CC1840ED0F5
:1030B00017E009880268C1F308015160016900291D
:1030C000016A02D0491C0162ECE7891CFBE7016838
:1030D000CA6822F08002CA600068C16841F04001FD
:1030E000C160002070472DE9F041984617460E4612
:1030F0000446069D1DE0681C1BD02DB1FEF71AFB8F
:10310000A0EB0800A84214D92068C16821F4D0714E
:10311000C1602068416921F001014161202084F8EB
:10312000390084F83A00002084F838000320BDE814
:10313000F0812068006836EA000004D00020B84220
:10314000D9D00020F3E70120F9E7000010B50448CA
:1031500000F022F8BDE810400148FFF789B80000F0
:10316000E001002010B5044800F016F8BDE810405A
:103170000148FFF77DB800002002002010B5044888
:1031800000F00AF8BDE810400148FFF771B80000F0
:1031900060020020FEE70000F8B503461C4900204D
:1031A0005322424351F822509D4206D101EB820244
:1031B00092F84951012D00D11446401C0528EFDB3F
:1031C000216808680268D243D2061FD402684068AA
:1031D00000900846FFF71BF82068406B00684068C5
:1031E000626822B1C0F5807104F1080090474FF485
:1031F000807604F1080031460546FDF78DF8324629
:1032000029462068BDE8F840FFF74EBAF8BD000037
:10321000F44D002070B50E460546014605A001F0AC
:1032200079FB002403E0285D00F0EEF9641CB44251
:10323000F9DB70BD2573000040F6B83002F080FF66
:103240004FF47A7120A000F0B7FA522000F008FB8A
:1032500000F07AFD002000F089FC012000F086FCDF
:10326000022000F083FC012000F07AFE00F032F82A
:1032700000F01AFC00F06CFF154C002604F2045517
:1032800000F072F894F81A09022801D0032801D13D
:1032900000F022FB00F05EFA94F81909012808D129
:1032A00084F81969B4F8101994F812092A4600F044
:1032B00037FF00F09BFF02F0FBFE00F029FF3220F9
:1032C00002F03EFFDCE7000041540D0A0000000060
:1032D000FC5B00207CB5184D4FF0FF31286802F0F0
:1032E000C1FF002400F036FA194814A1064601F087
:1032F00021FB304600F056FAC8B116A0009017A383
:10330000022201A94FF47A7000F0EAFF78B19DF82B
:10331000040002280BD012A2012101A800F0FCF841
:10332000104908B19DF8040081F81A0901242868A1
:1033300003F02CF820467CBDF000002041542B43C4
:10334000574D4F44455F4355523F0D0A0000000062
:10335000FD5F00204552524F520000004F4B0000CD
:103360003A000000FC5B00202DE9FC47304C94F84B
:103370001B0910B10120BDE8FC872E4E4FF0FF3134
:10338000306802F06FFF002500F0E4F92D482AA113
:10339000814601F0CFFA484600F004FA002842D0F6
:1033A00029A04FF47A77009029A3022201A9384678
:1033B00000F096FF002836D09DF80400022832D095
:1033C000244A25A19046601CFDF70EF842462AA12A
:1033D000601CFDF709F800F0BDF92FA1484601F087
:1033E000A9FA484600F0DEF9E8B117A0009018A34A
:1033F000022201A9384600F073FFA0B19DF8040035
:10340000022810D028A1601CFCF791FF58B1114B85
:103410000122103327A100F0B3F820B1414626A0C5
:1034200001F078FA0125306802F0B0FF2846A2E7E3
:10343000FC5B0020F000002041542B4349465352CE
:103440000D0A0000FD5F00204552524F520000005F
:103450004F4B00001765002041542B4349465352FF
:103460000D0D0A2B43494653523A415049502C22E4
:10347000255B5E225D00000041542B4349465352B8
:103480000D0D0A2B43494653523A53544149502C8F
:1034900022255B5E225D000041542B43495053546A
:1034A000413F0D0A00000000676174657761793A59
:1034B000000000002200000025730D0A000000003B
:1034C0001FB500F047F900F023FE094B0FCB8DE844
:1034D0000F0001216A46084602F000FF054C044A2D
:1034E00000212060243A044802F088FF60601FBD7C
:1034F00090950008F000002039320008024604E0F0
:1035000003708B4200D0401C521C1378002BF7D163
:10351000002101707047000070B5064C0546601C24
:1035200000F00AF8002804D0601CFDF78FF828602E
:10353000012070BDFC5B00202DE9F0410C46050028
:10354000174612D08CB10D481146FCF72BFF002610
:1035500050B139460020FCF725FF010001D0641E60
:10356000E4B22CB10028F4D12E700020BDE8F08127
:103570002846FCF70DFF0120F8E70000FD5B002066
:103580000FB42DE9F04107469DF820000E460028B3
:1035900030D009AC800001F0BBFE0546002004E0FD
:1035A00002CC45F82010401CC0B29DF82010884283
:1035B000F6D331463846FCF7F5FEB8B10024314663
:1035C0000020FCF7EFFE070004D09DF82000401E0D
:1035D0008DF8200055F824003946FCF7D9FE641C0C
:1035E0009DF82000E4B248B1002FE8D1284601F050
:1035F000E1F90020BDE8F0015DF814FB284601F078
:10360000D9F90120F6E700002DE9F0414E4C0646BD
:10361000002594F818094FF480680127F0B3FEF7ED
:1036200089F8D4F81419401A322801D984F81859A5
:10363000B4F8100998B3B4F80E1944480E54B4F80D
:103640000E09404502D2401CA4F80E09B4F8101926
:1036500080B2884203D384F8185984F81979B4F8F1
:103660000205042831D93849C91E425C2B2A2CD1C5
:103670004A1C835C492B28D18B1CC65C502E24D15C
:10368000265C442E21D101F603167560B5604554C1
:10369000B4F802058554B4F8020501E017E023E010
:1036A000C554B4F802052554B4F80205001FA4F867
:1036B0000205A4F80E5984F80C5984F81879A4F876
:1036C0001059FEF737F8C4F81409BDE8F0811E4818
:1036D000B4F80215401C0E54B4F802054045BED2A1
:1036E000401CA4F80205BAE7174894F8192A00F616
:1036F0000411481E002A94F80C29565494F80C1909
:1037000001F10101C9B284F80C1904D094F806291A
:103710002C2A07D00BE0085C3A28A0D184F8125973
:103720000B480BE094F80529303A84F81229032954
:1037300095D9085C3A2892D10548801CFCF786FF91
:10374000A4F810098BE70000FC5B0020006100205A
:103750000165002010B5054C4FF48061601CFCF73A
:10376000DBFD0020A4F8020510BD0000FC5B00207A
:1037700070B50C460546B1F5807F0BD80A46014668
:103780000648FCF7B0FD6423224629460448FFF7AB
:1037900002F808B1002070BD012070BDFD5F00205F
:1037A0006002002010B50446FCF7DDFD81B2204622
:1037B000BDE81040FFF7DCBF70B50D460446FCF7CE
:1037C000D2FD81B22046FFF7D3FF002803D0284660
:1037D00002F0B6FC012070BD2DE9FC41154E0546F6
:1037E0004FF0FF31306802F03DFD0024FFF7B2FFDB
:1037F00016482A4610A1074601F09CF83846FFF704
:10380000D1FF88B112A0009013A3022201A94FF4A6
:103810007A7000F065FD38B19DF80400022803D0ED
:103820000E48012480F81A59306802F0AFFD204696
:10383000BDE8FC81F000002041542B43574D4F441C
:10384000455F4355523D25640D0A0000FD5F002091
:103850004552524F520000004F4B0000FC5B0020CD
:103860007CB5144D06464FF0FF31286802F0FAFC93
:103870000024FFF76FFF144832460FA1064601F0FF
:1038800059F83046FFF78EFF70B110A0009011A3D9
:10389000022201A94FF47A7000F022FD20B19DF8B8
:1038A0000400022800D00124286802F06FFD2046A1
:1038B0007CBD0000F000002041542B5246504F5771
:1038C00045523D25640D0A00FD5F00204552524FD0
:1038D000520000004F4B000070B5334D8AB04FF0DE
:1038E000FF31286802F0BEFC0024FFF733FF3248A6
:1038F0002EA1064601F01EF83046FFF753FF0028C0
:103900004BD02EA000902FA3022209A94FF47A7069
:1039100000F0E6FCF0B39DF8240002283DD02A4CCC
:103920000D21601CFFF7EAFD04F6F510A0F1680117
:10393000CDE90710A0F11202A0F17803CDE905321C
:10394000243A029224382039CDE90310203B243850
:10395000CDE90003103B0A221CA1601CFFF710FEFA
:103960000021084604EB011292F84D39303B0A2B36
:1039700001D382F84D0901EBC10204EB420292F837
:10398000AD39303B0A2B01D382F8AD09491CC9B2CD
:10399000062900E001E0E5D30124286802F0F6FCE6
:1039A0000AB0204670BD0000F000002041542B43B7
:1039B000574C49460D0A0000FD5F00204552524F0A
:1039C000520000004F4B0000FC5B00200A2C00005E
:1039D0002DE9FE431B4F8846814615464FF0FF31C7
:1039E000386802F03FFC0024FFF7B4FE164E0DB31A
:1039F00043464A4615A13046009500F09BFF3046ED
:103A0000FFF7D0FE80B119A11BA0CDE900011DA3D5
:103A1000032202A94EF6602000F062FC20B19DF85E
:103A20000800012800D80124386802F0AFFC2046C5
:103A3000BDE8FE8343464A4614A1304600F07AFFB3
:103A4000DDE70000F0000020FD5F002041542B4323
:103A5000574A41505F4355523D222573222C22255F
:103A600073222C222573220D0A0000000D0A464104
:103A7000494C0D0A000000000D0A4552524F520DEC
:103A80000A0000000D0A4F4B0D0A000041542B4361
:103A9000574A41505F4355523D222573222C22251F
:103AA00073220D0A000000007CB5244C4FF0FF315A
:103AB000206802F0D7FB0025FFF74CFE254820A127
:103AC000064600F037FF3046FFF76CFE80B322A0B9
:103AD000009023A3022201A94FF47A7000F000FCA9
:103AE00030B39DF80400022822D01EA2012101A8B3
:103AF000FFF712FDE0B19DF804301B4800213BB1F7
:103B00000122012B07D0022B08D0032B0FD10AE092
:103B100080F83B1904E080F83B1906E080F83B2967
:103B200080F84C1903E080F83B2980F84C290125E6
:103B3000206802F02BFC28467CBD0000F00000202D
:103B400041542B4357444843505F4355523F0D0A5D
:103B500000000000FD5F00204552524F520000005F
:103B60004F4B00003A000000FC5B00202DE9FC41B7
:103B7000184E07464FF0FF31306802F073FB002407
:103B8000FFF7E8FD1448154D90F8190AE8B13A46D8
:103B900013A1284600F0CEFE2846FFF703FE70B1C1
:103BA00014A0009015A3022201A94FF47A7000F02E
:103BB00097FB20B19DF80400022800D00124306852
:103BC00002F0E4FB2046BDE8FC810DA1284600F090
:103BD000B1FEE1E7F0000020FC5B0020FD5F00206B
:103BE00041542B434950434C4F53453D25640D0AE6
:103BF000000000004552524F520000004F4B0000A1
:103C000041542B434950434C4F53450D0A0000008B
:103C1000F0B5334F85B04FF0FF31386802F022FB2A
:103C20000024FFF797FD33482EA1054600F082FEE1
:103C30002846FFF7B7FD00284CD02FA0009030A3F6
:103C4000022204A94FF47A7000F04AFB002841D008
:103C50009DF8100002283DD02D4D2AA1681CFCF7CC
:103C600066FB002836D03A21FCF773FB461C304631
:103C7000FCF7ECFCC4EB041105EB4101641CE4B25D
:103C800081F81C0A052CF2D322A12C46681CFCF7F3
:103C90004EFB05465FF00006C6EB061004EB400243
:103CA00002F6362302F6382C991E02F622208DE801
:103CB0000B10031F1AA128465A1EFCF795FB681C1F
:103CC00014A1FCF734FB050003D0761CF6B2052ED8
:103CD000E2D30124386802F059FB05B02046F0BD5C
:103CE000F000002041542B43495053544154555344
:103CF0000D0A0000FD5F00204552524F52000000A7
:103D00004F4B00000A5354415455533A00000000F1
:103D1000FC5B00202B4349505354415455533A0007
:103D20002B4349505354415455533A25642C222572
:103D30003373222C22255B5E225D222C25642C25E8
:103D4000642C2564000000007CB5194D4FF0FF3154
:103D5000286802F087FA0024FFF7FCFC194815A137
:103D6000064600F0E7FD3046FFF71CFDD8B116A06F
:103D7000009017A3022201A94FF47A7000F0B0FA64
:103D800088B19DF8040002280DD012A2012101A8DB
:103D9000FFF7C2FB38B19DF8040000B101200E49C5
:103DA000012481F8190A286802F0F0FA20467CBD47
:103DB000F000002041542B4349504D55583F0D0A07
:103DC00000000000FD5F00204552524F52000000ED
:103DD0004F4B00003A000000FC5B00207CB5174D03
:103DE00006464FF0FF31286802F03CFA0024FFF746
:103DF000B1FC1748324612A1064600F09BFD304642
:103E0000FFF7D0FCA0B113A0009014A3032201A9D6
:103E100042F2107000F064FA50B19DF804000228DC
:103E200006D00FA202210F48FFF776FB00B1012454
:103E3000286802F0ABFA20467CBD0000F0000020AC
:103E400041542B50494E473D222573220D0A000054
:103E5000FD5F00204552524F520000004F4B0000C2
:103E60002B000000166600202DE9FE43284E0F4669
:103E7000804691464FF0FF31306802F0F3F900249C
:103E8000FFF768FC2348244D90F8190A002839D020
:103E90003B46424621A1284600F04CFD2846FFF74C
:103EA00081FC48B323A04FF47A75009023A302222B
:103EB00002A9284600F014FAF0B121A11DA0CDE915
:103EC000000121A3032202A9284600F009FA98B1B3
:103ED0009DF8080001280FD8FFF73CFC39464846FA
:103EE000FFF746FC13A0009014A3022202A9284663
:103EF00000F0F6F900B10124306802F047FA2046DC
:103F0000BDE8FE833A4611A1284600F013FDC5E73F
:103F1000F0000020FC5B0020FD5F002041542B439B
:103F2000495053454E444255463D25642C25640D69
:103F30000A0000004552524F520000004F4B000053
:103F400062757379000000003E00000041542B436D
:103F5000495053454E444255463D25640D0A0000E4
:103F60002DE9FC41154E05464FF0FF31306802F057
:103F700079F90024FFF7EEFB15482A4610A1074601
:103F800000F0D8FC3846FFF70DFC88B111A0009076
:103F900012A3022201A94FF47A7000F0A1F938B1FE
:103FA0009DF80400022803D00D48012480F8195A16
:103FB000306802F0EBF92046BDE8FC81F0000020FB
:103FC00041542B4349504D55583D25640D0A00007E
:103FD000FD5F00204552524F520000004F4B000041
:103FE000FC5B00202DE9FE4F2B4F884681461D4685
:103FF00016464FF0FF31386802F034F90024FFF71D
:10400000A9FB2B48324625A1824600F093FC50467E
:10401000FFF7C8FB002830D026A0009027A302227B
:1040200002A94FF47A7000F05BF930B39DF80800F4
:10403000022822D0FFF78EFB214890F8190A10B30E
:10404000CDE9006543464A461EA1504600F072FC89
:104050005046FFF7A7FB80B116A123A0CDE90001D0
:1040600016A3032202A946F2A81000F039F920B1E4
:104070009DF80800032800D00124386802F086F972
:104080002046BDE8FE8F3346424619A150460095B2
:1040900000F050FCDCE70000F000002041542B430E
:1040A00049505345525645523D312C25640D0A0066
:1040B000FD5F00204552524F520000004F4B000060
:1040C000FC5B002041542B43495053544152543D12
:1040D00025642C22544350222C222573222C256443
:1040E0002C25640D0A000000434F4E4E45435400FA
:1040F00041542B43495053544152543D2254435050
:10410000222C222573222C25642C25640D0A000004
:104110004FF480710148FCF7FFB80000FD5F0020FC
:10412000F0B5094C0023094D4FF48066606806E045
:10413000D75C2F54401CB04200D100205B1C8B4246
:10414000F6DB6060F0BD0000F8000020B0660020E3
:1041500010B50120FFF740FB02E007A000F0DAFBFA
:10416000002211A113A0FFF733FC0028F5D0BDE811
:10417000104012A000F0CEBB73736964203D20385C
:104180003831302C706173737764203D20383838B3
:10419000383838383820636F6E6E65637420666116
:1041A0006C73650D0A0000003838383838383838F4
:1041B000000000003838313000000000737369647B
:1041C000203D20383831302C706173737764203D86
:1041D00020383838383838383820636F6E6E656369
:1041E0007420737563636573730D0A0010B5174C03
:1041F00094F81C0A03281DD00A2342F6934214A106
:104200000020FFF7EFFE30B115A000F083FB032084
:1042100084F81C0A10BD18A000F07CFB0CA0FFF76E
:10422000DDFD1A4908B11AA000E023A0BDE8104046
:1042300000F070BB294C2069401E2061401CE9D170
:10424000FFF7E6FC1E20206110BD0000FC5B002093
:104250003139322E3136382E342E313439000000C7
:1042600074637020636F6E6E65637420737563632F
:104270006573730D0A00000074637020636F6E6EC7
:104280006563742066616C73650D0A001765002014
:10429000697020257320746F2070696E6720313932
:1042A000322E3136382E342E313439207375636313
:1042B0006573730D0A000000697020257320746F08
:1042C0002070696E67203139322E3136382E342E07
:1042D0003134392066616C73650D0A00F8000020E6
:1042E0000FB42DE9F0470E0080460ED09DF828004F
:1042F00000280BD0002030709DF828000BAC800007
:1043000001F006F80546002009E00020BDE8F007AE
:104310005DF814FB02CC45F82010401CC0B29DF89B
:1043200028108842F6D30027DFF8449019E03220A5
:1043300001F006FF00240FE055F8241009F10100F8
:10434000FBF7F5FF04F1010428B13470284600F0B2
:1043500031FB0120DAE7E4B29DF828008442EBD378
:1043600032374745E3D3284600F024FBCDE7000071
:10437000FC5B0020002801DA404200B270470000D8
:10438000044990ED020A81ED000A90ED080A81EDE2
:10439000010A7047C800002070B506460C46001D93
:1043A00000F010F80546611906F1140000F00AF853
:1043B000284470BD004870472498000800487047A2
:1043C0004598000870B5CB78021D5B0943600C79F5
:1043D00043EAC40343604C7943EAC42343608C79C5
:1043E00004F00F0443EAC44545608B79CC791B097E
:1043F00004F07F0453EA04144FF0804303D003EB2E
:10440000C45425431560CA7912F0800F05D090ED91
:10441000010AB1EE400A80ED010ACC7A00F10802EF
:10442000640984600D7B44EAC50484604D7B44EAE2
:10443000C52484608D7B05F00F0544EAC544846083
:104440008D7BCE7B2D0906F07F0655EA061503D03D
:1044500003EBC5552C431460CA7B12F0800F05D0C6
:1044600090ED020AB1EE400A80ED020ACC7C00F128
:104470000C026409C4600D7D44EAC504C4604D7D2E
:1044800044EAC524C4608D7D05F00F0544EAC544A7
:10449000C4608D7DCE7D2D0906F07F0655EA061598
:1044A00003D003EBC5531C431460C97D11F0800F8A
:1044B0004FF0180105D090ED030AB1EE400A80EDEF
:1044C000030A084670BD000000487047599800086C
:1044D000004870477A9800082DE9F04105460F78AA
:1044E00000790E46B84204D2B900E86802F0FEFC3A
:1044F000E860042400202F71804611E03119325DFC
:104500004B7842EA03228B78C97842EA034242EAB6
:104510000161A960EA6842F82010401CC0B2241D65
:1045200029798142EAD8375D287C641CB84204D2DC
:10453000B900A86902F0DAFCA86100202F74E41C1D
:1045400012E03119325D4B7842EA03228B78C97848
:1045500042EA034242EA01616961D5E9052141F875
:104560002020401CC0B2241D297C8142E9D8375D3F
:10457000287F641CB84204D2B900686A02F0B6FC15
:104580006862E01C2F77002218E03118001D0C68CB
:1045900003460146204404E0745C7718491C07F880
:1045A000014C8842F8D88419F11804F8018C491E8E
:1045B00029626B6A43F82210521CD2B2297F9142C1
:1045C000E3D8BDE8F08100000048704790980008EB
:1045D000004870473495000800487047B1980008BB
:1045E00000487047D298000800487047E5980008D6
:1045F000004870470699000810B5064B0A68B2FBE0
:10460000F3F403FB1424B2FBF3F203681A440260D0
:104610000C6010BD00CA9A3B0A7842604B7842EAAF
:10462000032242608B7842EA03424260CB7842EA3E
:10463000036242600B790A1D8360497943EA0121D4
:104640008160937841EA03418160D27841EA026156
:1046500081600820704700000048704758990008A2
:10466000004870477999000802490022C0E9001209
:1046700082607047FC9700080048704787990008DF
:1046800000487047A899000870B506460C46001D02
:1046900000F008F80546611906F1140000F002F870
:1046A000284470BD30B54368C3F3C7540CB104F55A
:1046B000607400220A704A708A705D01CD70DD0856
:1046C0000D71DD0A4D71C3F3C34343EA04158D71C7
:1046D0002409CC7190ED010AB5EEC00AF1EE10FA92
:1046E00002D244F08004CC718368C3F3C7540CB188
:1046F00004F560740A724A728A725D01CD72DD0837
:104700000D73DD0A4D73C3F3C34343EA04158D7380
:104710002409CC7390ED020AB5EEC00AF1EE10FA4E
:1047200002D244F08004CC73C368C3F3C7540CB105
:1047300004F560740A744A748A745A01CA74DA08F7
:104740000A75DA0A4A75C3F3C34343EA04128A7549
:104750002309CB7590ED030A1822B5EEC00AF1EEDD
:1047600010FA02D243F08000C875104630BD2DE922
:10477000F0410646007908700020487088700D46A8
:10478000C870042401460DE0F2682B1952F821206C
:104790002A55170A5F70170C120E491C9F70DA70A9
:1047A000C9B2241D32798A42EED8317C2955641C65
:1047B00000222855641C2855641C2855641C0DE0F3
:1047C000B1692B1951F8221029550F0A5F700F0C8F
:1047D000090E521C9F70D970D2B2241D317C9142B7
:1047E000EED8317F2955641C00272855641C2855B4
:1047F000641C2855641C12E0706A50F82700FBF70F
:10480000B2FD291980460860706A241D424650F89E
:1048100027102819FBF767FD7F1C4444FFB2307F47
:10482000B842E9D82046BDE8F08170B50646007967
:1048300008700C46B068FBF796FD0546C4F8010009
:10484000601D2A46B168FBF74EFD681D70BD2DE95D
:10485000F041054600790870A8880C46000A4870A7
:10486000A868FBF780FD0646C4F80200A01D32468A
:10487000A968FBF738FDB61DE868FBF774FD07462D
:10488000A019361D0760A0193A46E968FBF72BFD11
:104890003E442869FBF767FD0746A019361D0760EF
:1048A000A0193A462969FBF71EFDF019696922181B
:1048B00021540B0A53700B0C090E9370D170001D1C
:1048C000BDE8F08102790A708288120A4A70426853
:1048D000120C8A704268120ECA70027A0A7102893A
:1048E000130A0A1D4B718168090C91708068000ED3
:1048F000D0700820704770B506460C464068FBF73C
:1049000032FD05462060201D2A467168FBF7EBFC4E
:10491000281D70BD0FB4054B10B503A9044A0298B9
:1049200000F08CFE10BC5DF814FB0000D95D00089F
:10493000100100200FB4084B10B504A902AA039877
:1049400000F07CFE044602A9002001F00EFA204689
:1049500010BC5DF814FB00006B5D000803B4019807
:104960004100009850EAC12018BF04204A0D18BF2A
:1049700040F0010040F2FF72B2EB515F08BF40F01F
:104980000200012808BF052002B070470907090E80
:10499000002804DB00F1E02080F80014704700F0EC
:1049A0000F0000F1E02080F8141D704700487047A8
:1049B0001C01002030B528B1144C031F00202168D1
:1049C0000A4605E0084630BD9A4203D810465268B0
:1049D000002AF9D1002800D041680BD00468A3EB6D
:1049E0000005A54204D11B681C440346046002E094
:1049F000436000E023603AB11C68D51AA54203D198
:104A000015682C441C6052685A6030BD14010020A7
:104A100010B51D499FED1A1B2DED020B84B00598B2
:104A200020F000408842DCBF01209DED040B21DD19
:104A30001649884209D1049840B94FF0010000F0AE
:104A4000CBFC00F099FC06B010BD05DB9DED040B1E
:104A500000F086FC06B010BD68469DED040B00F02A
:104A600017F800F001000121A1EB40009DED021BB1
:104A70009DED000B00F0A4FA06B010BD0000000090
:104A80000000000000000000FB21E93F0000F07F73
:104A90002DE9F14F04462DED020B2DED088B8AB068
:104AA0009FEDE70B80ED020B139EE74826F00045D3
:104AB00085420ADC9DED120B002084ED000B0AB04C
:104AC000BDEC088B03B0BDE8F08FE0489FEDE0AB94
:104AD0009FEDE1BBA84247DDE14F9FEDE39B9FEDDA
:104AE000E48B9DED120B53EC1A2B51EC100B002EA6
:104AF0001CDDFBF76AFE41EC100BBD4208D053EC05
:104B00001B2B51EC100BFBF760FEC4E900010BE01E
:104B100053EC192B51EC100BFBF757FE53EC182BF1
:104B2000FBF753FEC4E900010120C8E7FBF7ACFD29
:104B300041EC100BBD4208D053EC1B2B51EC100B79
:104B4000FBF7A2FDC4E900010BE053EC192B51EC7B
:104B5000100BFBF799FD53EC182BFBF795FDC4E9FF
:104B600000014FF0FF30AAE7C348A84279DB9DED72
:104B7000120B51EC100B01F023F941EC180B9FEDD7
:104B8000C00B53EC102BFBF726FE9FEDBF1B53EC25
:104B9000112BFBF779FDFBF710FF0746FBF7FCFE37
:104BA00041EC190B53EC1A2BFBF715FE53EC182BA9
:104BB000FBF70EFE41EC180B53EC1B2B51EC190BC1
:104BC000FBF709FEDFF8C8A241EC100B4FEA1558BD
:104BD0000125FA4453EC102B51EC180BFBF7F5FDB3
:104BE000032DC4E900013DD0C1F30A5005EB451186
:104BF000A8EB00001139814234DA0AEB051BB0EE54
:104C000048AA9BED000BF0EE68AA53EC102B51EC78
:104C1000190BFBF7E0FD41EC1B0B51EC1A0B53ECAD
:104C20001B2BFBF7D2FD41EC180B51EC1A0B53EC8C
:104C3000182BFBF7CAFD53EC1B2BFBF7C6FD9BEDB6
:104C4000020B41EC1A0B53EC102B51EC190BFBF738
:104C5000C2FD53EC1A2BFBF7B8FD41EC100B6D1C99
:104C6000B8E70EE0002EA8BF3846BFF628AF94ED97
:104C7000000B51EC100B81F00041C4E900017842B7
:104C80001DE7C6F3130040F4801EC6F30A50A0F2DD
:104C9000F530471100F01F05C5F12000DDF848B0E0
:104CA00008900020069007900520EC467949002DD9
:104CB00007EB0002794408BF51F8221009D051F8DF
:104CC000223001EB8201AB404A68089922FA01F1D7
:104CD0001943A1FB0E26A1FB0B131A449A4234BFC1
:104CE0000123002303EB06080CEB8003D3E901A6A4
:104CF0000E448E4234BF0121002192448A4411B1F6
:104D0000924502D903E0924501D2012100E0002141
:104D1000C3E901A641444CF82010011EA0F1010096
:104D2000C4DC029800F10050850F0298DDE90367AA
:104D30008000DDF81480FBF72FFE41EC1A0B3046A3
:104D4000FCF7AFF99FED541B53EC112BFBF743FD20
:104D500041EC1B0B3846FCF7A4F99FED511B53ECBB
:104D6000112BFBF738FD41EC180B4046FCF799F985
:104D70009FED4D1B53EC112BFBF72DFD41EC190B57
:104D800051EC180B53EC192BFBF77EFC53EC1B2B4F
:104D9000FBF77AFC53EC1A2BFBF776FCCDE9080104
:104DA000002008909DED080B53EC1A2B51EC100BD2
:104DB000FBF70BFD53EC1B2BFBF707FD53EC182BFC
:104DC000FBF703FD53EC192BFBF702FD9FED381B9E
:104DD00053EC112BFBF7FFFC9FED370B41EC180B4D
:104DE00053EC102B9DED080B51EC100BFBF7F3FC73
:104DF00053EC182BFBF748FC9FED310B41EC180BE3
:104E000053EC102B9DED080B51EC100BFBF7E3FC62
:104E100053EC182BFBF738FC41EC100B139810F0F7
:104E2000004F06D06D4251EC100B81F0004141EC77
:104E3000100B284684ED000B41E600000000000046
:104E40000000000000000000FB21E93F7CD9024087
:104E500000004054FB21F93F3163621A61B4D03D38
:104E6000FB21F93F000000000000601A61B4D03D52
:104E70007370032E8A19A33BFB2139410000000007
:104E800083C8C96D305FE43F000000000000E03FD0
:104E9000CA49000018490000000000000000103E50
:104EA000000000000000103C000000000000103A6C
:104EB000182D4454FB21F93D3326A611460B113C15
:104EC00000000054FB21F93D70B504462DED028B26
:104ED0004D1E00EBC500B0EE408AF0EE608A90ED0A
:104EE000000B35F0060017D053EC182B51EC100BCB
:104EF000FBF771FC41EC100B6D1E04EBC50090ED4F
:104F0000001B51EC100B53EC112BFBF7BDFB41ECDC
:104F1000100B35F00600E7D1022D36D0042D1CD041
:104F2000062D1CBFBDEC028B70BD53EC182B51EC51
:104F3000100BFBF750FC94ED0A1B53EC112BFBF705
:104F4000A3FB53EC182BFBF746FC94ED081B53EC2A
:104F5000112BFBF799FB41EC100B53EC182B51EC88
:104F6000100BFBF738FC94ED061B53EC112BFBF7F1
:104F70008BFB53EC182BFBF72EFC94ED040B53EC3E
:104F8000102BFBF781FB41EC100B53EC182B51EC71
:104F9000100BFBF720FC94ED021B53EC112BFBF7DD
:104FA00073FB53EC182BFBF716FC94ED001B53EC32
:104FB000112BFBF769FBBDEC028B41EC100B70BDB4
:104FC000F1B506462DED040BBD482DED0C8B8AB0D6
:104FD000B0EE418AF0EE618A179D25F000449FED06
:104FE000BABB9FEDBBCB844208DA9DED160B51ECAA
:104FF000100BFBF7E2FC002800F0E980B64FA74257
:1050000031DC002D0DDA9DED160B51EC100B81F00B
:105010000041CDE9160151EC180B81F0004141EC43
:10502000180B9FEDAF0B53EC102B9DED160B51ECB5
:10503000100BFBF7CDFB53EC182B9FEDAB0BCDE921
:10504000040151EC100BFBF7C0FB41EC100B53ECCF
:10505000102B9DED040B51EC100BFBF715FB9FED96
:10506000A48BCDE916019DED160B53EC102B51ECE2
:10507000100BFBF7B0FBCDE904019DED040B53ECE5
:10508000102B51EC100BFBF7A6FB41EC190B9A48C7
:105090000621B0EE490AF0EE690A7844FFF714FFE2
:1050A0009648B0EE40DAF0EE60DAB0EE490AF0EE83
:1050B000690A06217844FFF707FF9DED041B51ECB8
:1050C000100B53EC112BFBF786FB9DED040B41EC11
:1050D0001A0B53EC102B9DED160B51EC100BFBF73C
:1050E0007AFB41EC190B53EC1A2B51EC1D0BFBF71F
:1050F000CBFA53EC192BFBF76EFB53EC182BFBF799
:10510000C3FA9DED041B53EC112BFBF764FB53EC2E
:10511000182BFBF7B9FA41EC180B9FED790B51EC0A
:10512000190B53EC102BFBF756FB53EC182BFBF72A
:10513000ABFA41EC190B9DED160B53EC192B51EC0E
:10514000100BFBF7A1FA41EC180BA74269DC3046C3
:10515000FBF722FC41EC1A0B51EC180B53EC1A2B09
:10516000FBF792FA41EC1B0B53EC182B51EC180B8C
:10517000FBF731FB53EC1B2BFBF79FFB53EC192B7D
:10518000FBF723FB9DED161B53EC112BFBF720FBCC
:105190009FED5D1B53EC112BFBF71DFB53EC1A2B02
:1051A000FBF716FB41EC180B022000EAA570C0F1DA
:1051B0000100FBF7F1FB53EC182BFBF70CFB00BFD6
:1051C00041EC100B0AB0BDEC0C8B05B0F0BD711CAE
:1051D0001698214308430CD09DED160B012E1CBFE1
:1051E00053EC102B51EC1C0B10D000BFFBF765FBF0
:1051F000E6E79DED160B51EC100B00F0E1FD41ECE4
:10520000100B51EC1B0B53EC102BEFE751EC100B78
:10521000FFF7A4FB042808BF00F0BEF89DED160BB5
:10522000D0E7012E04BFB0EE480AF0EE680AC9D0FC
:105230008DED048B002404949DED040B53EC102B96
:105240009DED160B51EC100BFBF7C2FA53EC192B2A
:10525000FBF7BEFA41EC190B53EC182B51EC1C0B6D
:10526000FBF72BFB41EC180B8DED008B00949DEDB3
:10527000040B53EC102B9DED000B51EC100BFBF7C6
:10528000AAFA53EC1B2BFBF7FFF99DED000B41EC49
:105290001A0B53EC192B51EC100BFBF79CFA53EC47
:1052A0001A2BFBF7F1F953EC182BFBF794FA9DED51
:1052B000001B53EC112BFBF7E7F981E7000000001E
:1052C0000000303E00000000000000000000F03F41
:1052D000000000000000F0BF2894E53F000000003F
:1052E000182D4454FB21E93F075C143326A6813C6A
:1052F0000000000000000000CA450000E04500007A
:10530000635555555555D53F00000000000000403D
:105310002DE9F04782460F4C10480D4E0E4F001BF2
:105320004FF0000820F007054FF001090022114658
:10533000504600F095FE002802D1306810B10020E0
:10534000BDE8F0873C60C4E90058C6F80090EDE77E
:1053500018010020B46E002014010020B078002055
:1053600010B553EC102B51EC100BFBF78DF941EC01
:10537000100B10BD000000009FED050B10B553ECA5
:10538000102B51EC100BFBF798FA41EC100B10BDF1
:1053900000000000000000009FED050B10B553EC6D
:1053A000102B51EC100BFBF716FA41EC100B10BD53
:1053B000000000000000001002E008C8121F08C131
:1053C000002AFAD170477047002001E001C1121F86
:1053D000002AFBD1704700000149086070470000B7
:1053E0001C010020F0B52548254900220160254810
:1053F0002549264B016040F2045180F8F0240B50FF
:105400004FEA020100EB8103491CC3F81424192957
:10541000F8D3002100EB8103491CC3F87824192933
:10542000F8D300214FF400734418491C22759942A7
:10543000FAD300214418491C84F814229942F9D364
:10544000C0F8102580F81425C0F81C2580F8082520
:105450000F48154C134BC0E903340EA78760104961
:1054600004620E4E01250160C0E90C653830034925
:105470000EA30261C0E90031F0BD0000D0000020A1
:1054800014980008FC550020E89700088897000849
:10549000285B002054776973740000008143000882
:1054A000D0970008589700087097000873746D5FD4
:1054B0007075626C697368002DE9FF5F82B000212E
:1054C000DDE90430020DDDF840B0034318D044F6A6
:1054D0001050A2F2FF3242431514119801281FD038
:1054E000A5EB0B00401C5FEA000A4FF000064E4F90
:1054F000DFF83891B046504615D5CAF1000413E0E4
:10550000119801244AA3012801D16FEA0B010298E6
:10551000119AC0E90031C0E9024206B0BDE8F09F2F
:10552000CBF10000DFE704460021404A491842EB76
:105530000450CDE9001012E0E00707D032463B46A8
:1055400040464946FBF747F98046894632463B4686
:1055500010461946FBF73FF906460F466410002C2B
:10556000EAD1DDE90401DDE90023BAF1000F06DA32
:10557000FBF731F942464B46FBF72DF905E0FBF707
:105580009CF942464B46FBF798F904460E4600222A
:10559000284BFBF769FB03D84FF0FF30014607E0CB
:1055A0000022254B20463146FBF76EF8FBF743FB04
:1055B000102409E0002C0ADB0A220023FAF762FE1D
:1055C000039B30321A55641E50EA0102F2D1641C6A
:1055D000039AC4F111031444119A012A03D0012241
:1055E00008430DD10AE0084304D000204FF0110B0E
:1055F000119072E7A3EB0B056D1E0DE05B4504DD1A
:105600004FF0000205F1010504E003DA4FF000025B
:10561000A5F10105002AECD002981199C0E90231E8
:10562000C0E9004579E70000000014400000F03FA9
:10563000300000000000F0430000E03F2DE9FF4F84
:1056400095B09B468946064600250FE2252877D16E
:1056500000242746F84A0121059400E0044316F887
:10566000013F203B01FA03F01042F7D130782A289D
:1056700011D06FF02F033078A0F13002092A16D82C
:10568000059A44F0020402EB820203EB420210444A
:10569000761C0590EFE759F8042B0592002A03DAEF
:1056A000504244F40054059044F00204761C3078D3
:1056B0002E2816D116F8010F44F004042A280DD024
:1056C0006FF02F023078A0F13003092B09D807EBD7
:1056D000870302EB4303C718761CF3E759F8047BF2
:1056E000761C30786C280FD006DC4C2817D0682840
:1056F0000DD06A2814D104E0742810D07A280FD174
:105700000DE044F400140AE044F4801401E044F491
:1057100040147278824202D104F58014761C761C03
:10572000307866280BD013DC582877D009DC0028A5
:1057300075D04528F6D04628F4D047281AD19DE1E7
:1057400018E0632835D0642879D0652812D195E116
:10575000702873D008DC6728F1D069286FD06E28D4
:105760000DD06F2806D1B5E073282CD0752875D0E0
:10577000782874D05A46179990476D1C75E1C4F388
:105780000250022809D003280DD0D9F800100428AF
:105790000DD00D6009F1040967E1D9F80010EA178E
:1057A000C1E90052F6E7D9F800100D80F2E70D705C
:1057B000F0E719F8041B8DF8001000208DF80100A7
:1057C000EA46012003E059F804AB4FF0FF306107CF
:1057D0004FF0000102D40DE008F101018846B94202
:1057E0000FDA8045F8DB1AF808100029F4D108E038
:1057F00008F1010188468142FADB1AF808100029F5
:10580000F6D105985B46A0EB080721463846179A63
:1058100000F094FA284400EB080507E04DE029E188
:105820000DE01AF8010B5A4617999047B8F1010894
:10583000F7D25B4621463846179A13E142E00A2226
:105840000092C4F302524FF0000A022A08D059F81D
:1058500004CB032A4FEAEC710AD00DE029E02AE0DC
:1058600009F1070121F00702F2E802C1914609E0BF
:105870000FFA8CFC4FEAEC71042A03D14FFA8CFC2E
:105880004FEAEC71002907DA0A460021DCF1000C2E
:1058900061EB02012D2202E0220504D52B228DF8B6
:1058A0000420012203E0E20701D02022F7E790461E
:1058B00059E00A2102E010220DE010214FF0000A09
:1058C00000910BE010224FF0000A44F00404082776
:1058D000009203E008224FF0000A0092C4F3025243
:1058E000022A05D059F804CB0021032A08D009E088
:1058F00009F1070121F00702F2E802C1914605E033
:105900001FFA8CFC042A01D10CF0FF0C4FF00008A8
:10591000220728D5702806D0009B83F0100353EA95
:105920000A0305D00EE040228DF80420012208E091
:105930005CEA010206D030228DF804208DF80500C3
:1059400002229046009B83F0080353EA0A030AD11F
:105950005CEA010201D1620705D530228DF80420EE
:105960004FF001087F1E582804D034A003900EA8E1
:1059700002900DE036A0F9E753466046009AFAF728
:1059800081FC84460398825C0298401E029002705B
:105990005CEA0100F0D1029806A9081A00F1200A79
:1059A000600702D524F4803400E00127574502DD6A
:1059B000A7EB0A0000E0002000EB0A010090059828
:1059C0004144401A0590E00306D45B462146179AED
:1059D000059800F0B3F90544002706E001A85A46EF
:1059E000C05D179990476D1C7F1C4745F6DBE003AF
:1059F0000CD55B462146179A059800F09FF905449F
:105A000004E030205A46179990476D1C0099481EB3
:105A100000900029F5DC08E0029802995A460078C7
:105A2000491C0291179990476D1CBAF10001AAF127
:105A3000010AF1DC65E10000092801003031323350
:105A400034353637383961626364656600000000BA
:105A500030313233343536373839414243444546A4
:105A60000000000000F058F90544761C307800284A
:105A70007FF4ECAD19B02846BDE8F08F620700D482
:105A8000062709F1070222F0070CFCE80223E14691
:105A900003F000485FEA080C02D00FF2702C0DE012
:105AA0005FEA045C02D50FF2682C07E05FEAC47C71
:105AB00002D00FF2602C01E0AFF2700C4FF0FF3813
:105AC00023F00043CDF850C065280CD006DC4528F3
:105AD00009D046281DD047283DD13DE0662818D082
