:020000040800F2
:100000006885002061020008873D0008E92F00088C
:10001000853D0008E110000831450008000000009F
:10002000000000000000000000000000A101000826
:100030001512000800000000FD010008313E000814
:100040007B0200087B0200087B0200087B0200089C
:100050007B0200087B0200087B0200087B0200088C
:100060007B0200087B0200087B0200081D110008CB
:10007000291100087B020008351100087B020008E6
:10008000411100084D1100087B0200087B020008A6
:100090007B0200087B0200087B0200087B0200084C
:1000A0007B020008FD3E00087B0200087B0200087E
:1000B0007B0200087B0200087B0200081130000868
:1000C0007B0200087B0200087B0200087B0200081C
:1000D0007B020008E94400080145000819450008B2
:1000E0007B0200087B0200087B0200087B020008FC
:1000F0007B0200087B0200087B0200087B020008EC
:100100007B0200087B0200087B0200087B020008DB
:100110007B0200087B020008093F00087B02000800
:100120007B0200087B020008591100087B020008CE
:100130007B0200087B0200087B0200087B020008AB
:100140007B0200087B0200087B0200087B0200089B
:100150007B0200087B020008651100087B02000892
:100160007B0200087B0200087B0200087B0200087B
:100170007B0200087B0200087B02000800000000F0
:100180007B0200087B020008DFF810D000F096FD2B
:1001900000F06AFA00480047A97500086885002049
:1001A0002C4B19680868B0E8F04F80F30988BFF35A
:1001B0006F8F4FF0000080F311887047000000003F
:1001C00008480068006880F308884FF0000080F35A
:1001D000148862B661B6BFF34F8FBFF36F8F00DF35
:1001E00000BF00BF08ED00E0DFF80C00016841F43B
:1001F00070010160704700BF88ED00E0EFF30980F7
:10020000BFF36F8F134B1A681EF0100F08BF20ED5D
:10021000108A20E9F04F106009B44FF0500080F3CD
:100220001188BFF34F8FBFF36F8F09F073FA4FF050
:10023000000080F3118809BC19680868B0E8F04F25
:100240001EF0100F08BFB0EC108A80F30988BFF3CE
:100250006F8F70472C000020EFF30580704700007F
:100260000648804706480047FEE7FEE7FEE7FEE750
:10027000FEE7FEE7FEE7FEE7FEE7FEE7E13E0008F9
:10028000890100082DE9F05F0546002092469B4653
:1002900088460646814640241BE02846414647469C
:1002A000224600F0E1FB53465A46C01A914110D352
:1002B00011461846224600F0C8FB2D1A67EB0108CC
:1002C0004F4622460120002100F0BFFB17EB00093A
:1002D0004E41201EA4F10104DFDC484631462A4687
:1002E0004346BDE8F09F40EA01039B0703D009E0C5
:1002F00008C9121F08C0042AFAD203E011F8013B12
:1003000000F8013B521EF9D27047D2B201E000F86A
:10031000012B491EFBD270470022F6E710B51346A9
:100320000A4604461946FFF7F0FF204610BD30B5D7
:1003300005462A460B4612F8010B13F8014B08B18B
:10034000A042F8D01CB1002802D06D1CF1E728466D
:1003500030BDCAB2401E10F8011F8A4202D00029E7
:10036000F9D100207047421C10F8011B0029FBD175
:10037000801A704710B5002200E0521C835C8C5C30
:10038000A34201D1002BF8D1D8B2E1B2401A10BD7E
:10039000034611F8012B00F8012B002AF9D1184669
:1003A0007047000070B50F4D00B92868002412E0B6
:1003B0000A4602E09E4203D0521C1378002BF9D16A
:1003C000DAB2224305D02BB124B1002100F8011B81
:1003D00004E00446401C0678002EE9D1286020463F
:1003E00070BD0000100100200FB400B58DB010A941
:1003F00009900B9000914FF0FF300A9000200C9074
:1004000005480690054807906A4609A80F9900F02C
:1004100061FB0DB05DF814FBF10A00080F0B00083A
:100420002DE9FF5F1D464FF0FF3BD5E901469146A0
:100430005F464FF00008A9697F1C01988847296A28
:10044000824688470028F6D1BAF1FF3F0CD024F449
:10045000C064002E19DD600614D5BAF12B0F09D047
:10046000BAF12D0F0ED103E0584604B0BDE8F09F5D
:1004700044F48064A9697F1C01988847761E8246EF
:10048000002E02DDBAF1300F03D0B9F1000F26D0F3
:1004900032E0A969761E44F400747F1C01988847F5
:1004A0008246002E05DDBAF1780F06D0BAF1580F5A
:1004B00003D0B9F1000F10D01EE0B9F1000F02D047
:1004C000B9F1100F18D1A969761E24F400747F1CAD
:1004D000019888478246102002E0082000E00A20A8
:1004E000814609E008FB0908A969761E44F40074F6
:1004F0007F1C019888478246002E05DD49465046FC
:1005000000F0D4FA0028EDDAE96901988847A005DF
:1005100002D46FF00100A8E7E00725D1600613D5EB
:10052000600502D5C8F1000000E0404629680A1DB8
:100530002A600968220501D5087015E0220701D557
:10054000088011E008600FE02868011D296000683C
:10055000210502D580F8008006E0210702D5A0F829
:10056000008001E0C0F8008038467EE72DE9FF5F9B
:10057000D2E901A74FF00008916999461446DDF8C9
:1005800038B0464601988847054659EA0B0005D021
:1005900009E0A169761C019888470546216A28462A
:1005A00088470028F5D1681C03D05FEACA7005D0DF
:1005B00015E04FF0FF3004B0BDE8F09F2068011D4A
:1005C0002160D0F800800AE05FEACA7001D108F823
:1005D000015BA169761C7F1E019888470546002FA4
:1005E0001ADD681C18D0B9F1000F0DD0E81705EB23
:1005F000D060421120F01F0059F822102A1A012061
:1006000090400142E0D107E0BBF1000FDCD1216A4C
:10061000284688470028D7D0E16901988847BBF170
:10062000000F07D1002E05DD5FEACA7002D100215C
:1006300088F80010A068B84203DDBBF1000F03D0BA
:1006400017B16FF00100B6E73046B4E770B5064663
:1006500005F094FB046805460A220021304600F0AC
:1006600067FA2C6070BD000070B5054C054D03E0C5
:10067000206820448047241DAC42F9D170BD0000A1
:100680002CB3000830B300082DE9FE4F804681EA04
:100690000300C00F0C46009021F0004123F00045FC
:1006A000B8EB0200A94105D24046214690461C46BF
:1006B0000B46024623F00040104347D0270DC7F3F6
:1006C0000A00C3F30A510290401A019040286BDAE5
:1006D000C3F3130040F4801B0098924620B100231E
:1006E000D2EB030A63EB0B0B01985946C0F14002B1
:1006F000504600F0AAF906460D4650465946019A62
:1007000000F0C2F910EB08006141002487EA1152A1
:1007100084EAE7731A4340D0009A62B3019A012A2F
:100720004FEA075215DC001B61EB02014FF000425B
:1007300002EA0752CDE90042001C41F58011324621
:100740002B4600F03CFA03B0BDE8F08F404621464E
:10075000F9E7001B61EB0201001C41F58013001852
:100760005B412018A2F5001747EB030140EAD57062
:10077000B6196D4111E06D084FEA360645EAC075BD
:100780004FEA0752001B61EB0201001C41F580118A
:1007900049084FEA30000019514132462B4603B058
:1007A000BDE8F04F00F0FCB90098012240000023A2
:1007B000D0EB020263EBE073009821464FEAE0744D
:1007C000B8EB000061EB0401E9E783F000435BE76D
:1007D00081F0004158E72DE9FE4F81EA030404F05F
:1007E000004421F0004100944FF0000B23F000433F
:1007F00050EA01045ED052EA03045BD0C3F30A540A
:10080000C1F30A552C44A4F2F3340194A0FB025422
:10081000C1F3130141F48011C3F3130343F48013B4
:1008200001FB024400FB034E840A970A44EA815408
:1008300047EA8357A4FB076802958D0A05FB0785E5
:100840004FEA932C04FB0C542705029D4FEA0658EF
:1008500047EA1637B5EB08056EEB070C870E920ECC
:1008600047EA811742EA8312A7FB0201B6EB0B01AC
:1008700064EB00042B0D43EA0C335E1844EB1C5070
:10088000DA465146E7FB0201C5F313044FEA0B3386
:1008900043EA14534FEA0432019C43EA0603A4F1ED
:1008A0000C040294009CCDE900B400F088F903B078
:1008B000BDE8F08F00200146F9E72DE9F04D81EA0F
:1008C000030404F0004B21F0004514464FF0000AE9
:1008D00023F0004150EA050220D054EA01021DD065
:1008E000C5F30A570246C5F31303C1F31300C1F35E
:1008F0000A5640F4801543F48013A7EB0608101B3A
:10090000D64608F2FD3873EB050002D308F1010862
:1009100001E092185B41B8F1000F03DA00200146B4
:10092000BDE8F08D00204FF48011064684460EE0AD
:10093000171B73EB050705D3121B63EB0503064377
:100940004CEA010C49084FEA300092185B4150EA2A
:100950000107EDD152EA030012D082EA040083EAD3
:100960000501084305D0101BAB4106D2012200232C
:1009700006E000224FF0004302E06FF00102531046
:100980001AEB06004CEB085110EB0A0041EB0B018F
:10099000BDE8F04D00F004B90EB5C10F80EAE0707B
:1009A0000844CA07002140F233438DE80E000A468E
:1009B0000B4600F004F903B000BD70B5C1F30A5254
:1009C00001F000450024C1F3130140F2FF3341F46C
:1009D00080119A4201DA002070BD40F233439A42FE
:1009E000A2F2334203DC524200F03EF800E09040B5
:1009F0002C43F1D0404270BD00F0004230F0004086
:100A00000AD0C10D01F56071C0F3160042EA015130
:100A1000C20840071143704700200146704730B5B7
:100A20000B46014600202022012409E021FA02F5AC
:100A30009D4205D303FA02F5491B04FA02F5284446
:100A4000151EA2F10102F1DC30BD202A04DB203AA0
:100A500000FA02F1002070479140C2F1200320FA11
:100A600003F3194390407047202A04DB203A21FA0F
:100A700002F00021704721FA02F3D040C2F12002B7
:100A80009140084319467047202A06DBCB17203ACD
:100A900041FA02F043EAE07306E041FA02F3D04083
:100AA000C2F1200291400843194670473A2800D20B
:100AB000303820F02002412A01D3A2F137008842C9
:100AC00001D34FF0FF307047026811441378016082
:100AD00018467047D16004495161044911620021F0
:100AE0001161114600F00AB9C90A0008E90C0008B2
:100AF000426842B1016811F8013B23B1521EC0E9BE
:100B00000012184670470121C160881E7047426874
:100B10005AB1C368016843B983688B4205D0491E46
:100B2000521CC0E90012002070474FF0FF307047A0
:100B30002DE9F04791460F4680460446002614F8FA
:100B4000015B2DB100F0CCF80068405DC007F6D124
:100B50002B2D02D02D2D18D0641E4A463946204632
:100B600000F062FA27B13968A14201D1C7F80080CC
:100B700071054FF002040BD54042002803DD05F05B
:100B8000FDF80460A007BDE8F08746F48066E4E75E
:100B90000028F8DA05F0F2F804606FF00040F2E7A0
:100BA00010B5141E73F1000408DA401C41F1000175
:100BB00092185B411A4301D120F0010010BD2DE9CC
:100BC000F04D92469B4611B1B1FA81F202E0B0FAC3
:100BD00080F220329046FFF738FF04460F4640EA85
:100BE0000A0041EA0B0153465A46084313D0114606
:100BF00053EA010019D0C8F140025046FFF734FF14
:100C000005460E46504659464246FFF71EFF08432A
:100C100005D0012004E020463946BDE8F08D0020D3
:100C2000054346EAE0762C4337430A986305E40A15
:100C3000A0EB08000022FD0A44EA47540A3002D51E
:100C400000200146E9E7010510196941DDE9084581
:100C500000196941BDE8F04DA2E7C1F30A52C1F3A2
:100C6000130140F2FF3341F480119A4202DA00206E
:100C70000146704740F233439A42A2F2334202DC0B
:100C80005242FFF7F1BEFFF7E0BE000030B5041E90
:100C900071F1000404DB4FF00044404264EB0101B9
:100CA000141E73F1000405DB1C464FF00043524252
:100CB00063EB0403994208BF904230BD064C074DD8
:100CC00006E0E06840F0010394E80700984710341C
:100CD000AC42F6D3FFF75CFABCB20008DCB2000805
:100CE00000487047CCAD000810B50446FFF7F8FF88
:100CF0000068005D00F0010010BD00002DE9F34F19
:100D00008BB04FF0000801F10C000C464FF0010BC6
:100D100046460DF1080A0190626901210198904749
:100D2000051E2DD0252D2CD0216A8847C0B16269BF
:100D3000012101989047216A88470028F7D1411E78
:100D400062690198904700E0761CA1690B9888477A
:100D5000216A88470028F7D1E1690B988847DBE7CB
:100D6000A1690B9888470746A84201D1761CD3E7B2
:100D7000E1690B9888477F1C02D1B8F1000F6FD052
:100D800046E1002762693D463946019890472A2886
:100D900004D162690121019890470125DFF884920E
:100DA0006269012101989047A0F130010A290AD215
:100DB0004F45E5DC07EB870100EB4107303FDFD40F
:100DC00045F01005ECE7E90601D46FF000476C2808
:100DD0000AD04C2814D0682815D06A280DD0742861
:100DE0001CD07A281AD01DE0626901210198904731
:100DF0006C2802D045F0040514E045F002050DE032
:100E000045F020050AE062690121019890476828B1
:100E100002D045F0080505E045F40065626901214E
:100E200001989047C4E9015765283DD019DC58283E
:100E30007AD00CDC452837D004DC252826D0412880
:100E400031D131E046282FD047282CD12CE05B2827
:100E500077D0612828D063287CD0642823D15AE039
:100E6000D0E06F2848D008DC66281DD067281BD04A
:100E7000692821D06E2816D127E0702845D0732824
:100E800068D0752847D078280DD14DE0A1690B981E
:100E90008847054625283FF469AFE1690B988847E4
:100EA0006D1C3FF46AAFB3E023466A466FF0010061
:100EB0000B99AFF300809EE045F040006060A8070A
:100EC00023464FF0000236D43EE0E8077FF447AFF8
:100ED0002068011D21600068290501D506701BE707
:100EE000290701D5068017E7A90703D5F117C0E93F
:100EF000006111E706600FE745F040006060A80759
:100F000023464FF0080216D41EE040F60E0125EAF3
:100F10000100606016E045F040006060A8072346CD
:100F20004FF00A0207D40FE045F040006060A807C8
:100F300008D5234610226FF001000B99AFF3008013
:100F400059E007E0234610226FF001000B99FFF7EC
:100F500067FA50E04FF000094F464B46632802D035
:100F60005B2806D040E0E80601D40120A0600127FC
:100F70003AE062690121019890475E2805D14FF05F
:100F800001096269494601989047216939B90021F0
:100F90000A46534643F82120491C0829FADBB0B31E
:100FA000216969B9C11700EBD16253110AEB8301C2
:100FB00022F01F02821A01200B68904003430B604D
:100FC00062690121019890475D28E8D1B9F1000FCD
:100FD00009D00020514651F82020D24341F820206A
:100FE000401C0828F7DB02AB224600976FF0010097
:100FF0000B99FFF7BBFA00280CDA401C08D1BBF1B3
:10100000000F05D04FF0FF300DB0BDE8F08FFFE7C7
:101010004046F9E7E90701D108F1010806444FF01D
:10102000000B79E6CCCCCC0C2DE9F05F8246007841
:10103000002715468B460AF10104B946302801D035
:101040009DB113E014F8010B0127782803D058282C
:1010500001D045B10AE00DB1102D07D100271025B0
:1010600014F8010B02E0082500E00A250026B0462E
:101070000EE005FB080005FB06F1012701EB104619
:101080001FFA80F8B6F5803F00D3B94614F8010B7B
:101090002946FFF70BFD0028EBDABBF1000F05D066
:1010A0000FB1641E00E05446CBF80040B9F1000FC8
:1010B00006D004F063FE02210160C81EBDE8F09F67
:1010C00048EA0640FAE70EB540F2334102910021AA
:1010D000CDE900110A460B46FFF771FD03B000BDD4
:1010E000FEE702F097BB000000B599B06422084902
:1010F0006846FFF7F8F800F057FB03466A4605A17B
:10110000104604F0FFFD684607F0AEF919B000BDC7
:1011100074AA000825733A2564000000014800F015
:10112000D7B8000078010020014800F0D1B80000D5
:1011300058050020014800F0CBB80000B805002099
:10114000014800F0C5B8000098040020014800F0F4
:10115000BFB80000F8040020014800F0B9B8000052
:10116000D8030020014800F0B3B800003804002084
:1011700001681823CAB2103AB2FBF3F2054B6FF3C1
:101180000901032A9B5CC36500D9091D81650846D6
:1011900070470000D8AA000810B5014600208B69EE
:1011A0008A6A4FF0C07453B1B3F5005F15D072B1C5
:1011B000012A0CD0022A0AD0032A09D104E01AB16C
:1011C000012A06D0022A03D1C96AC90100D501202B
:1011D00010BDC96AA142FAD010BD002AF7D0012A79
:1011E000F2D0022AF3D0032AF3D010BD30B5046840
:1011F000256825F480252560046863608368402B9A
:10120000036803D099600068C26030BD9A600068CE
:10121000C16030BD704770472DE9F0410446876DCD
:1012200000F0C2FA064694F835000025022806D0E0
:101230008020606584F834500120BDE8F08120688A
:10124000016821F0160101602068416921F08001E8
:101250004161206C08B9A06C20B12068016821F0C0
:10126000080101602068016821F0010101600BE0C4
:1012700000F09AFA801B052806D92020606504F842
:10128000345F03206070D8E720680068C007EFD1A2
:1012900094F85C103F208840B86004F8345F012067
:1012A00060700020C9E790F83510022903D0802132
:1012B000416501207047052180F8351000680168FC
:1012C00021F0010101600020704790F8350070475F
:1012D0002DE9F84304464FF00009CDF8009063482B
:1012E0004FF41651A56D0068B0FBF1F72E6894F825
:1012F0005C10082000FA01F131420FD021680A6821
:1013000052070BD50A6822F004020A6094F85C10B8
:101310008840A860606D40F00100606594F85C1042
:101320004FF0010808FA01F0304208D021684969FD
:10133000090604D5A860606D40F00200606594F86D
:101340005C1004208840304208D021680968890771
:1013500004D5A860606D40F00400606594F85C10EE
:1013600010208840304218D021680968090714D538
:10137000A86020680168490304D50068000308D507
:10138000A16C07E00168C90503D4016821F00801D8
:101390000160216C09B12046884794F85C10202038
:1013A0008840304231D021680968C9062DD5A8602F
:1013B00094F8350005282068016806D0490347D510
:1013C000006800031DD4616C1CE021F0160101606F
:1013D0002068416921F080014161206C08B9A06C4E
:1013E00020B12068016821F00801016094F85C10C8
:1013F0003F208840A86084F8349084F83580216DBF
:101400001FE0E16B09B120468847606D00282BD0B2
:10141000606DC00714D0052084F83500206801688D
:1014200021F0010101600098401C0090B84203D8EF
:1014300020680068C007F6D184F8349084F83580BD
:10144000E16C002910D001B02046BDE8F043084708
:101450000168C905D5D4016821F01001016084F844
:10146000349084F83580CCE7BDE8F883280000206C
:101470002DE9F041044600F097F906465CB10025DD
:1014800084F83450022084F835002068016821F087
:10149000010101600DE00120BDE8F08100F084F958
:1014A000801B052805D920206065032084F83500BD
:1014B000F2E720680068C007F0D122681168204870
:1014C0000140D4E901031843D4E9033633431843F8
:1014D00063691843A3691843E3691843236A1843EF
:1014E0000843616A042903D1D4E90B131943084363
:1014F000106020684069666A20F0070130460E439C
:10150000012704280CD1A06A0643E06A40B12046B6
:10151000FFF742FE20B14020606584F83570BAE7DD
:10152000206846612046FFF723FE94F85C203F21A7
:1015300091408160656584F835700020ACE700005B
:101540003F8010F02DE9F0410446866D90F834009C
:10155000002501280DD0012084F8340094F835705E
:101560000020012F07D084F8340002252846BDE86A
:10157000F0810220FBE7022784F835706065204681
:10158000FFF734FE94F85C103F208840B06020687C
:10159000016841F016010160206C20B120680168EB
:1015A00041F0080101602068016841F0010101601B
:1015B000DCE7000070B5044600F0F6F80546601C54
:1015C00002D004480078044400F0EEF8401BA0422A
:1015D000FAD370BD1C0000202DE9F84F00224FF017
:1015E000010803254FF00F0E0B6808FA02F42340A0
:1015F000A3426ED14E68012E05D0022E03D0112ECB
:1016000001D0122E12D186684FEA420C05FA0CF76F
:10161000BE43CF6807FA0CF7374387604668A64396
:101620000C79C4F30014944034434460C6685700F6
:1016300005FA07FC8C6826EA0C06BC403443C460FB
:101640004C68022C01D0122C13D1D40800EB840476
:10165000A346D4F8209054074FEAD46A0EFA0AF64B
:1016600029EA06090E6906FA0AF646EA0906CBF8DF
:10167000206006680C7926EA0C0604F00304BC40DE
:10168000344304604C68E40065D5364C266846F463
:1016900080462660246822F0030604F48044009407
:1016A000314C3444A446D4F808489607370F0EFA54
:1016B00007F6B4432D4EB04201D1002624E02C4E53
:1016C000B04201D101261FE02A4EB04202D10226CB
:1016D0001AE040E0284EB04201D1032614E0274E24
:1016E000B04201D104260FE0254EB04201D10526BB
:1016F0000AE0244EB04201D1062605E0224EB04257
:1017000001D1072600E00826BE402643CCF8086831
:101710001E4E34684F689C43FF0300D51C43346061
:101720001A4C241D26684F689E43BF0300D51E43F4
:101730002660164E083634684F689C43FF0200D579
:101740001C433460114E0C3634684F689C43BF0212
:1017500000D51C433460521C102AFFF445AFBDE88D
:10176000F88F000044380240003001400000024081
:101770000004024000080240000C02400010024039
:101780000014024000180240001C0240003C0140CE
:10179000426931EA020200D10904816170470AB14D
:1017A000816170470904FBE70148806870470000C9
:1017B0001C000020704770472DE9F04102680024AA
:1017C0005168C56A90F83E3090F83D60102B1CD0EF
:1017D000402B1AD0036C002B7ED053694FF02805A4
:1017E000DB439F0779D4CF43BF0576D4016C01B1A9
:1017F000946990F83D3000219D430B467FD0C91E6F
:10180000516180F83C30BDE8F081946953694FF430
:101810002A07DB435FEAC37C4FF02A4604D0BD426F
:10182000F1D0B542EFD010E0CD43AD050DD4C16A83
:10183000B94201D1012103E0C16AB14201D10821BD
:10184000C162BDE8F04101F0BBBE1D0716D4CD4317
:10185000AD0513D4416CC9B21161416B11B9826BF2
:10186000002AD0D0C96B19B9816BC96B0029CAD0C5
:101870000068416841F400614160C4E79D0706D4F7
:10188000CD43AD0503D4BDE8F04101F00DBEE44306
:10189000526864074FEA025215D4002AB3DB1A06D5
:1018A00008D4CA43520505D45A0705D5BDE8F0410E
:1018B00001F09EBD5A07A6D4C9438905A3D4BDE84B
:1018C000F04101F04BBD002A9DDB5A060CD4CA43FF
:1018D000520509D45A0702E00FE023E00FE005D5D6
:1018E000BDE8F04101F0F1BC5A078CD4C943890529
:1018F00089D4BDE8F04101F07FBC94696DE755687B
:1019000025F480655560E243540700D50121120695
:1019100001D5828900E0028B80F83C3092B2FFF75B
:101920004AFF70E7DC0606D4CC43A40503D4BDE827
:10193000F04101F0C1BE212E27D0292E25D05C0612
:1019400055D4CC43640552D45B0752D590F83D1072
:10195000438D002B91D01269436A1A70426A521C5F
:101960004262428D521E4285428D002A85D12A292B
:10197000D7D101684A6822F480624A60222101635B
:1019800080F83D5000F068F93DE71C0623D4CC43B5
:10199000640520D45B0720D590F83D10438D002BC3
:1019A000BFD0436A1B781361426A521C4262428D67
:1019B000521E4285428D002AB3D12929B1D1016836
:1019C0004A6822F480624A602121016380F83D5018
:1019D00000F043F917E75B07A3D4C9438905A0D4F6
:1019E000418D00299DD0416A097811610AE05B07A9
:1019F00097D4C943890594D4418D002991D01169A8
:101A0000426A1170416A491C4162418D491E4185FB
:101A1000F9E6704770B5040025D094F83D00002524
:101A200020B984F83C50204600F0BEF8242084F809
:101A30003D002068016821F0010101602068016813
:101A400041F4004101602068016821F40041016017
:101A500000F076FA4D4A6168914201D84C4900E0A5
:101A60004C49884201D2012070BD4B492368B0FB2C
:101A7000F1F15E6826F03F060E435E6063689342B4
:101A800006D94FF4967359434FF47A73B1FBF3F1CF
:101A90002368491C1E6A26F03F06314319626168BB
:101AA000914210D84900401EB0FBF1F2521CC2F323
:101AB0000B02042A01D2042022E0B0FBF1F0401C0A
:101AC000C0F30B001CE0A268F2B301EBC10303EB0F
:101AD0000116431EB3FBF6F35B1C43F480431B0566
:101AE00049D092B301EBC10202EB0111401EB0FBE1
:101AF000F1F0401CC0F30B0040F4804040F4004083
:101B00002168CA694CF6FF739A431043C861D4E94F
:101B1000071001432068026822F0C00211430160EF
:101B2000D4E9030101432068826848F2FF339A43F5
:101B300011438160D4E9050108432168CA6822F095
:101B4000FF021043C86001E00EE016E02068016863
:101B500041F0010101602564202084F83D002563E7
:101B600084F83E50002070BD01EB4106431EB3FBDC
:101B7000F6F35B1CB3E70120C2E701EB4101401E15
:101B8000B0FBF1F0401CC0F30B00B7E7A0860100EA
:101B900080841E0000093D0040420F0070477047DE
:101BA000704770477047000070B586B00646142134
:101BB0006846FEF7B1FB23493068884240D122488D
:101BC0000025016841F0020101600068694600F0EB
:101BD00002000590C0200090122001900120029088
:101BE00003200390042004901848FFF7F5FC1648E2
:101BF0001030016841F4001101600068154C00F4D8
:101C000000100590124820604005C4E90105C0138A
:101C1000C4E9035080106561C4E90650256220467E
:101C20006562FFF725FC08B1FFF7F5FAB4630022FF
:101C300005211F20A66300F097F81F2000F086F80A
:101C400006B070BD0054004030380240000402402D
:101C50001060024078010020704770470248816898
:101C600002781144816070471C0000200B4810B5B9
:101C7000016841F400710160016841F48061016014
:101C8000016841F480710160032000F08DF80020AC
:101C900000F006F800F03EF8002010BD003C0240C5
:101CA00010B5014688B00022192000F05DF8192017
:101CB00000F04CF813480024016841F00101016074
:101CC000006805A900F001000690684600F018F9C8
:101CD00000F046F90C494000B0FBF1F10C480B4A0A
:101CE000491E026040F2E732C0E90324C0E9011452
:101CF00000F06EFB10B1012008B010BD044800F0E8
:101D0000A1FBF9E74438024040420F0000000140C7
:101D1000180600200C4882B0016841F4804101603F
:101D2000006800F4804000900748001F016841F0FF
:101D3000805101600068002200F0805000900F2167
:101D4000901E02B000F010B844380240002809DBB1
:101D500000F01F02012191404009800000F1E020C5
:101D6000C0F8001170470000F0B40E4B1B680C4621
:101D7000C3F30223C3F10705042D00D90425191D5F
:101D8000072901D2002300E0DB1E012606FA05F137
:101D9000491E214099409E40761E16403143F0BCBA
:101DA00003F0DCBF0CED00E0064900F00702086814
:101DB0004FF6FF03184040EA0220034A1043086030
:101DC000704700000CED00E00000FA052DE9F04737
:101DD0000E46050065D0DFF81481D8F80000F7B290
:101DE00000F00F00B04207D288F80070D8F8000069
:101DF00000F00F00B04254D128683D4C810712D545
:101E0000400703D5206840F4E050206028780007A0
:101E100003D5206840F4604020602068A96820F065
:101E2000F000084320602878C0072DD0304968684A
:101E30000839012812D0022813D0032811D00968CC
:101E4000890700292DDA216821F00301014321606F
:101E5000FFF7AAFC814641F2883A0EE0096889033F
:101E6000EFE709688901ECE7FFF79EFCA0EB0901A9
:101E7000514502D90320BDE8F0872068696800F069
:101E80000C00B0EB810FEFD1D8F80010404601F004
:101E90000F01B14207D90770006800F00F00B0428F
:101EA00001D00120E7E72878400705D52068E968D8
:101EB00020F4E050084320602878000706D5206809
:101EC000296920F4604040EAC100206000F058F821
:101ED0002168084AC1F30311515CC84006490860F3
:101EE00006480068FFF7DCFE0020C4E7003C024023
:101EF00008380240E0AA0008280000202000002046
:101F00000F2202600C4A136803F003034360136856
:101F100003F0F0038360136803F4E053C3601268B6
:101F20004FF4E05303EAD20202610448006800F073
:101F30000F0008607047000008380240003C024073
:101F40000448054900680968044AC1F38221515CCC
:101F5000C84070472800002008380240F0AA000856
:101F60000448054900680968044AC1F34231515CDC
:101F7000C84070472800002008380240F0AA000836
:101F8000154810B5006810F00C02144813D0411029
:101F9000042A0FD0082A0ED10F4C241F2268236870
:101FA00002F03F025B0207D52068C0F38810A0FB57
:101FB000010106E0084610BD2168C1F38811A1FBAC
:101FC00000010023FEF75EF92168C1F30141491CBD
:101FD0004900B0FBF1F010BD083802400024F400C5
:101FE0002DE9F84F04006ED02078DFF83C93C0074D
:101FF000A9F104054AD009F104000168C1F3810187
:10200000012908D00068C0F3810002280AD1D9F85C
:102010000000400206D52868800337D56068002894
:10202000E1D033E06068B0F5803F10D0B0F5A02F6C
:10203000286810D020F480302860286820F48020A0
:1020400028606068A8B1FFF7AFFB06460DE028687E
:1020500040F48030F4E740F480202860F7E700BFC8
:10206000FFF7A2FB801B642873D828688003F7D58C
:102070000CE0FFF799FB064605E000BFFFF794FB75
:10208000801B6428F0D828688003F7D42078DFF814
:102090009C8280074FF0000A3ED5A348001D0168CE
:1020A00011F00C0F08D00068C0F3810002280BD19A
:1020B000D9F80000400207D42868800716D5E068E8
:1020C000012800D112E02BE1E068B8B10120C8F886
:1020D0000000FFF769FB064605E000BFFFF764FB61
:1020E000801B0228C0D828688007F7D52868216996
:1020F00020F0F80040EAC10028600DE0C8F800A018
:10210000FFF752FB064604E0FFF74EFB801B022858
:102110001FD828688007F7D42078000722D5824E80
:1021200083486169703671B101210160FFF73CFBA2
:10213000074604E0FFF738FBC01B022809D83068C7
:102140008007F7D50EE0C0F800A0FFF72DFB07468B
:1021500005E082E0FFF728FBC01B02287DD830682D
:102160008007F7D42078400768D5DFF8BCB1002796
:102170000BF13C0BDBF80000C0000BD4DBF80010C7
:1021800041F08051CBF80010DBF80000012700F08F
:1021900080500090674E3068C00510D4306840F41D
:1021A00080703060FFF700FB009005E0FFF7FCFA5D
:1021B0000099401A022850D83068C005F6D55A4E0A
:1021C000A0686C3601280FD00528306810D020F0A8
:1021D00001003060306820F004003060A068B8B1C1
:1021E000FFF7E2FA00900FE0306840F00100F4E7FA
:1021F00040F004003060F7E7FFF7D6FA0099411A83
:1022000041F28830814266D830688007F4D50EE00C
:10221000FFF7CAFA009007E0FFF7C6FA0099411AE3
:1022200041F28830814256D830688007F4D42FB10B
:10223000DBF8001021F08051CBF80010A069C8B382
:102240003949091D0968C1F3810102294AD00228D0
:10225000504607D0C8F8600000E03CE0FFF7A4FA61
:1022600004463BE04746C8F86000FFF79DFA064683
:1022700005E000BFFFF798FA801B02282BD82868DA
:102280008001F7D4D4E907010843A16A2A4A490822
:1022900002EB0141626A41EA8211084394F82C1072
:1022A00040EA0161C9F8001001203866FFF77CFAA6
:1022B000044606E036E000BFFFF776FA001B02286E
:1022C00009D828688001F7D52CE000BFFFF76CFA29
:1022D000001B022802D90320BDE8F88F286880017E
:1022E000F4D41FE00128F7D0D9F80000E26900F427
:1022F0008001914214D1226A00F03F0191420FD136
:1023000047F6C071626A0140914209D1A26A00F4A5
:102310004031914204D1E16A00F07060884201D0FE
:102320000120D9E70020D7E70438024000004742E7
:10233000800E4742007000400000FFFF704770476A
:1023400070B590F83C20012A32D0012480F83C403E
:10235000022280F83D2003685A689D6822F07006CA
:102360000A6832435A60134B02689A4214D0B2F1A1
:10237000804F11D0104B9A420ED0104B9A420BD086
:102380000F4B9A4208D00F4B9A4205D00E4B9A42FF
:1023900002D00E4B9A4204D1496825F080031943BC
:1023A000916080F83D40002180F83C10084670BDE7
:1023B000022070BD00000140000400400008004001
:1023C000000C0040000401400040014000180040A3
:1023D00010B5040003D094F83D0010B107E00120CF
:1023E00010BD002084F83C00204600F00DF80220CB
:1023F00084F83D00211D206801F08CFD012084F847
:102400003D00002010BD000008B500680B4988425F
:1024100012D10B48016841F01001016000680022F0
:1024200000F01000009005213620FFF79DFCBDE86C
:1024300008403620FFF78ABC08BD000000100040AD
:10244000403802400168CA6842F00102CA60006870
:10245000816801F00701062903D0016841F00101FC
:102460000160002070472DE9F0410D46040003D0C3
:1024700094F83D0018B108E00120BDE8F08100208B
:1024800084F83C00204600F03BF8022084F83D0030
:102490002068816844F2070291438160211D206811
:1024A00001F038FD226890689169166A2B68AF695F
:1024B000034340F20330814341EA0721A868EF69F2
:1024C00008434FF6FC418843E96840EA072001438E
:1024D00028692F6A000140EA0730084369686D697E
:1024E00026F0AA0646EA0515294393602268906102
:1024F00020680162012084F83D000020BDE7000053
:1025000010B586B0044614216846FDF705FF13494F
:10251000206888421FD112480021026842F002025E
:102520000260006800F0020005900D48143802684F
:1025300042F004020260006800F004000590C02030
:1025400000900220CDE901010320CDE90310694686
:102550000448FFF741F806B010BD00000004014038
:102560004438024000080240704770B504460068D5
:1025700001694FF00005C943890715D4C168C943F3
:10258000890711D4E91E0161012020772068806944
:102590008007204602D0FFF7E7FF04E000F0F2F8E2
:1025A000204600F0A3F9257720680169C94349074F
:1025B00017D4C168C943490713D46FF004010161FE
:1025C000022020772068806910F4407F204602D0E6
:1025D000FFF7CAFF04E000F0D5F8204600F086F9C6
:1025E000257720680169C943090716D4C168C94322
:1025F000090712D46FF008010161042020772068D8
:10260000C0698007204602D0FFF7AEFF04E000F06B
:10261000B9F8204600F06AF9257720680169C943B6
:10262000C90617D4C168C943C90613D46FF0100195
:102630000161082020772068C06910F4407F20469F
:1026400002D0FFF791FF04E000F09CF8204600F074
:102650004DF9257720680169C943C90708D1C168C8
:10266000C943C90704D1891E0161204600F090F9D1
:1026700020680169C943090609D4C168C94309062C
:1026800005D46FF0800101612046FFF757FE2068F6
:102690000169C943490609D4C168C943490605D43B
:1026A0006FF040010161204600F07CF9206801696B
:1026B000C94389060BD4C168C943890607D46FF0A2
:1026C000200101612046BDE87040FFF738BE70BDB3
:1026D00010B586B0044614216846FDF71DFE236838
:1026E000214C002021490222A34210D10B6843F063
:1026F00001030B60096801F0010105910F210091B0
:10270000CDE90120CDE903026946194813E0194CCF
:10271000A34214D10B6843F010030B60096801F069
:102720001001059160210091CDE901200390032063
:10273000049069461048FEF74FFF06B010BD0F4CDD
:10274000A342FAD10B6843F002030B60096801F061
:1027500002010591E1000091CDE9012003900920DB
:10276000049069460648E6E7000C00403038024015
:1027700000000240004001400010024000180040EC
:1027800000040240704770B5044690F83C000D46C6
:1027900001280DD0012684F83C60022084F83D0019
:1027A00042B1042A18D0082A2AD00C2A4DD139E087
:1027B000022070BD206801F01FFC2068816941F093
:1027C000080181612068816921F00401816120682C
:1027D00081692A69114311E0206801F03DFC2068FD
:1027E000816941F4006181612068816921F480611F
:1027F0008161206881692A6941EA0221816124E0BE
:10280000206801F05FFC2068C16941F00801C161E6
:102810002068C16921F00401C1612068C1692A6989
:10282000114311E0206801F081FC2068C16941F486
:102830000061C1612068C16921F48061C1612068C3
:10284000C1692A6941EA0221C16184F83D60002022
:1028500084F83C0070BD10B5040003D094F83D002E
:1028600010B107E0012010BD002084F83C00204694
:1028700000F00CF8022084F83D00211D206801F0D2
:1028800049FB012084F83D00002010BD08B5134A23
:1028900001681348914207D1016841F008010160C5
:1028A000006800F008000BE00E4A91420AD10C4883
:1028B000001D016841F480310160006800F480303F
:1028C000009008BD084A9142FBD1016841F04001E7
:1028D0000160006800F04000F2E70000000C0040DA
:1028E000403802400040014000180040704700009E
:1028F00010B504460068012201F070FB0B49206806
:10290000884202D00A49884203D1416C41F4004117
:1029100041642068816801F00701062903D001683D
:1029200041F001010160002010BD000000000140E5
:102930000004014010B504460068002201F04EFB7F
:10294000114841F2111221689310814202D00F48C0
:10295000814209D1086A104206D1086A184203D19F
:10296000486C20F4004048642068016A114206D196
:10297000016A194203D1016821F0010101600120BF
:1029800084F83D00002010BD00000140000401401B
:1029900000680349884201D1FFF760B97047000021
:1029A00000000140704710B504460068416994F882
:1029B0003920C1F3C011212A0BD151B1416921F055
:1029C00080014161206B08B1FEF726FC204601F032
:1029D0003FFC2068416994F83A20C1F38011222A13
:1029E0000BD151B1416921F040014161606B08B1E7
:1029F000FEF712FC204601F01DFC002010BD002057
:102A0000401C0528FCDB704770B50268044610685E
:102A1000D168536910F00F0F52D003F0010501F493
:102A200090762E435FD0C20705D0CA0503D5E26B6E
:102A300042F00102E263420705D5DA0703D0E26BF8
:102A400042F00202E263820705D5DA0703D0E26BA7
:102A500042F00402E263020707D501F020022A4394
:102A600003D0E26B42F00802E263E26B002A33D04B
:102A7000800604D5880602D5204601F0F2FB2068C6
:102A80004069E16BC0F38010090700D428B32046E9
:102A900001F0D0FB2068416949061AD5416921F04F
:102AA00040014161606BA0B11B490165606BFEF79D
:102AB000FAFB002810D0606B016DBDE8704008473C
:102AC000830610D58B060ED52046BDE8704001F078
:102AD000C8BB2046FFF793FF70BD2046FFF78FFF6E
:102AE0000020E06370BD030606D50B0604D5204622
:102AF000BDE8704001F094BC4006F3D54806F1D51E
:102B0000D168204621F04001D160202184F839109D
:102B100000F068FA70BD00009541000870B504002F
:102B200004D094F83900002510B106E0012070BDF2
:102B300084F83850204600F023F8242084F8390027
:102B40002068C16821F40051C160204601F0D4FB27
:102B50002068016921F4904101612068416921F0F8
:102B60002A0141612068C16841F40051C160E563F8
:102B7000202084F8390084F83A00002070BD00005D
:102B80002DE9F04F87B0044614216846FDF7C4FBD9
:102B9000A148DFF8808202212568032207238E06E0
:102BA00007154FF480794FF0400A4FF0000C45456F
:102BB00060D1E3466546DFF860C20CF1140CDCF826
:102BC000008048F01008CCF80080DCF800C00CF061
:102BD000100CCDF814C0D0F800C04CF0010CC0F8B7
:102BE00000C0006800F00100059050028DE823004D
:102BF00069468A48CDE90323FEF7EEFCDFF824821C
:102C000087494046C8F80010C0E90165C0E903578C
:102C1000C8F81450C0E90659C8F82050C8F8245024
:102C2000FEF726FC08B1FEF7F6FA7E4D7C48C4F8A4
:102C3000348060357830C8F8384085E84104C5E90B
:102C400003B7C5F814B0C5F818B0C5F81CB0C5F87E
:102C500020B02846C5F824B0FEF70AFC08B1FEF7FC
:102C6000DAFA2563002205212520AC63FFF77CF802
:102C7000252064E0DFF8B081DFF89CE145450EF1E6
:102C8000100E61D1DEF80080E346654648F4003856
:102C9000CEF80080DEF800C00CF4003CCDF814C083
:102CA000D0F800C04CF0080CC0F800C0006800F07C
:102CB0000800059060208DE8230069465B48CDE957
:102CC0000323FEF789FCDFF85C81594908F1C0084D
:102CD0004046C8F80010C0E90165C0E90357C8F8CC
:102CE0001450C0E90659C8F82050C8F82450FEF71F
:102CF000BFFB08B1FEF78FFA4D484E4DC4F8348043
:102D00001830C8F8384085E84104C5E903B7C5F86C
:102D100014B0C5F818B0C5F81CB0C5F820B02846E6
:102D2000C5F824B0FEF7A4FB08B1FEF774FA2563DA
:102D3000002205212620AC63FFF716F82620FFF7B6
:102D400005F807B0BDE8F08FDFF8EC804545F8D115
:102D5000DEF80080E346654648F48028CEF800801F
:102D6000DEF800C00CF4802CCDF814C0D0F800C000
:102D70004CF0080CC0F800C0006800F00800059096
:102D80004FF440708DE8230069462848CDE90323BD
:102D9000FEF722FCDFF89C80254908F160086039C5
:102DA0004046C8F80010C0E90165C0E90357C8F8FB
:102DB0001450C0E90659C8F82050C8F82450FEF74E
:102DC00057FB08B1FEF727FA1A4D1948C4F83480AA
:102DD000C0353038C8F8384085E84104C5E903B744
:102DE000C5F814B0C5F818B0C5F81CB0C5F820B0C7
:102DF0002846C5F824B0FEF73BFB08B1FEF70BFAF6
:102E00002563002205212720AC63FEF7ADFF2720B4
:102E100095E70000001001403038024000000240F9
:102E200040640240D803002000440040000C0240EF
:102E300088600240F804002000480040F8B50446CD
:102E400090F83A0020283CD1C1B3BAB394F83800C6
:102E5000012836D0012084F83800A162A28500251F
:102E6000E563222084F83A00636B1748D863636BEC
:102E700016481864636B1648D864606B1346056582
:102E80000846666B216802463046091DFEF75AFB6C
:102E9000206801684168009184F83850C16841F4A5
:102EA0008071C1602068416941F001014161206881
:102EB000416941F0400141610020F8BDFFE7012078
:102EC000FBE70220F9E70000EF4100082B42000871
:102ED000A541000890F83A30202B22D1F9B1F2B187
:102EE00090F83830012B1CD081628285C285002188
:102EF000C163222280F83A2080F838100168CA683D
:102F000042F48072CA6001684A6942F001024A6173
:102F10000068C16841F02001C160002070470120B5
:102F2000704702207047704770472DE9F843044608
:102F300090F839001F4616460D46202850D1B5B1ED
:102F4000AEB194F8380001284AD0012084F8380046
:102F50004FF00008C4F83C80212084F83900FEF7C7
:102F600023FCA6848146E68484F8388026E001208C
:102F7000BDE8F883E08C401EE084A0684B46B0F5C5
:102F8000805F4FF000024FF080012046009703D091
:102F900001F077FAE8B90DE001F073FAC8B92888B2
:102FA0002168C0F308004860206908B16D1C05E085
:102FB000AD1C03E0216815F8010B4860E08C002887
:102FC000D8D14B46002240212046009701F059FA03
:102FD00008B10320CCE7202084F839000020C7E79F
:102FE0000220C5E77047000003A002F07BFE0A2024
:102FF000FEF7E0FAF8E70000486172644661756C1C
:10300000745F48616E646C6572200D0A00000000F8
:103010000148FEF7D1BB00002401002010B5806BF1
:1030200090F83D20436B002103B1D963836B03B15A
:10303000D96303681C6824F480641C604185436B79
:1030400003B11965836B03B1196503681C6824F02B
:1030500001041C6090F83D402023602C0BD02824F4
:1030600034EA02020FD080F83D3080F83E1000BFF5
:10307000FEF7CFFC10BD80F83D3080F83E100164B3
:10308000FEF798FB10BD0268136843F0010313605C
:103090000268136843F480631360016380F83D4065
:1030A000E6E7000070B5044690F83D0094F83E1045
:1030B000102906D1222804D121680A6822F400626E
:1030C0000A60282131EA00024FF000054FF0200687
:1030D00026D021684968090503D4602801D084F806
:1030E0003D60256384F83E5020684168090537D566
:1030F000416821F400614160606B90F835203C49E3
:10310000012A11D00165606BFEF7CDF838B3206855
:10311000016821F00101016084F83D60606B1CE0F2
:10312000256384F83D10DFE7A06B0165A06BFEF717
:10313000BAF8A0B120684169C943490605D40069BD
:10314000616A0870606A401C60622068016821F052
:103150000101016084F83D60A06B016D884710E0BB
:1031600094F83D10602910D04169C943490605D43F
:103170000069616A0870606A401C60622046FEF760
:1031800048FC206CC1071CD115E084F83D60256423
:103190004169C943490605D40069616A0870606ADB
:1031A000401C60622068016821F001010160204636
:1031B000FEF700FBE5E7810703D4410701D40007D0
:1031C00004D52068416821F4E061416094F83D0035
:1031D000216C49070BD5282809D10648E0622563F0
:1031E00084F83D6084F83E502046FEF7D7FC70BD61
:1031F0001D3000080000FFFF10B5C26A438D016852
:10320000042B06D0438D032B08D0438D022B1DD0F9
:1032100012E04A6822F480624A600CE04B6823F4B2
:1032200080634B60042A06D0022A04D001680A6831
:1032300022F480620A6001680969426A1170416A79
:10324000491C4162418D491E418510BD012A30D083
:10325000102A2ED0042A30D0022A2ED00A6842F436
:1032600000720A6001680969426A1170416A491C6A
:103270004162428D521E4285026812690A70416A9B
:10328000491C4162418D491E418501684A6822F40A
:1032900040724A60202180F83D1090F83E200021C5
:1032A000402A80F83E100CD012210163FEF777FC13
:1032B00010BD0A6822F48062D3E70A6842F4806293
:1032C000CFE70163FEF76DFC10BD10B590F83D101F
:1032D000222914D1418D032912D901680969426A52
:1032E0001170416A491C4162418D491E4185418DE1
:1032F000032904D10068416821F48061416010BD58
:10330000C26A022AFBD0012901D00029F7D1016845
:103310000A6822F480620A6001684A6822F4E06266
:103320004A6001680969426A1170416A491C416238
:10333000418D491E4185202180F83D1090F83E20A6
:103340000021402A80F83E1004D012210163FEF7CC
:1033500026FC10BD0163FEF724FC10BD10B5C26A47
:1033600090F83D10212907D090F83E1040290FD148
:10337000BDE8104000F06AB9418D51B1416A026860
:1033800009781161416A491C4162418D491E41859C
:1033900010BD20230021082A13D0202A11D012F5B5
:1033A000803F0ED00268546824F4E0645460112217
:1033B000026380F83E1080F83D3000BFFEF7F0FB5E
:1033C00010BD0268546824F4E06454600268146814
:1033D00044F400741460016380F83D3090F83E209E
:1033E00080F83E10402AE9D1FEF7DCFB10BD00005A
:1033F00010B590F83D1090F83E30C26A048DB4B11B
:10340000212903D0402B11D122290FD1418DE1B3C5
:1034100090F83E10402942D0416A02680978116153
:10342000416A491C4162418D491E418510BD2129D7
:10343000E8D120230021082A13D0202A11D012F528
:10344000803F0ED00268546824F4E0645460112276
:10345000026380F83E1080F83D3000BFFEF7A0FB0D
:1034600010BD0268546824F4E06454600268146873
:1034700044F400741460016380F83D3090F83E20FD
:1034800080F83E10402AE9D100E002E0FEF78AFB16
:1034900010BD0068416821F48061416010BDBDE845
:1034A000104000F0D3B8000078B590F83E50C26AE2
:1034B000036B90F83D6000240168222E7AD1066DDE
:1034C0000EB9402D76D0056D1DB90569B5F5404F93
:1034D00009D0458D05B3468D384D012E0ED0438D54
:1034E000022B3AD05DE04A698A6900920A6842F488
:1034F00080720A60016D491C016578BDAA4213D132
:103500000A6822F480620A6001684A68120503D5DD
:103510000A6822F4806216E04A698A6900920A68A1
:1035200042F400720A6039E0082A10D0202A0ED036
:10353000122B0AD0042A03D0022A01D0102AE7D184
:103540000A6842F480620A6024E0012AE0D00A6836
:1035500022F480620A600168DEE7042A21D0022A90
:103560001FD0102A1DD00B6823F480630B60016804
:103570000B6843F400630B6001684B681B0509D5B9
:10358000AA4212D0012A10D0082A0ED0102A0CD03C
:10359000202A0AD001684A6989690091046578BDCA
:1035A00008E00B6843F48063E5E74A6842F4805220
:1035B0004A60EFE7486988690090F0E70000FFFF84
:1035C00090F83E10402910D00169B1F5804F19D014
:1035D000016DA9B3016D012910D1416C5FF0F102B9
:1035E00001F4407142EAD11106E0016D0029416CFD
:1035F00005D0C9B241F0010100680161704701F0D6
:10360000FE01F9E790F83D102129416C09D0C9B2BB
:1036100041F0010102681161416B29B1C96B49B9DF
:1036200002E001F0FE01F5E7816B0029E6D0C96BED
:103630000029E3D00068416841F4006141607047AF
:10364000FFE7416CF02201F44071CBE7016DC1B19D
:10365000016D012923D0016D022911D190F83D108F
:10366000222923D090F83D10212909D1416A02680E
:1036700009781161416A491C4162418D491E4185A9
:103680007047C16C0129816C02D0C1F3072108E0A9
:103690000268C9B21161016D891C01657047816CB6
:1036A000C9B202681161016D491CF6E70068016842
:1036B00041F4807101607047F8B590F83D600446B0
:1036C0000068416821F4E06141602068002541699B
:1036D0000091016841F0010101602068016821F456
:1036E0008061016020684168090520D5474F222E7E
:1036F00048D02A2E46D0616B096849686185618D82
:1037000019B1216C41F004012164416821F4006188
:103710004160606BFDF7D9FD012808D0606B07653B
:10372000606BFDF7C0FD10B1606B016D8847608D67
:1037300008B320684169C943490708D40069616A30
:103740000870606A401C6062608D401E6085206861
:103750004169C943490608D40069616A0870606A12
:10376000401C6062608D401E6085608D18B1206CC9
:1037700040F004002064206C00B32046BDE8F8400F
:10378000FFF790BCA16B096849686185618D19B12B
:10379000216C41F004012164416821F40061416021
:1037A000A06BFDF792FD0128C1D0A06B0765A06B4F
:1037B000FDF779FD0028BAD0A06BB6E72A2E06D116
:1037C0002563282084F83D002046FEF745FA94F84A
:1037D0003D10202028290DD0216B222901D0222E36
:1037E00007D1256384F83D0084F83E502046FEF75B
:1037F00033FAF8BD0649E162256384F83D0084F898
:103800003E502046FEF7CAF9F8BD00001D30000802
:103810000000FFFF70B51848184E0168491C0025CC
:10382000C0F8001006EB4514E06808B3012804D185
:10383000227C218BE069FDF7B2FFE068022817D1F6
:103840006068411C03D0401E6060401C0ED0FDF734
:10385000ABFF6169401AA168884209D3218BE069F6
:10386000FDF796FFFDF7A0FF606101E00120E06039
:103870006D1C0A2DD6DB70BD0C01002024700020C9
:10388000254808B5016841F400110160016801F4A0
:1038900000110091016841F480010160006800227C
:1038A00000F48000009005210B20FEF75DFA0B204C
:1038B000FEF74CFA002205210C20FEF755FA0C20E9
:1038C000FEF744FA002205210E20FEF74DFA0E20E5
:1038D000FEF73CFA002205211020FEF745FA1020E1
:1038E000FEF734FA002205211120FEF73DFA1120DF
:1038F000FEF72CFA002205213A20FEF735FA3A208D
:10390000FEF724FA002205214620FEF72DFABDE835
:1039100008404620FEF71ABA3038024010B5194860
:1039200003F0BEFE184C20611648103003F0B8FEBC
:10393000144A012160612032084603F02DFF114B2B
:10394000A061203B00220121104804F007F80D4B34
:10395000A060103B002201210D4803F0FFFF094A3F
:10396000E060683A00210B4803F0A6FF054A20609A
:10397000443A0021084803F09FFF6060BDE8104012
:1039800003F0ECBC44AA000800000020E31000088B
:10399000E9100008993D0008053E000870B586B0A2
:1039A00014216846FCF7B8FC2C480024016841F05B
:1039B00010010160016801F010010591016841F0FA
:1039C00080010160016801F080010591016841F00A
:1039D00001010160016801F001010591016841F0F8
:1039E00002010160016801F002010591016841F0E6
:1039F00008010160016801F008010591016841F0CA
:103A0000040101600068012200F00400144E9502D8
:103A1000059029463046FDF7C2FE00220C213046B3
:103A2000FDF7BDFEA800CDE9000469460D480294EB
:103A3000FDF7D2FD00950125CDE9025469463046D7
:103A40000195FDF7C9FD0C200090CDE901546946B0
:103A500030460394FDF7C0FD06B070BD303802401B
:103A6000000C0240000402400D4810B50B490160F3
:103A70000C49416000214FF480428160C0E903128B
:103A800041618161C1610162FDF7C4FF002803D07B
:103A9000BDE81040FDF7BFBB10BD00000054004062
:103AA00024010020A086010010B588B01C216846C2
:103AB000FCF732FC16481549002401605321C0E987
:103AC00001144FF47A71C0E903148461FEF7C3FE58
:103AD00008B1FDF7A0FB6020CDE9000402940022AC
:103AE00069460B480494FEF74EFE08B1FDF793FBC0
:103AF000042269460648FEF746FE08B1FDF78BFB37
:103B00000348FEF7E5FD08B010BD000000180040B6
:103B1000D802002010B58AB0002407941C21684602
:103B20000894FCF7F9FB2248204901605321C0E9C1
:103B300001144FF47A71C0E903148461FEF78BFE1F
:103B400008B1FDF768FB079407A919480894FEF728
:103B5000F7FB08B1FDF75FFB6020CDE9000402949C
:103B60000022694612480494FEF70DFE08B1FDF7E5
:103B700052FB042269460E48FEF705FE08B1FDF728
:103B80004AFB082269460A48FEF7FDFD08B1FDF729
:103B900042FB0C2269460648FEF7F5FD08B1FDF729
:103BA0003AFB0348FEF794FD0AB010BD000C00403C
:103BB000D80100201CB500240F4800940D49019441
:103BC00001605321C0E9011440F2E731C160802156
:103BD0008161FEF7FDFB08B1FDF71DFB009469460E
:103BE00005480194FEF7ACFB002801D0FDF713FB5C
:103BF0001CBD0000001000401802002010B58CB061
:103C000024216846FCF788FB0024184809941649CB
:103C10000A94C0E900144FF6FF71C0E90241046143
:103C2000446184610320009002200190012004215E
:103C3000CDE9020107210491CDE9054007946946C9
:103C40000A480894FEF70FFC08B1FDF7E4FA09945E
:103C500009A906480A94FEF773FB002801D0FDF776
:103C6000DAFA0CB010BD0000000401405802002038
:103C700010B588B01C216846FCF74EFB1648154964
:103C8000002401605321C0E901144FF47A71C0E9A6
:103C900003148461FEF7DFFD08B1FDF7BCFA602074
:103CA000CDE900040294002269460B480494FEF713
:103CB0006AFD08B1FDF7AFFA042269460648FEF72F
:103CC00062FD08B1FDF7A7FA0348FEF701FD08B051
:103CD00010BD000000400140980200200C4810B5C3
:103CE0000A4901604FF4E1314160002181600C22FA
:103CF000C160C0E904128161C161FEF70FFF0028B5
:103D000003D0BDE81040FDF786BA10BD0010014099
:103D1000180300200C4810B50A4901604FF4E13146
:103D20004160002181600C22C160C0E90412816100
:103D3000C161FEF7F3FE002803D0BDE81040FDF797
:103D40006ABA10BD00440040580300200C4810B56A
:103D50000A4901604FF4E1314160002181600C2289
:103D6000C160C0E904128161C161FEF7D7FE00287D
:103D700003D0BDE81040FDF74EBA10BD004800402A
:103D800098030020FEE77047002801DB0120704700
:103D90004FF0FF307047000003F0DEFA03F03AFB0B
:103DA000164C6421A06803F01BFE6421E06803F058
:103DB00017FE022003F0E0FA114C012304222146F1
:103DC000002003F0B5FB012308222146184603F02A
:103DD000AFFB4FF47A720121002003F0B3FB4FF4E4
:103DE000FA624FF0FF31012003F0ACFB03F01EFE3E
:103DF00003F0FCFB0A2003F001FCF7E700000020C1
:103E0000000C024003F062FB08490748C1F870014A
:103E1000084605F0D7F803F027FB00BF04F03AFB93
:103E2000642003F0EBFBF9E751920008BC55002039
:103E300010B5502080F31188BFF34F8FBFF36F8F01
:103E400006F0ACF918B104494FF08050086000202A
:103E500080F3118810BD000004ED00E030B593B090
:103E600030216846FCF758FA14210CA8FCF754FAE4
:103E700019480025016841F080510160006800F098
:103E8000805011901548016841F48041016000683C
:103E9000022400F480401190012000900004019061
:103EA0008001CDE9064008AA0420A82182E8130079
:103EB0000B906846FEF794F80CA90F2081E83100BA
:103EC0004FF4A0500F90E002109005210CA8FDF7D0
:103ED0007DFF13B030BD000040380240007000404C
:103EE0000548016841F47001016003494FF000602A
:103EF000803908607047000088ED00E00148FEF757
:103F000034BB0000180600200148FEF72EBB00005D
:103F100018020020F0B50268254C264D264E274F8A
:103F2000274B4FF0804CA04209D0604507D0A842F3
:103F300005D0B04203D0B84201D0984204D122F05B
:103F4000700E4A6842EA0E02A0421BD0604519D0AA
:103F5000A84217D0B04215D0B84213D0984211D021
:103F6000184DA8420ED0184DA8420BD0174DA842AC
:103F700008D0174DA84205D0164DA84202D0164DC4
:103F8000A84203D122F44075CA682A434D6922F041
:103F900080022A4302608A68C2620A688262A04282
:103FA00001D0984201D10969016301214161F0BD4D
:103FB000000001400004004000080040000C0040E8
:103FC000000401400040014000440140004801401D
:103FD00000180040001C00400020004010B501F017
:103FE0001F030121046A99408C430462016A9A40CC
:103FF0001143016210BD0000F0B5026A22F0010217
:104000000262036A42688469124E24F073050C68E8
:104010002C4323F002058B682B430D4DA84201D0A1
:10402000B04205D123F00807CB683B4323F00403DB
:10403000A84201D0B04205D14D6922F44072154327
:104040008A692A4342608461496841630362F0BD22
:104050000000014000040140F0B5026A22F01002A5
:104060000262026A436884690D6824F4E64444EA03
:1040700005248D6822F0200242EA05120F4D104EF1
:10408000A84201D0B04206D1CF6822F0800242EAB5
:10409000071222F04002A84201D0B04207D14D6978
:1040A00023F4406343EA85038D6943EA8503436053
:1040B0008461496881630262F0BD00000000014034
:1040C00000040140F0B5026A22F480720262026AC2
:1040D0004368C46922F4007224F073050C68124E20
:1040E0002C438D6842EA05220E4DA84201D0B04211
:1040F00006D1CF6822F4006242EA072222F48062ED
:10410000A84201D0B04207D14D6923F4405343EA9D
:1041100005138D6943EA05134360C4614968C163AF
:104120000262F0BD000001400004014030B5026AA7
:1041300022F480520262046A4268C3690D6823F463
:10414000E64343EA05238D6824F4005444EA053429
:10415000084DA84202D0084DA84204D14D6922F46E
:10416000804242EA85124260C36149680164046288
:1041700030BD0000000001400004014010B504F013
:1041800015F9002805D0D0E90021BDE81040084607
:10419000104710BD10B5806B0021C185C184FEF7AA
:1041A0002EFC10BD70B5846B2068406994F83910FE
:1041B000C0F3C0100025212904D118B1E5842046A0
:1041C00000F046F82068406994F83A10C0F3801077
:1041D000222904D118B1E585204600F02BF8E06BC8
:1041E00040F01000E0632046FEF709FC70BD10B5FA
:1041F0000146806B09680968C90513D40021C1858F
:104200000168CA6822F48072CA6001684A6922F0B3
:1042100001024A6101684A6922F040024A61202194
:1042200080F83A10FEF77FFE10BD10B5806BFEF7E8
:104230007BFE10BD0168CA6822F49072CA600168F2
:104240004A6922F001024A61202180F83A10704741
:104250000168CA6822F0C002CA60202180F83910C3
:10426000704710B590F83A10222901D0022010BDF5
:104270008168B1F5805F11D00169002901681FD004
:10428000496801F07F03816A4A1C82620B70C18D0C
:10429000491E0904090CC18518D02BE00269816A06
:1042A000002A0268526805D0D2B20A80816A491C8D
:1042B0008162ECE7C2F308020A80816A891CF7E791
:1042C0004A68816A4B1C83620A70E0E70168CA6829
:1042D00022F02002CA600168CA6822F48072CA60B3
:1042E00001684A6922F001024A61202180F83A10EF
:1042F000FEF719FE002010BD2DE9F04104460068CC
:104300000169E26821F44051114301612169A0680B
:10431000E26908436169114308432168CA6849F2A8
:104320000C639A430243CA6020684169A26921F480
:10433000407111434161E069192764253226B0F5C7
:10434000004F354A354920684FF0000806D08842B2
:1043500001D0904236D1FDF703FE35E0884201D00E
:10436000904202D1FDF7FCFD01E0FDF7E9FD616837
:104370004A18A0FB070148EB0803FBF783FF01463F
:10438000B0FBF5F00201B1FBF5F06FF018035843F4
:1043900001EB800006EBC000B0FBF5F000F0F80088
:1043A00002EB4002B1FBF5F0584301EB800006EB55
:1043B000C000B0FBF5F000F00700216810448860F1
:1043C000BDE8F081FDF7BCFD61688B0F8A00A0FBA2
:1043D0000701FBF757FF0146B0FBF5F06FF018023D
:1043E000504301EB800006EB0010B0FBF5F000F04D
:1043F000F002B1FBF5F002EB0012B1FBF5F06FF04B
:104400001803584301EB800006EB0010B0FBF5F0F9
:1044100000F00F00D1E7000000140140001001403F
:1044200090F83910212901D0022070478168B1F538
:10443000805F016A0BD04A1C0262026809785160F1
:10444000C18C491E0904090CC1840ED017E00988EB
:104450000268C1F30801516001690029016A02D0B4
:10446000491C0162ECE7891CFBE70168CA6822F07D
:104470008002CA600068C16841F04001C16000204C
:1044800070472DE9F041984617460E460446069DB2
:104490001DE0681C1BD02DB1FDF786F9A0EB0800CC
:1044A000A84214D92068C16821F4D071C160206885
:1044B000416921F001014161202084F8390084F82C
:1044C0003A00002084F838000320BDE8F08120681D
:1044D000006836EA000004D00020B842D9D000209D
:1044E000F3E70120F9E7000010B5044800F022F8D6
:1044F000BDE810400148FEF787BA0000180300200D
:1045000010B5044800F016F8BDE810400148FEF769
:104510007BBA00005803002010B5044800F00AF8E8
:10452000BDE810400148FEF76FBA00009803002074
:10453000FEE70000F8B503461C4900205322424321
:1045400051F822509D4206D101EB820292F8495166
:10455000012D00D11446401C0528EFDB21680868B6
:104560000268D243D2061FD4026840680090084611
:10457000FEF719FA2068406B00684068626822B153
:10458000C0F5807104F1080090474FF4807604F183
:10459000080031460546FBF7BFFE32462946206833
:1045A000BDE8F840FEF74ABCF8BD00002C4F0020E3
:1045B00070B50D460646002403E0305D00F0ECF9CE
:1045C000641CAC42F9DB70BD40F6B83003F016F85D
:1045D0004FF47A7120A000F0B7FA522000F008FBE7
:1045E00000F07AFD002000F089FC012000F086FC3C
:1045F000022000F083FC012000F07AFE00F032F887
:1046000000F01AFC00F06CFF154C002604F2045573
:1046100000F072F894F81A09022801D0032801D199
:1046200000F022FB00F05EFA94F81909012808D185
:1046300084F81969B4F8101994F812092A4600F0A0
:1046400037FF00F09DFF02F08BFF00F029FF3220C2
:1046500002F0D4FFDCE7000041540D0A0000000026
:10466000345D00207CB5184D4FF0FF31286803F011
:1046700057F8002400F036FA194814A1064601F054
:1046800041FB304600F056FAC8B116A0009017A3BF
:10469000022201A94FF47A7000F0F6FF78B19DF87C
:1046A000040002280BD012A2012101A800F0FCF89E
:1046B000104908B19DF8040081F81A0901242868FE
:1046C00003F0C2F820467CBDF000002041542B438B
:1046D000574D4F44455F4355523F0D0A00000000BF
:1046E000356100204552524F520000004F4B0000F0
:1046F0003A000000345D00202DE9FC47304C94F86E
:104700001B0910B10120BDE8FC872E4E4FF0FF3190
:10471000306803F005F8002500F0E4F92D482AA1DF
:10472000814601F0EFFA484600F004FA002842D032
:1047300029A04FF47A77009029A3022201A93846D4
:1047400000F0A2FF002836D09DF80400022832D0E5
:10475000244A25A19046601CFBF746FE42462AA14A
:10476000601CFBF741FE00F0BDF92FA1484601F0A7
:10477000C9FA484600F0DEF9E8B117A0009018A386
:10478000022201A9384600F07FFFA0B19DF8040085
:10479000022810D028A1601CFBF7C9FD58B1114BAD
:1047A0000122103327A100F0B3F820B1414626A022
:1047B00001F098FA0125306803F046F82846A2E790
:1047C000345D0020F000002041542B4349465352F1
:1047D0000D0A0000356100204552524F5200000082
:1047E0004F4B00004F66002041542B434946535223
:1047F0000D0D0A2B43494653523A415049502C2241
:10480000255B5E225D00000041542B434946535214
:104810000D0D0A2B43494653523A53544149502CEB
:1048200022255B5E225D000041542B4349505354C6
:10483000413F0D0A00000000676174657761793AB5
:10484000000000002200000025730D0A0000000097
:104850001FB500F047F900F023FE094B0FCB8DE8A0
:104860000F0001216A46084602F096FF054C044AF3
:1048700000212060243A044803F01EF860601FBD48
:10488000D8AB0008F0000020C9450008024604E04B
:1048900003708B4200D0401C521C1378002BF7D1C0
:1048A000002101707047000070B5064C0546601C81
:1048B00000F00AF8002804D0601CFBF7C7FE28604F
:1048C000012070BD345D00202DE9F0410C4605004B
:1048D000174612D08CB10D481146FBF763FD002638
:1048E00050B139460020FBF75DFD010001D0641E88
:1048F000E4B22CB10028F4D12E700020BDE8F08184
:104900002846FBF745FD0120F8E70000355D002053
:104910000FB42DE9F04107469DF820000E4600280F
:1049200030D009AC800001F0DBFE0546002004E039
:1049300002CC45F82010401CC0B29DF820108842DF
:10494000F6D331463846FBF72DFDB8B10024314689
:104950000020FBF727FD070004D09DF82000401E33
:104960008DF8200055F824003946FBF711FD641C32
:104970009DF82000E4B248B1002FE8D1284601F0AC
:1049800001FA0020BDE8F0015DF814FB284601F0B3
:10499000F9F90120F6E700002DE9F0414E4C0646FA
:1049A000002594F818094FF480680127F0B3FCF74C
:1049B000FBFED4F81419401A322801D984F818598A
:1049C000B4F8100998B3B4F80E1944480E54B4F86A
:1049D0000E09404502D2401CA4F80E09B4F8101983
:1049E00080B2884203D384F8185984F81979B4F84E
:1049F0000205042831D93849C91E425C2B2A2CD122
:104A00004A1C835C492B28D18B1CC65C502E24D1B8
:104A1000265C442E21D101F603167560B56045541D
:104A2000B4F802058554B4F8020501E017E023E06C
:104A3000C554B4F802052554B4F80205001FA4F8C3
:104A40000205A4F80E5984F80C5984F81879A4F8D2
:104A50001059FCF7A9FEC4F81409BDE8F0811E48FE
:104A6000B4F80215401C0E54B4F802054045BED2FD
:104A7000401CA4F80205BAE7174894F8192A00F672
:104A80000411481E002A94F80C29565494F80C1965
:104A900001F10101C9B284F80C1904D094F8062977
:104AA0002C2A07D00BE0085C3A28A0D184F81259D0
:104AB0000B480BE094F80529303A84F812290329B1
:104AC00095D9085C3A2892D10548801CFBF7BEFDB9
:104AD000A4F810098BE70000345D00203862002044
:104AE0003966002010B5054C4FF48061601CFBF75F
:104AF00013FC0020A4F8020510BD0000345D002066
:104B000070B50C460546B1F5807F0BD80A460146C4
:104B10000648FBF7E8FBFF23224629460448FEF738
:104B200004FA08B1002070BD012070BD356100207D
:104B30009803002010B50446FBF715FC81B220460F
:104B4000BDE81040FFF7DCBF70B50D460446FBF72B
:104B50000AFC81B22046FFF7D3FF002803D0284685
:104B600002F04CFD012070BD2DE9FC41154E0546BB
:104B70004FF0FF31306802F0D3FD0024FFF7B2FFA1
:104B800016482A4610A1074601F0BCF83846FFF740
:104B9000D1FF88B112A0009013A3022201A94FF403
:104BA0007A7000F071FD38B19DF80400022803D03E
:104BB0000E48012480F81A59306802F045FE20465C
:104BC000BDE8FC81F000002041542B43574D4F4479
:104BD000455F4355523D25640D0A000035610020B4
:104BE0004552524F520000004F4B0000345D0020F0
:104BF0007CB5144D06464FF0FF31286802F090FD59
:104C00000024FFF76FFF144832460FA1064601F05B
:104C100079F83046FFF78EFF70B110A0009011A315
:104C2000022201A94FF47A7000F02EFD20B19DF808
:104C30000400022800D00124286802F005FE204666
:104C40007CBD0000F000002041542B5246504F57CD
:104C500045523D25640D0A00356100204552524FF2
:104C6000520000004F4B000070B5334D8AB04FF03A
:104C7000FF31286802F054FD0024FFF733FF32486B
:104C80002EA1064601F03EF83046FFF753FF0028FC
:104C90004BD02EA000902FA3022209A94FF47A70C6
:104CA00000F0F2FCF0B39DF8240002283DD02A4C1D
:104CB0000D21601CFFF7EAFD04F6F510A0F1680174
:104CC000CDE90710A0F11202A0F17803CDE9053279
:104CD000243A029224382039CDE90310203B2438AD
:104CE000CDE90003103B0A221CA1601CFFF710FE57
:104CF0000021084604EB011292F84D39303B0A2B93
:104D000001D382F84D0901EBC10204EB420292F893
:104D1000AD39303B0A2B01D382F8AD09491CC9B229
:104D2000062900E001E0E5D30124286802F08CFDAB
:104D30000AB0204670BD0000F000002041542B4313
:104D4000574C49460D0A0000356100204552524F2C
:104D5000520000004F4B0000345D00200A2C000080
:104D60002DE9FE431B4F8846814615464FF0FF3123
:104D7000386802F0D5FC0024FFF7B4FE164E0DB3E0
:104D800043464A4615A13046009500F0BBFF304629
:104D9000FFF7D0FE80B119A11BA0CDE900011DA332
:104DA000032202A94EF6602000F06EFC20B19DF8AF
:104DB0000800012800D80124386802F045FD20468B
:104DC000BDE8FE8343464A4614A1304600F09AFFF0
:104DD000DDE70000F00000203561002041542B4346
:104DE000574A41505F4355523D222573222C2225BC
:104DF00073222C222573220D0A0000000D0A464161
:104E0000494C0D0A000000000D0A4552524F520D48
:104E10000A0000000D0A4F4B0D0A000041542B43BD
:104E2000574A41505F4355523D222573222C22257B
:104E300073220D0A000000007CB5244C4FF0FF31B6
:104E4000206802F06DFC0025FFF74CFE254820A1EC
:104E5000064600F057FF3046FFF76CFE80B322A0F5
:104E6000009023A3022201A94FF47A7000F00CFCF9
:104E700030B39DF80400022822D01EA2012101A80F
:104E8000FFF712FDE0B19DF804301B4800213BB153
:104E90000122012B07D0022B08D0032B0FD10AE0EF
:104EA00080F83B1904E080F83B1906E080F83B29C4
:104EB00080F84C1903E080F83B2980F84C29012543
:104EC000206802F0C1FC28467CBD0000F0000020F4
:104ED00041542B4357444843505F4355523F0D0ABA
:104EE00000000000356100204552524F5200000082
:104EF0004F4B00003A000000345D00202DE9FC41DA
:104F0000184E07464FF0FF31306802F009FC0024CC
:104F1000FFF7E8FD1448154D90F8190AE8B13A4634
:104F200013A1284600F0EEFE2846FFF703FE70B1FD
:104F300014A0009015A3022201A94FF47A7000F08A
:104F4000A3FB20B19DF80400022800D001243068A2
:104F500002F07AFC2046BDE8FC810DA1284600F055
:104F6000D1FEE1E7F0000020345D00203561002033
:104F700041542B434950434C4F53453D25640D0A42
:104F8000000000004552524F520000004F4B0000FD
:104F900041542B434950434C4F53450D0A000000E8
:104FA000F0B5334F85B04FF0FF31386802F0B8FBF1
:104FB0000024FFF797FD33482EA1054600F0A2FE1E
:104FC0002846FFF7B7FD00284CD02FA0009030A353
:104FD000022204A94FF47A7000F056FB002841D059
:104FE0009DF8100002283DD02D4D2AA1681CFBF72A
:104FF0009EF9002836D03A21FBF7ABF9461C304623
:10500000FBF724FBC4EB041105EB4101641CE4B283
:1050100081F81C0A052CF2D322A12C46681CFBF750
:1050200086F905465FF00006C6EB061004EB400269
:1050300002F6362302F6382C991E02F622208DE85D
:105040000B10031F1AA128465A1EFBF7CDF9681C46
:1050500014A1FBF76CF9050003D0761CF6B2052EFF
:10506000E2D30124386802F0EFFB05B02046F0BD22
:10507000F000002041542B434950535441545553A0
:105080000D0A0000356100204552524F52000000C9
:105090004F4B00000A5354415455533A000000004E
:1050A000345D00202B4349505354415455533A002A
:1050B0002B4349505354415455533A25642C2225CF
:1050C0003373222C22255B5E225D222C25642C2545
:1050D000642C2564000000007CB5194D4FF0FF31B1
:1050E000286802F01DFB0024FFF7FCFC194815A1FD
:1050F000064600F007FE3046FFF71CFDD8B116A0AB
:10510000009017A3022201A94FF47A7000F0BCFAB4
:1051100088B19DF8040002280DD012A2012101A837
:10512000FFF7C2FB38B19DF8040000B101200E4921
:10513000012481F8190A286802F086FB20467CBD0C
:10514000F000002041542B4349504D55583F0D0A63
:1051500000000000356100204552524F520000000F
:105160004F4B00003A000000345D00207CB5174D25
:1051700006464FF0FF31286802F0D2FA0024FFF70C
:10518000B1FC1748324612A1064600F0BBFD30467E
:10519000FFF7D0FCA0B113A0009014A3032201A933
:1051A00042F2107000F070FA50B19DF8040002282D
:1051B00006D00FA202210F48FFF776FB00B10124B1
:1051C000286802F041FB20467CBD0000F000002072
:1051D00041542B50494E473D222573220D0A0000B1
:1051E000356100204552524F520000004F4B0000E5
:1051F0002B0000004E6700202DE9FE43284E0F468D
:10520000804691464FF0FF31306802F089FA002461
:10521000FFF768FC2348244D90F8190A002839D07C
:105220003B46424621A1284600F06CFD2846FFF788
:1052300081FC48B323A04FF47A75009023A3022287
:1052400002A9284600F020FAF0B121A11DA0CDE965
:10525000000121A3032202A9284600F015FA98B103
:105260009DF8080001280FD8FFF73CFC3946484656
:10527000FFF746FC13A0009014A3022202A92846BF
:1052800000F002FA00B10124306802F0DDFA204695
:10529000BDE8FE833A4611A1284600F033FDC5E77C
:1052A000F0000020345D00203561002041542B4384
:1052B000495053454E444255463D25642C25640DC6
:1052C0000A0000004552524F520000004F4B0000B0
:1052D00062757379000000003E00000041542B43CA
:1052E000495053454E444255463D25640D0A000041
:1052F0002DE9FC41154E05464FF0FF31306802F0B4
:105300000FFA0024FFF7EEFB15482A4610A10746C6
:1053100000F0F8FC3846FFF70DFC88B111A00090B2
:1053200012A3022201A94FF47A7000F0ADF938B14E
:105330009DF80400022803D00D48012480F8195A72
:10534000306802F081FA2046BDE8FC81F0000020C0
:1053500041542B4349504D55583D25640D0A0000DA
:10536000356100204552524F520000004F4B000063
:10537000345D00202DE9FE4F2B4F884681461D46A7
:1053800016464FF0FF31386802F0CAF90024FFF7E3
:10539000A9FB2B48324625A1824600F0B3FC5046BB
:1053A000FFF7C8FB002830D026A0009027A30222D8
:1053B00002A94FF47A7000F067F930B39DF8080045
:1053C000022822D0FFF78EFB214890F8190A10B36B
:1053D000CDE9006543464A461EA1504600F092FCC6
:1053E0005046FFF7A7FB80B116A123A0CDE900012D
:1053F00016A3032202A946F2A81000F045F920B135
:105400009DF80800032800D00124386802F01CFA37
:105410002046BDE8FE8F3346424619A1504600950E
:1054200000F070FCDCE70000F000002041542B434A
:1054300049505345525645523D312C25640D0A00C2
:10544000356100204552524F520000004F4B000082
:10545000345D002041542B43495053544152543D34
:1054600025642C22544350222C222573222C25649F
:105470002C25640D0A000000434F4E4E4543540056
:1054800041542B43495053544152543D22544350AC
:10549000222C222573222C25642C25640D0A000061
:1054A0004FF480710148FAF737BF000035610020E2
:1054B000F0B5094C0023094D4FF48066606806E0A2
:1054C000D75C2F54401CB04200D100205B1C8B42A3
:1054D000F6DB6060F0BD0000F8000020E867002007
:1054E00010B50120FFF740FB0A2404E008A000F0FB
:1054F000F9FB641E0BD3002211A114A0FFF730FCAE
:105500000028F3D0BDE8104011A000F0EBBB10BDA7
:1055100073736964203D207778632C7061737377AF
:1055200064203D2038353339373638353820636FBD
:105530006E6E6563742066616C73650D0A00000011
:10554000383533393736383538000000777863001E
:1055500073736964203D207778632C70617373776F
:1055600064203D2038353339373638353820636F7D
:105570006E6E65637420737563636573730D0A00E3
:1055800070B51C4C4FF0FF3594F81C0A03281ED050
:105590000A2342F6934218A10020FFF7EBFE30B138
:1055A00019A000F09FFB032084F81C0A0CE01CA04B
:1055B00000F098FB10A0FFF7D9FD1E4908B11EA00E
:1055C00000E027A000F08EFB4FF4FA620CE02D4CB7
:1055D0002069401E2061401C04D1FFF7E1FC4FF41C
:1055E000967020614FF4FA722946BDE870400120A0
:1055F00001F0A8BF345D00203139322E3136382E0B
:10560000302E31303600000074637020636F6E6E90
:1056100065637420737563636573730D0A0000001E
:1056200074637020636F6E6E6563742066616C7363
:10563000650D0A004F660020697020257320746F85
:105640002070696E67203139322E3136382E302E77
:1056500031303620737563636573730D0A00000083
:10566000697020257320746F2070696E672031394E
:10567000322E3136382E302E3130362066616C7342
:10568000650D0A00F80000200FB42DE9F0470E0068
:1056900080460ED09DF8280000280BD000203070E6
:1056A0009DF828000BAC800001F01AF80546002098
:1056B00009E00020BDE8F0075DF814FB02CC45F8D6
:1056C0002010401CC0B29DF828108842F6D3002755
:1056D000DFF8449019E0322001F090FF00240FE041
:1056E00055F8241009F10100FAF721FE04F1010434
:1056F00028B13470284600F045FB0120DAE7E4B217
:105700009DF828008442EBD332374745E3D328463F
:1057100000F038FBCDE70000345D0020002801DAFE
:10572000404200B2704700007CB50B4A86681660A4
:10573000006A5060FBF760F904460D463046FBF7FF
:105740005BF941EC100B05A053EC102BCDE90045A3
:1057500000F0C8FA7CBD0000C8000020252E33668A
:105760002C252E336600000070B506460C46001D41
:1057700000F010F80546611906F1140000F00AF86F
:10578000284470BD00487047A4AE00080048704728
:10579000C5AE000870B5CB78021D5B0943600C797B
:1057A00043EAC40343604C7943EAC42343608C79E1
:1057B00004F00F0443EAC44545608B79CC791B099A
:1057C00004F07F0453EA04144FF0804303D003EB4A
:1057D000C45425431560CA7912F0800F05D090EDAE
:1057E000010AB1EE400A80ED010ACC7A00F108020C
:1057F000640984600D7B44EAC50484604D7B44EAFF
:10580000C52484608D7B05F00F0544EAC54484609F
:105810008D7BCE7B2D0906F07F0655EA061503D059
:1058200003EBC5552C431460CA7B12F0800F05D0E2
:1058300090ED020AB1EE400A80ED020ACC7C00F144
:105840000C026409C4600D7D44EAC504C4604D7D4A
:1058500044EAC524C4608D7D05F00F0544EAC544C3
:10586000C4608D7DCE7D2D0906F07F0655EA0615B4
:1058700003D003EBC5531C431460C97D11F0800FA6
:105880004FF0180105D090ED030AB1EE400A80ED0B
:10589000030A084670BD000000487047D9AE0008F2
:1058A00000487047FAAE00082DE9F04105460F7830
:1058B00000790E46B84204D2B900E86802F09EFDB5
:1058C000E860042400202F71804611E03119325D18
:1058D0004B7842EA03228B78C97842EA034242EAD3
:1058E0000161A960EA6842F82010401CC0B2241D82
:1058F00029798142EAD8375D287C641CB84204D2F9
:10590000B900A86902F07AFDA86100202F74E41C98
:1059100012E03119325D4B7842EA03228B78C97864
:1059200042EA034242EA01616961D5E9052141F891
:105930002020401CC0B2241D297C8142E9D8375D5B
:10594000287F641CB84204D2B900686A02F056FD90
:105950006862E01C2F77002218E03118001D0C68E7
:1059600003460146204404E0745C7718491C07F89C
:10597000014C8842F8D88419F11804F8018C491EAA
:1059800029626B6A43F82210521CD2B2297F9142DD
:10599000E3D8BDE8F08100000048704710AF000870
:1059A000004870477CAB00080048704731AF0008E2
:1059B0000048704752AF00080048704765AF0008C4
:1059C0000048704786AF000810B5064B0A68B2FB66
:1059D000F3F403FB1424B2FBF3F203681A440260ED
:1059E0000C6010BD00CA9A3B0A7842604B7842EACC
:1059F000032242608B7842EA03424260CB7842EA5B
:105A0000036242600B790A1D8360497943EA0121F0
:105A10008160937841EA03418160D27841EA026172
:105A2000816008207047000000487047D8AF000828
:105A300000487047F9AF000802490022C0E900128F
:105A4000826070477CAE00080048704707B00008CD
:105A50000048704728B0000870B506460C46001D87
:105A600000F008F80546611906F1140000F002F88C
:105A7000284470BD30B54368C3F3C7540CB104F576
:105A8000607400220A704A708A705D01CD70DD0872
:105A90000D71DD0A4D71C3F3C34343EA04158D71E3
:105AA0002409CC7190ED010AB5EEC00AF1EE10FAAE
:105AB00002D244F08004CC718368C3F3C7540CB1A4
:105AC00004F560740A724A728A725D01CD72DD0853
:105AD0000D73DD0A4D73C3F3C34343EA04158D739D
